{
  "_format": "hh-sol-artifact-1",
  "contractName": "JuniorNFT",
  "sourceName": "contracts/JuniorNFT.sol",
  "abi": [
    {
      "inputs": [
        {
          "internalType": "string",
          "name": "_baseURI",
          "type": "string"
        },
        {
          "internalType": "string",
          "name": "_defaultURI",
          "type": "string"
        }
      ],
      "stateMutability": "nonpayable",
      "type": "constructor"
    },
    {
      "inputs": [],
      "name": "AlreadyRevealed",
      "type": "error"
    },
    {
      "inputs": [],
      "name": "ApprovalCallerNotOwnerNorApproved",
      "type": "error"
    },
    {
      "inputs": [],
      "name": "ApprovalQueryForNonexistentToken",
      "type": "error"
    },
    {
      "inputs": [],
      "name": "ApprovalToCurrentOwner",
      "type": "error"
    },
    {
      "inputs": [],
      "name": "ApproveToCaller",
      "type": "error"
    },
    {
      "inputs": [
        {
          "internalType": "string",
          "name": "message",
          "type": "string"
        }
      ],
      "name": "BadRequest",
      "type": "error"
    },
    {
      "inputs": [],
      "name": "BalanceQueryForZeroAddress",
      "type": "error"
    },
    {
      "inputs": [],
      "name": "ExceedMaxQuantity",
      "type": "error"
    },
    {
      "inputs": [],
      "name": "FailedToSendBalance",
      "type": "error"
    },
    {
      "inputs": [],
      "name": "ImmutableState",
      "type": "error"
    },
    {
      "inputs": [],
      "name": "MintToZeroAddress",
      "type": "error"
    },
    {
      "inputs": [],
      "name": "MintZeroQuantity",
      "type": "error"
    },
    {
      "inputs": [],
      "name": "NoMatchingFee",
      "type": "error"
    },
    {
      "inputs": [
        {
          "internalType": "string",
          "name": "message",
          "type": "string"
        }
      ],
      "name": "NotOwnerNorAdmin",
      "type": "error"
    },
    {
      "inputs": [],
      "name": "OwnerQueryForNonexistentToken",
      "type": "error"
    },
    {
      "inputs": [],
      "name": "TransferCallerNotOwnerNorApproved",
      "type": "error"
    },
    {
      "inputs": [],
      "name": "TransferFromIncorrectOwner",
      "type": "error"
    },
    {
      "inputs": [],
      "name": "TransferToNonERC721ReceiverImplementer",
      "type": "error"
    },
    {
      "inputs": [],
      "name": "TransferToZeroAddress",
      "type": "error"
    },
    {
      "inputs": [],
      "name": "URIQueryForNonexistentToken",
      "type": "error"
    },
    {
      "anonymous": false,
      "inputs": [
        {
          "indexed": true,
          "internalType": "address",
          "name": "owner",
          "type": "address"
        },
        {
          "indexed": true,
          "internalType": "address",
          "name": "approved",
          "type": "address"
        },
        {
          "indexed": true,
          "internalType": "uint256",
          "name": "tokenId",
          "type": "uint256"
        }
      ],
      "name": "Approval",
      "type": "event"
    },
    {
      "anonymous": false,
      "inputs": [
        {
          "indexed": true,
          "internalType": "address",
          "name": "owner",
          "type": "address"
        },
        {
          "indexed": true,
          "internalType": "address",
          "name": "operator",
          "type": "address"
        },
        {
          "indexed": false,
          "internalType": "bool",
          "name": "approved",
          "type": "bool"
        }
      ],
      "name": "ApprovalForAll",
      "type": "event"
    },
    {
      "anonymous": false,
      "inputs": [
        {
          "indexed": false,
          "internalType": "string",
          "name": "baseURI",
          "type": "string"
        }
      ],
      "name": "BaseURIUpdated",
      "type": "event"
    },
    {
      "anonymous": false,
      "inputs": [
        {
          "indexed": false,
          "internalType": "string",
          "name": "defaultURI",
          "type": "string"
        }
      ],
      "name": "DefaultURIUpdated",
      "type": "event"
    },
    {
      "anonymous": false,
      "inputs": [],
      "name": "MintingFeeUpdated",
      "type": "event"
    },
    {
      "anonymous": false,
      "inputs": [
        {
          "indexed": true,
          "internalType": "address",
          "name": "previousOwner",
          "type": "address"
        },
        {
          "indexed": true,
          "internalType": "address",
          "name": "newOwner",
          "type": "address"
        }
      ],
      "name": "OwnershipTransferred",
      "type": "event"
    },
    {
      "anonymous": false,
      "inputs": [
        {
          "indexed": false,
          "internalType": "address",
          "name": "sender",
          "type": "address"
        },
        {
          "indexed": false,
          "internalType": "uint256",
          "name": "amount",
          "type": "uint256"
        }
      ],
      "name": "Received",
      "type": "event"
    },
    {
      "anonymous": false,
      "inputs": [],
      "name": "Revealed",
      "type": "event"
    },
    {
      "anonymous": false,
      "inputs": [
        {
          "indexed": true,
          "internalType": "address",
          "name": "from",
          "type": "address"
        },
        {
          "indexed": true,
          "internalType": "address",
          "name": "to",
          "type": "address"
        },
        {
          "indexed": true,
          "internalType": "uint256",
          "name": "tokenId",
          "type": "uint256"
        }
      ],
      "name": "Transfer",
      "type": "event"
    },
    {
      "anonymous": false,
      "inputs": [
        {
          "indexed": false,
          "internalType": "uint256",
          "name": "amount",
          "type": "uint256"
        }
      ],
      "name": "Withdraw",
      "type": "event"
    },
    {
      "stateMutability": "payable",
      "type": "fallback"
    },
    {
      "inputs": [],
      "name": "Admin",
      "outputs": [
        {
          "internalType": "address",
          "name": "",
          "type": "address"
        }
      ],
      "stateMutability": "view",
      "type": "function"
    },
    {
      "inputs": [
        {
          "internalType": "address",
          "name": "newAdmin",
          "type": "address"
        }
      ],
      "name": "addAdmin",
      "outputs": [],
      "stateMutability": "nonpayable",
      "type": "function"
    },
    {
      "inputs": [
        {
          "internalType": "uint256",
          "name": "quantity",
          "type": "uint256"
        }
      ],
      "name": "adminMint",
      "outputs": [],
      "stateMutability": "nonpayable",
      "type": "function"
    },
    {
      "inputs": [
        {
          "internalType": "address",
          "name": "to",
          "type": "address"
        },
        {
          "internalType": "uint256",
          "name": "tokenId",
          "type": "uint256"
        }
      ],
      "name": "approve",
      "outputs": [],
      "stateMutability": "nonpayable",
      "type": "function"
    },
    {
      "inputs": [
        {
          "internalType": "address",
          "name": "owner",
          "type": "address"
        }
      ],
      "name": "balanceOf",
      "outputs": [
        {
          "internalType": "uint256",
          "name": "",
          "type": "uint256"
        }
      ],
      "stateMutability": "view",
      "type": "function"
    },
    {
      "inputs": [],
      "name": "baseURI",
      "outputs": [
        {
          "internalType": "string",
          "name": "",
          "type": "string"
        }
      ],
      "stateMutability": "view",
      "type": "function"
    },
    {
      "inputs": [
        {
          "internalType": "uint256",
          "name": "tokenId",
          "type": "uint256"
        }
      ],
      "name": "getApproved",
      "outputs": [
        {
          "internalType": "address",
          "name": "",
          "type": "address"
        }
      ],
      "stateMutability": "view",
      "type": "function"
    },
    {
      "inputs": [],
      "name": "getBalance",
      "outputs": [
        {
          "internalType": "uint256",
          "name": "",
          "type": "uint256"
        }
      ],
      "stateMutability": "view",
      "type": "function"
    },
    {
      "inputs": [],
      "name": "getBaseURI",
      "outputs": [
        {
          "internalType": "string",
          "name": "",
          "type": "string"
        }
      ],
      "stateMutability": "view",
      "type": "function"
    },
    {
      "inputs": [],
      "name": "getMinintgFee",
      "outputs": [
        {
          "internalType": "uint256",
          "name": "",
          "type": "uint256"
        }
      ],
      "stateMutability": "view",
      "type": "function"
    },
    {
      "inputs": [
        {
          "internalType": "address",
          "name": "owner",
          "type": "address"
        },
        {
          "internalType": "address",
          "name": "operator",
          "type": "address"
        }
      ],
      "name": "isApprovedForAll",
      "outputs": [
        {
          "internalType": "bool",
          "name": "",
          "type": "bool"
        }
      ],
      "stateMutability": "view",
      "type": "function"
    },
    {
      "inputs": [],
      "name": "isPermanent",
      "outputs": [
        {
          "internalType": "bool",
          "name": "",
          "type": "bool"
        }
      ],
      "stateMutability": "view",
      "type": "function"
    },
    {
      "inputs": [],
      "name": "maxQuantity",
      "outputs": [
        {
          "internalType": "uint256",
          "name": "",
          "type": "uint256"
        }
      ],
      "stateMutability": "view",
      "type": "function"
    },
    {
      "inputs": [
        {
          "internalType": "uint256",
          "name": "quantity",
          "type": "uint256"
        }
      ],
      "name": "mint",
      "outputs": [],
      "stateMutability": "payable",
      "type": "function"
    },
    {
      "inputs": [],
      "name": "name",
      "outputs": [
        {
          "internalType": "string",
          "name": "",
          "type": "string"
        }
      ],
      "stateMutability": "view",
      "type": "function"
    },
    {
      "inputs": [],
      "name": "owner",
      "outputs": [
        {
          "internalType": "address",
          "name": "",
          "type": "address"
        }
      ],
      "stateMutability": "view",
      "type": "function"
    },
    {
      "inputs": [
        {
          "internalType": "uint256",
          "name": "tokenId",
          "type": "uint256"
        }
      ],
      "name": "ownerOf",
      "outputs": [
        {
          "internalType": "address",
          "name": "",
          "type": "address"
        }
      ],
      "stateMutability": "view",
      "type": "function"
    },
    {
      "inputs": [],
      "name": "renounceOwnership",
      "outputs": [],
      "stateMutability": "nonpayable",
      "type": "function"
    },
    {
      "inputs": [
        {
          "internalType": "address",
          "name": "from",
          "type": "address"
        },
        {
          "internalType": "address",
          "name": "to",
          "type": "address"
        },
        {
          "internalType": "uint256",
          "name": "tokenId",
          "type": "uint256"
        }
      ],
      "name": "safeTransferFrom",
      "outputs": [],
      "stateMutability": "nonpayable",
      "type": "function"
    },
    {
      "inputs": [
        {
          "internalType": "address",
          "name": "from",
          "type": "address"
        },
        {
          "internalType": "address",
          "name": "to",
          "type": "address"
        },
        {
          "internalType": "uint256",
          "name": "tokenId",
          "type": "uint256"
        },
        {
          "internalType": "bytes",
          "name": "_data",
          "type": "bytes"
        }
      ],
      "name": "safeTransferFrom",
      "outputs": [],
      "stateMutability": "nonpayable",
      "type": "function"
    },
    {
      "inputs": [
        {
          "internalType": "address",
          "name": "operator",
          "type": "address"
        },
        {
          "internalType": "bool",
          "name": "approved",
          "type": "bool"
        }
      ],
      "name": "setApprovalForAll",
      "outputs": [],
      "stateMutability": "nonpayable",
      "type": "function"
    },
    {
      "inputs": [
        {
          "internalType": "string",
          "name": "_newBaseURI",
          "type": "string"
        }
      ],
      "name": "setBaseURI",
      "outputs": [],
      "stateMutability": "nonpayable",
      "type": "function"
    },
    {
      "inputs": [
        {
          "internalType": "string",
          "name": "_defaultURI",
          "type": "string"
        }
      ],
      "name": "setDefaultURI",
      "outputs": [],
      "stateMutability": "nonpayable",
      "type": "function"
    },
    {
      "inputs": [
        {
          "internalType": "uint256",
          "name": "fee",
          "type": "uint256"
        }
      ],
      "name": "setMintingFee",
      "outputs": [],
      "stateMutability": "nonpayable",
      "type": "function"
    },
    {
      "inputs": [],
      "name": "setPermanent",
      "outputs": [],
      "stateMutability": "nonpayable",
      "type": "function"
    },
    {
      "inputs": [],
      "name": "setRevealed",
      "outputs": [],
      "stateMutability": "nonpayable",
      "type": "function"
    },
    {
      "inputs": [
        {
          "internalType": "bytes4",
          "name": "interfaceId",
          "type": "bytes4"
        }
      ],
      "name": "supportsInterface",
      "outputs": [
        {
          "internalType": "bool",
          "name": "",
          "type": "bool"
        }
      ],
      "stateMutability": "view",
      "type": "function"
    },
    {
      "inputs": [],
      "name": "symbol",
      "outputs": [
        {
          "internalType": "string",
          "name": "",
          "type": "string"
        }
      ],
      "stateMutability": "view",
      "type": "function"
    },
    {
      "inputs": [
        {
          "internalType": "uint256",
          "name": "tokenId",
          "type": "uint256"
        }
      ],
      "name": "tokenURI",
      "outputs": [
        {
          "internalType": "string",
          "name": "",
          "type": "string"
        }
      ],
      "stateMutability": "view",
      "type": "function"
    },
    {
      "inputs": [],
      "name": "tokenURIfix",
      "outputs": [
        {
          "internalType": "string",
          "name": "",
          "type": "string"
        }
      ],
      "stateMutability": "view",
      "type": "function"
    },
    {
      "inputs": [],
      "name": "totalSupply",
      "outputs": [
        {
          "internalType": "uint256",
          "name": "",
          "type": "uint256"
        }
      ],
      "stateMutability": "view",
      "type": "function"
    },
    {
      "inputs": [
        {
          "internalType": "uint256[]",
          "name": "tokenIds",
          "type": "uint256[]"
        },
        {
          "internalType": "address",
          "name": "to",
          "type": "address"
        }
      ],
      "name": "transferBatch",
      "outputs": [],
      "stateMutability": "nonpayable",
      "type": "function"
    },
    {
      "inputs": [
        {
          "internalType": "address",
          "name": "from",
          "type": "address"
        },
        {
          "internalType": "address",
          "name": "to",
          "type": "address"
        },
        {
          "internalType": "uint256",
          "name": "tokenId",
          "type": "uint256"
        }
      ],
      "name": "transferFrom",
      "outputs": [],
      "stateMutability": "nonpayable",
      "type": "function"
    },
    {
      "inputs": [
        {
          "internalType": "address",
          "name": "newOwner",
          "type": "address"
        }
      ],
      "name": "transferOwnership",
      "outputs": [],
      "stateMutability": "nonpayable",
      "type": "function"
    },
    {
      "inputs": [],
      "name": "withdraw",
      "outputs": [],
      "stateMutability": "payable",
      "type": "function"
    },
    {
      "stateMutability": "payable",
      "type": "receive"
    }
  ],
  "bytecode": "0x6005600c5560a06040819052600060808190526200002091600f916200016d565b503480156200002e57600080fd5b5060405162002241380380620022418339810160408190526200005191620002c6565b604080518082018252601581527f41746f6d72696773204a756e696f722773204e4654000000000000000000000060208083019182528351808501909452600c84526b129d5b9a5bdc89dcc813919560a21b908401528151919291620000ba916002916200016d565b508051620000d09060039060208401906200016d565b50506000805550620000e2336200011b565b60016009558151620000fc90600d9060208501906200016d565b5080516200011290600e9060208401906200016d565b50505062000380565b600880546001600160a01b038381166001600160a01b0319831681179093556040519116919082907f8be0079c531659141344cd1fd0a4f28419497f9722a3daafe3b4186f6b6457e090600090a35050565b8280546200017b906200032d565b90600052602060002090601f0160209004810192826200019f5760008555620001ea565b82601f10620001ba57805160ff1916838001178555620001ea565b82800160010185558215620001ea579182015b82811115620001ea578251825591602001919060010190620001cd565b50620001f8929150620001fc565b5090565b5b80821115620001f85760008155600101620001fd565b600082601f83011262000224578081fd5b81516001600160401b03808211156200024157620002416200036a565b604051601f8301601f19908116603f011681019082821181831017156200026c576200026c6200036a565b8160405283815260209250868385880101111562000288578485fd5b8491505b83821015620002ab57858201830151818301840152908201906200028c565b83821115620002bc57848385830101525b9695505050505050565b60008060408385031215620002d9578182fd5b82516001600160401b0380821115620002f0578384fd5b620002fe8683870162000213565b9350602085015191508082111562000314578283fd5b50620003238582860162000213565b9150509250929050565b600181811c908216806200034257607f821691505b602082108114156200036457634e487b7160e01b600052602260045260246000fd5b50919050565b634e487b7160e01b600052604160045260246000fd5b611eb180620003906000396000f3fe6080604052600436106102085760003560e01c80637048027511610118578063a22cb465116100a0578063da1b9e081161006f578063da1b9e08146105e0578063e640cf7d14610600578063e985e9c514610616578063f2fde38b1461065f578063ff1b636d1461067f57610252565b8063a22cb46514610560578063b88d4fde14610580578063c1f26123146105a0578063c87b56dd146105c057610252565b806375909379116100e757806375909379146104e657806378bff498146104fb5780638da5cb5b1461051a57806395d89b4114610538578063a0712d681461054d57610252565b8063704802751461047c57806370a082311461049c578063714c5398146104bc578063715018a6146104d157610252565b806323b872dd1161019b57806342842e0e1161016a57806342842e0e146103f2578063555fc7b71461041257806355f804b3146104275780636352211e146104475780636c0360eb1461046757610252565b806323b872dd146103a05780633bd64968146103c05780633ccfd60b146103d557806340d34285146103dd57610252565b8063095ea7b3116101d7578063095ea7b31461032a57806312065fe01461034a57806318160ddd14610367578063238a47091461038057610252565b806301ffc9a7146102795780630202def1146102ae57806306fdde03146102d0578063081812fc146102f257610252565b36610252577f88a5966d370b9919b20f3e2c13ff65706f196a4e32cc2c12bf57088f88525874335b604080516001600160a01b0390921682523460208301520160405180910390a1005b7f88a5966d370b9919b20f3e2c13ff65706f196a4e32cc2c12bf57088f8852587433610230565b34801561028557600080fd5b50610299610294366004611a8f565b6106a5565b60405190151581526020015b60405180910390f35b3480156102ba57600080fd5b506102ce6102c9366004611a10565b6106f7565b005b3480156102dc57600080fd5b506102e5610781565b6040516102a59190611cb5565b3480156102fe57600080fd5b5061031261030d366004611b0d565b610813565b6040516001600160a01b0390911681526020016102a5565b34801561033657600080fd5b506102ce6103453660046119e7565b610857565b34801561035657600080fd5b50475b6040519081526020016102a5565b34801561037357600080fd5b5060015460005403610359565b34801561038c57600080fd5b506102ce61039b366004611b0d565b61092a565b3480156103ac57600080fd5b506102ce6103bb3660046118f9565b6109d4565b3480156103cc57600080fd5b506102ce6109e4565b6102ce610a95565b3480156103e957600080fd5b506102ce610b8e565b3480156103fe57600080fd5b506102ce61040d3660046118f9565b610bc9565b34801561041e57600080fd5b50600b54610359565b34801561043357600080fd5b506102ce610442366004611ac7565b610be4565b34801561045357600080fd5b50610312610462366004611b0d565b610c85565b34801561047357600080fd5b506102e5610c90565b34801561048857600080fd5b506102ce6104973660046118ad565b610d1e565b3480156104a857600080fd5b506103596104b73660046118ad565b610d72565b3480156104c857600080fd5b506102e5610dc1565b3480156104dd57600080fd5b506102ce610dd0565b3480156104f257600080fd5b506102e5610e06565b34801561050757600080fd5b50600a5461029990610100900460ff1681565b34801561052657600080fd5b506008546001600160a01b0316610312565b34801561054457600080fd5b506102e5610e13565b6102ce61055b366004611b0d565b610e22565b34801561056c57600080fd5b506102ce61057b3660046119ad565b610eb4565b34801561058c57600080fd5b506102ce61059b366004611934565b610f4a565b3480156105ac57600080fd5b506102ce6105bb366004611b0d565b610f94565b3480156105cc57600080fd5b506102e56105db366004611b0d565b61106b565b3480156105ec57600080fd5b506102ce6105fb366004611ac7565b611101565b34801561060c57600080fd5b50610359600c5481565b34801561062257600080fd5b506102996106313660046118c7565b6001600160a01b03918216600090815260076020908152604080832093909416825291909152205460ff1690565b34801561066b57600080fd5b506102ce61067a3660046118ad565b61116e565b34801561068b57600080fd5b50600a54610312906201000090046001600160a01b031681565b60006301ffc9a760e01b6001600160e01b0319831614806106d657506380ac58cd60e01b6001600160e01b03198316145b806106f15750635b5e139f60e01b6001600160e01b03198316145b92915050565b600260095414156107235760405162461bcd60e51b815260040161071a90611d61565b60405180910390fd5b600260095560005b8281101561077657610764338386868581811061075857634e487b7160e01b600052603260045260246000fd5b90506020020135610bc9565b8061076e81611e1e565b91505061072b565b505060016009555050565b60606002805461079090611de3565b80601f01602080910402602001604051908101604052809291908181526020018280546107bc90611de3565b80156108095780601f106107de57610100808354040283529160200191610809565b820191906000526020600020905b8154815290600101906020018083116107ec57829003601f168201915b5050505050905090565b600061081e82611209565b61083b576040516333d1c03960e21b815260040160405180910390fd5b506000908152600660205260409020546001600160a01b031690565b600061086282611230565b9050806001600160a01b0316836001600160a01b031614156108975760405163250fdee360e21b815260040160405180910390fd5b336001600160a01b038216146108ce576108b18133610631565b6108ce576040516367d9dca160e11b815260040160405180910390fd5b60008281526006602052604080822080546001600160a01b0319166001600160a01b0387811691821790925591518593918516917f8c5be1e5ebec7d5bd14f71427d1e84f3dd0314c0f7b2291e5b200ac8c7c3b92591a4505050565b600a546201000090046001600160a01b031661095957604051632c73a0bf60e11b815260040161071a90611cff565b600a546201000090046001600160a01b0316331480159061098557506008546001600160a01b03163314155b156109a3576040516305a0a2dd60e41b815260040161071a90611cc8565b600b8190556040517ff2f0645894735cd6354bac6c5fe8a404442eb2a6aefa35b709af910949cfd31390600090a150565b6109df838383611298565b505050565b600a546201000090046001600160a01b0316610a1357604051632c73a0bf60e11b815260040161071a90611cff565b600a546201000090046001600160a01b03163314801590610a3f57506008546001600160a01b03163314155b15610a5d576040516305a0a2dd60e41b815260040161071a90611cc8565b600a805460ff191660011790556040517fe2a7169cedebe39671840370ae19ca4fc41be6191d4c77f174f189a4d8cd08c890600090a1565b6008546001600160a01b03163314610abf5760405162461bcd60e51b815260040161071a90611d2c565b60026009541415610ae25760405162461bcd60e51b815260040161071a90611d61565b60026009556040514790600090339083908381818185875af1925050503d8060008114610b2b576040519150601f19603f3d011682016040523d82523d6000602084013e610b30565b606091505b5050905080610b525760405163ce43c9c560e01b815260040160405180910390fd5b6040518281527f5b6b431d4476a211bb7d41c20d1aab9ae2321deee0d20be3d9fc9b1093fa6e3d9060200160405180910390a150506001600955565b6008546001600160a01b03163314610bb85760405162461bcd60e51b815260040161071a90611d2c565b600a805461ff001916610100179055565b6109df83838360405180602001604052806000815250610f4a565b6008546001600160a01b03163314610c0e5760405162461bcd60e51b815260040161071a90611d2c565b600a54610100900460ff1615610c3757604051636bf43ac160e11b815260040160405180910390fd5b8051610c4a90600d906020840190611787565b507f6741b2fc379fad678116fe3d4d4b9a1a184ab53ba36b86ad0fa66340b1ab41ad81604051610c7a9190611cb5565b60405180910390a150565b60006106f182611230565b600d8054610c9d90611de3565b80601f0160208091040260200160405190810160405280929190818152602001828054610cc990611de3565b8015610d165780601f10610ceb57610100808354040283529160200191610d16565b820191906000526020600020905b815481529060010190602001808311610cf957829003601f168201915b505050505081565b6008546001600160a01b03163314610d485760405162461bcd60e51b815260040161071a90611d2c565b600a80546001600160a01b03909216620100000262010000600160b01b0319909216919091179055565b60006001600160a01b038216610d9b576040516323d3ad8160e21b815260040160405180910390fd5b506001600160a01b031660009081526005602052604090205467ffffffffffffffff1690565b6060610dcb61143b565b905090565b6008546001600160a01b03163314610dfa5760405162461bcd60e51b815260040161071a90611d2c565b610e04600061144a565b565b600f8054610c9d90611de3565b60606003805461079090611de3565b60026009541415610e455760405162461bcd60e51b815260040161071a90611d61565b6002600955600b54600090610e5b908390611d98565b9050348114610e7d5760405163bfa3573760e01b815260040160405180910390fd5b600c54821115610ea057604051633435702960e01b815260040160405180910390fd5b610eaa338361149c565b5050600160095550565b6001600160a01b038216331415610ede5760405163b06307db60e01b815260040160405180910390fd5b3360008181526007602090815260408083206001600160a01b03871680855290835292819020805460ff191686151590811790915590519081529192917f17307eab39ab6107e8899845ad3d59bd9653f200f220920489ca2b5937696c31910160405180910390a35050565b610f55848484611298565b6001600160a01b0383163b15610f8e57610f71848484846114b1565b610f8e576040516368d2bf6b60e11b815260040160405180910390fd5b50505050565b600a546201000090046001600160a01b0316610fc357604051632c73a0bf60e11b815260040161071a90611cff565b600a546201000090046001600160a01b03163314801590610fef57506008546001600160a01b03163314155b1561100d576040516305a0a2dd60e41b815260040161071a90611cc8565b600260095414156110305760405162461bcd60e51b815260040161071a90611d61565b6002600955600c5481111561105857604051633435702960e01b815260040160405180910390fd5b611062338261149c565b50506001600955565b60408051600081526020810180835281519020606092909161109091600f9101611be9565b60405160208183030381529060405280519060200120146110e057600d600f6110b8846115a9565b6040516020016110ca93929190611c2a565b6040516020818303038152906040529050919050565b600e6110eb836115a9565b6040516020016110ca929190611bf5565b919050565b6008546001600160a01b0316331461112b5760405162461bcd60e51b815260040161071a90611d2c565b805161113e90600e906020840190611787565b507fd2bc967bbe8415901898897289f2a34de3bde16de1ab5fc5a57a682844bf565381604051610c7a9190611cb5565b6008546001600160a01b031633146111985760405162461bcd60e51b815260040161071a90611d2c565b6001600160a01b0381166111fd5760405162461bcd60e51b815260206004820152602660248201527f4f776e61626c653a206e6577206f776e657220697320746865207a65726f206160448201526564647265737360d01b606482015260840161071a565b6112068161144a565b50565b60008054821080156106f1575050600090815260046020526040902054600160e01b161590565b60008160005481101561127f57600081815260046020526040902054600160e01b811661127d575b80611276575060001901600081815260046020526040902054611258565b9392505050565b505b604051636f96cda160e11b815260040160405180910390fd5b60006112a382611230565b9050836001600160a01b0316816001600160a01b0316146112d65760405162a1148160e81b815260040160405180910390fd5b6000336001600160a01b03861614806112f457506112f48533610631565b8061130f57503361130484610813565b6001600160a01b0316145b90508061132f57604051632ce44b5f60e11b815260040160405180910390fd5b6001600160a01b03841661135657604051633a954ecd60e21b815260040160405180910390fd5b600083815260066020908152604080832080546001600160a01b03191690556001600160a01b038881168452600583528184208054600019019055871683528083208054600101905585835260049091529020600160e11b4260a01b8617811790915582166113f357600183016000818152600460205260409020546113f15760005481146113f15760008181526004602052604090208390555b505b82846001600160a01b0316866001600160a01b03167fddf252ad1be2c89b69c2b068fc378daa952ba7f163c4a11628f55a4df523b3ef60405160405180910390a45050505050565b6060600d805461079090611de3565b600880546001600160a01b038381166001600160a01b0319831681179093556040519116919082907f8be0079c531659141344cd1fd0a4f28419497f9722a3daafe3b4186f6b6457e090600090a35050565b60006114a883836115f8565b50600192915050565b604051630a85bd0160e11b81526000906001600160a01b0385169063150b7a02906114e6903390899088908890600401611c78565b602060405180830381600087803b15801561150057600080fd5b505af1925050508015611530575060408051601f3d908101601f1916820190925261152d91810190611aab565b60015b61158b573d80801561155e576040519150601f19603f3d011682016040523d82523d6000602084013e611563565b606091505b508051611583576040516368d2bf6b60e11b815260040160405180910390fd5b805181602001fd5b6001600160e01b031916630a85bd0160e11b1490505b949350505050565b604080516080810191829052607f0190826030600a8206018353600a90045b80156115e657600183039250600a81066030018353600a90046115c8565b50819003601f19909101908152919050565b611612828260405180602001604052806000815250611616565b5050565b6000546001600160a01b03841661163f57604051622e076360e81b815260040160405180910390fd5b8261165d5760405163b562e8dd60e01b815260040160405180910390fd5b6001600160a01b03841660008181526005602090815260408083208054680100000000000000018902019055848352600490915290204260a01b86176001861460e11b1790558190818501903b15611732575b60405182906001600160a01b038816906000907fddf252ad1be2c89b69c2b068fc378daa952ba7f163c4a11628f55a4df523b3ef908290a46116fb60008784806001019550876114b1565b611718576040516368d2bf6b60e11b815260040160405180910390fd5b8082106116b057826000541461172d57600080fd5b611777565b5b6040516001830192906001600160a01b038816906000907fddf252ad1be2c89b69c2b068fc378daa952ba7f163c4a11628f55a4df523b3ef908290a4808210611733575b506000908155610f8e9085838684565b82805461179390611de3565b90600052602060002090601f0160209004810192826117b557600085556117fb565b82601f106117ce57805160ff19168380011785556117fb565b828001600101855582156117fb579182015b828111156117fb5782518255916020019190600101906117e0565b5061180792915061180b565b5090565b5b80821115611807576000815560010161180c565b600067ffffffffffffffff8084111561183b5761183b611e4f565b604051601f8501601f19908116603f0116810190828211818310171561186357611863611e4f565b8160405280935085815286868601111561187c57600080fd5b858560208301376000602087830101525050509392505050565b80356001600160a01b03811681146110fc57600080fd5b6000602082840312156118be578081fd5b61127682611896565b600080604083850312156118d9578081fd5b6118e283611896565b91506118f060208401611896565b90509250929050565b60008060006060848603121561190d578081fd5b61191684611896565b925061192460208501611896565b9150604084013590509250925092565b60008060008060808587031215611949578081fd5b61195285611896565b935061196060208601611896565b925060408501359150606085013567ffffffffffffffff811115611982578182fd5b8501601f81018713611992578182fd5b6119a187823560208401611820565b91505092959194509250565b600080604083850312156119bf578182fd5b6119c883611896565b9150602083013580151581146119dc578182fd5b809150509250929050565b600080604083850312156119f9578182fd5b611a0283611896565b946020939093013593505050565b600080600060408486031215611a24578283fd5b833567ffffffffffffffff80821115611a3b578485fd5b818601915086601f830112611a4e578485fd5b813581811115611a5c578586fd5b8760208260051b8501011115611a70578586fd5b602092830195509350611a869186019050611896565b90509250925092565b600060208284031215611aa0578081fd5b813561127681611e65565b600060208284031215611abc578081fd5b815161127681611e65565b600060208284031215611ad8578081fd5b813567ffffffffffffffff811115611aee578182fd5b8201601f81018413611afe578182fd5b6115a184823560208401611820565b600060208284031215611b1e578081fd5b5035919050565b60008151808452611b3d816020860160208601611db7565b601f01601f19169290920160200192915050565b8054600090600181811c9080831680611b6b57607f831692505b6020808410821415611b8b57634e487b7160e01b86526022600452602486fd5b818015611b9f5760018114611bb057611bdd565b60ff19861689528489019650611bdd565b60008881526020902060005b86811015611bd55781548b820152908501908301611bbc565b505084890196505b50505050505092915050565b60006112768284611b51565b6000611c018285611b51565b8351611c11818360208801611db7565b64173539b7b760d91b9101908152600501949350505050565b6000611c3f611c398387611b51565b85611b51565b602f60f81b81528351611c59816001840160208801611db7565b64173539b7b760d91b6001929091019182015260060195945050505050565b6001600160a01b0385811682528416602082015260408101839052608060608201819052600090611cab90830184611b25565b9695505050505050565b6020815260006112766020830184611b25565b60208082526017908201527f63616c6c6572206973206e6f74207468652041646d696e000000000000000000604082015260600190565b6020808252601390820152724e6f7420616c6c6f776564206164647265737360681b604082015260600190565b6020808252818101527f4f776e61626c653a2063616c6c6572206973206e6f7420746865206f776e6572604082015260600190565b6020808252601f908201527f5265656e7472616e637947756172643a207265656e7472616e742063616c6c00604082015260600190565b6000816000190483118215151615611db257611db2611e39565b500290565b60005b83811015611dd2578181015183820152602001611dba565b83811115610f8e5750506000910152565b600181811c90821680611df757607f821691505b60208210811415611e1857634e487b7160e01b600052602260045260246000fd5b50919050565b6000600019821415611e3257611e32611e39565b5060010190565b634e487b7160e01b600052601160045260246000fd5b634e487b7160e01b600052604160045260246000fd5b6001600160e01b03198116811461120657600080fdfea26469706673582212207a8be4afbd10e97c05f2fe6ceb6462361ee586202c7646942e13c04cbc5a7f0264736f6c63430008040033",
  "linkReferences": {},
  "deployedLinkReferences": {}
}