{
  "_format": "hh-sol-artifact-1",
  "contractName": "JuniorNFT",
  "sourceName": "contracts/JuniorNFT.sol",
  "abi": [
    {
      "inputs": [
        {
          "internalType": "string",
          "name": "_baseURI",
          "type": "string"
        },
        {
          "internalType": "string",
          "name": "_defaultURI",
          "type": "string"
        }
      ],
      "stateMutability": "nonpayable",
      "type": "constructor"
    },
    {
      "inputs": [],
      "name": "AlreadyRevealed",
      "type": "error"
    },
    {
      "inputs": [],
      "name": "ApprovalCallerNotOwnerNorApproved",
      "type": "error"
    },
    {
      "inputs": [],
      "name": "ApprovalQueryForNonexistentToken",
      "type": "error"
    },
    {
      "inputs": [],
      "name": "ApprovalToCurrentOwner",
      "type": "error"
    },
    {
      "inputs": [],
      "name": "ApproveToCaller",
      "type": "error"
    },
    {
      "inputs": [
        {
          "internalType": "string",
          "name": "message",
          "type": "string"
        }
      ],
      "name": "BadRequest",
      "type": "error"
    },
    {
      "inputs": [],
      "name": "BalanceQueryForZeroAddress",
      "type": "error"
    },
    {
      "inputs": [],
      "name": "ExceedMaxQuantity",
      "type": "error"
    },
    {
      "inputs": [],
      "name": "FailedToSendBalance",
      "type": "error"
    },
    {
      "inputs": [],
      "name": "ImmutableState",
      "type": "error"
    },
    {
      "inputs": [],
      "name": "MintToZeroAddress",
      "type": "error"
    },
    {
      "inputs": [],
      "name": "MintZeroQuantity",
      "type": "error"
    },
    {
      "inputs": [],
      "name": "NoMatchingFee",
      "type": "error"
    },
    {
      "inputs": [
        {
          "internalType": "string",
          "name": "message",
          "type": "string"
        }
      ],
      "name": "NotOwnerNorAdmin",
      "type": "error"
    },
    {
      "inputs": [],
      "name": "OwnerQueryForNonexistentToken",
      "type": "error"
    },
    {
      "inputs": [],
      "name": "TransferCallerNotOwnerNorApproved",
      "type": "error"
    },
    {
      "inputs": [],
      "name": "TransferFromIncorrectOwner",
      "type": "error"
    },
    {
      "inputs": [],
      "name": "TransferToNonERC721ReceiverImplementer",
      "type": "error"
    },
    {
      "inputs": [],
      "name": "TransferToZeroAddress",
      "type": "error"
    },
    {
      "inputs": [],
      "name": "URIQueryForNonexistentToken",
      "type": "error"
    },
    {
      "anonymous": false,
      "inputs": [
        {
          "indexed": true,
          "internalType": "address",
          "name": "owner",
          "type": "address"
        },
        {
          "indexed": true,
          "internalType": "address",
          "name": "approved",
          "type": "address"
        },
        {
          "indexed": true,
          "internalType": "uint256",
          "name": "tokenId",
          "type": "uint256"
        }
      ],
      "name": "Approval",
      "type": "event"
    },
    {
      "anonymous": false,
      "inputs": [
        {
          "indexed": true,
          "internalType": "address",
          "name": "owner",
          "type": "address"
        },
        {
          "indexed": true,
          "internalType": "address",
          "name": "operator",
          "type": "address"
        },
        {
          "indexed": false,
          "internalType": "bool",
          "name": "approved",
          "type": "bool"
        }
      ],
      "name": "ApprovalForAll",
      "type": "event"
    },
    {
      "anonymous": false,
      "inputs": [
        {
          "indexed": false,
          "internalType": "string",
          "name": "baseURI",
          "type": "string"
        }
      ],
      "name": "BaseURIUpdated",
      "type": "event"
    },
    {
      "anonymous": false,
      "inputs": [
        {
          "indexed": false,
          "internalType": "string",
          "name": "defaultURI",
          "type": "string"
        }
      ],
      "name": "DefaultURIUpdated",
      "type": "event"
    },
    {
      "anonymous": false,
      "inputs": [],
      "name": "MintingFeeUpdated",
      "type": "event"
    },
    {
      "anonymous": false,
      "inputs": [
        {
          "indexed": true,
          "internalType": "address",
          "name": "previousOwner",
          "type": "address"
        },
        {
          "indexed": true,
          "internalType": "address",
          "name": "newOwner",
          "type": "address"
        }
      ],
      "name": "OwnershipTransferred",
      "type": "event"
    },
    {
      "anonymous": false,
      "inputs": [
        {
          "indexed": false,
          "internalType": "address",
          "name": "sender",
          "type": "address"
        },
        {
          "indexed": false,
          "internalType": "uint256",
          "name": "amount",
          "type": "uint256"
        }
      ],
      "name": "Received",
      "type": "event"
    },
    {
      "anonymous": false,
      "inputs": [],
      "name": "Revealed",
      "type": "event"
    },
    {
      "anonymous": false,
      "inputs": [
        {
          "indexed": true,
          "internalType": "address",
          "name": "from",
          "type": "address"
        },
        {
          "indexed": true,
          "internalType": "address",
          "name": "to",
          "type": "address"
        },
        {
          "indexed": true,
          "internalType": "uint256",
          "name": "tokenId",
          "type": "uint256"
        }
      ],
      "name": "Transfer",
      "type": "event"
    },
    {
      "anonymous": false,
      "inputs": [
        {
          "indexed": false,
          "internalType": "uint256",
          "name": "amount",
          "type": "uint256"
        }
      ],
      "name": "Withdraw",
      "type": "event"
    },
    {
      "stateMutability": "payable",
      "type": "fallback"
    },
    {
      "inputs": [],
      "name": "Admin",
      "outputs": [
        {
          "internalType": "address",
          "name": "",
          "type": "address"
        }
      ],
      "stateMutability": "view",
      "type": "function"
    },
    {
      "inputs": [
        {
          "internalType": "address",
          "name": "newAdmin",
          "type": "address"
        }
      ],
      "name": "addAdmin",
      "outputs": [],
      "stateMutability": "nonpayable",
      "type": "function"
    },
    {
      "inputs": [
        {
          "internalType": "uint256",
          "name": "quantity",
          "type": "uint256"
        }
      ],
      "name": "adminMint",
      "outputs": [],
      "stateMutability": "nonpayable",
      "type": "function"
    },
    {
      "inputs": [
        {
          "internalType": "address",
          "name": "to",
          "type": "address"
        },
        {
          "internalType": "uint256",
          "name": "tokenId",
          "type": "uint256"
        }
      ],
      "name": "approve",
      "outputs": [],
      "stateMutability": "nonpayable",
      "type": "function"
    },
    {
      "inputs": [
        {
          "internalType": "address",
          "name": "owner",
          "type": "address"
        }
      ],
      "name": "balanceOf",
      "outputs": [
        {
          "internalType": "uint256",
          "name": "",
          "type": "uint256"
        }
      ],
      "stateMutability": "view",
      "type": "function"
    },
    {
      "inputs": [],
      "name": "baseURI",
      "outputs": [
        {
          "internalType": "string",
          "name": "",
          "type": "string"
        }
      ],
      "stateMutability": "view",
      "type": "function"
    },
    {
      "inputs": [
        {
          "internalType": "uint256",
          "name": "tokenId",
          "type": "uint256"
        }
      ],
      "name": "getApproved",
      "outputs": [
        {
          "internalType": "address",
          "name": "",
          "type": "address"
        }
      ],
      "stateMutability": "view",
      "type": "function"
    },
    {
      "inputs": [],
      "name": "getBalance",
      "outputs": [
        {
          "internalType": "uint256",
          "name": "",
          "type": "uint256"
        }
      ],
      "stateMutability": "view",
      "type": "function"
    },
    {
      "inputs": [],
      "name": "getBaseURI",
      "outputs": [
        {
          "internalType": "string",
          "name": "",
          "type": "string"
        }
      ],
      "stateMutability": "view",
      "type": "function"
    },
    {
      "inputs": [],
      "name": "getMinintgFee",
      "outputs": [
        {
          "internalType": "uint256",
          "name": "",
          "type": "uint256"
        }
      ],
      "stateMutability": "view",
      "type": "function"
    },
    {
      "inputs": [
        {
          "internalType": "address",
          "name": "owner",
          "type": "address"
        },
        {
          "internalType": "address",
          "name": "operator",
          "type": "address"
        }
      ],
      "name": "isApprovedForAll",
      "outputs": [
        {
          "internalType": "bool",
          "name": "",
          "type": "bool"
        }
      ],
      "stateMutability": "view",
      "type": "function"
    },
    {
      "inputs": [],
      "name": "maxQuantity",
      "outputs": [
        {
          "internalType": "uint256",
          "name": "",
          "type": "uint256"
        }
      ],
      "stateMutability": "view",
      "type": "function"
    },
    {
      "inputs": [
        {
          "internalType": "uint256",
          "name": "quantity",
          "type": "uint256"
        }
      ],
      "name": "mint",
      "outputs": [],
      "stateMutability": "payable",
      "type": "function"
    },
    {
      "inputs": [],
      "name": "name",
      "outputs": [
        {
          "internalType": "string",
          "name": "",
          "type": "string"
        }
      ],
      "stateMutability": "view",
      "type": "function"
    },
    {
      "inputs": [],
      "name": "owner",
      "outputs": [
        {
          "internalType": "address",
          "name": "",
          "type": "address"
        }
      ],
      "stateMutability": "view",
      "type": "function"
    },
    {
      "inputs": [
        {
          "internalType": "uint256",
          "name": "tokenId",
          "type": "uint256"
        }
      ],
      "name": "ownerOf",
      "outputs": [
        {
          "internalType": "address",
          "name": "",
          "type": "address"
        }
      ],
      "stateMutability": "view",
      "type": "function"
    },
    {
      "inputs": [],
      "name": "renounceOwnership",
      "outputs": [],
      "stateMutability": "nonpayable",
      "type": "function"
    },
    {
      "inputs": [],
      "name": "revealed",
      "outputs": [
        {
          "internalType": "bool",
          "name": "",
          "type": "bool"
        }
      ],
      "stateMutability": "view",
      "type": "function"
    },
    {
      "inputs": [
        {
          "internalType": "address",
          "name": "from",
          "type": "address"
        },
        {
          "internalType": "address",
          "name": "to",
          "type": "address"
        },
        {
          "internalType": "uint256",
          "name": "tokenId",
          "type": "uint256"
        }
      ],
      "name": "safeTransferFrom",
      "outputs": [],
      "stateMutability": "nonpayable",
      "type": "function"
    },
    {
      "inputs": [
        {
          "internalType": "address",
          "name": "from",
          "type": "address"
        },
        {
          "internalType": "address",
          "name": "to",
          "type": "address"
        },
        {
          "internalType": "uint256",
          "name": "tokenId",
          "type": "uint256"
        },
        {
          "internalType": "bytes",
          "name": "_data",
          "type": "bytes"
        }
      ],
      "name": "safeTransferFrom",
      "outputs": [],
      "stateMutability": "nonpayable",
      "type": "function"
    },
    {
      "inputs": [
        {
          "internalType": "address",
          "name": "operator",
          "type": "address"
        },
        {
          "internalType": "bool",
          "name": "approved",
          "type": "bool"
        }
      ],
      "name": "setApprovalForAll",
      "outputs": [],
      "stateMutability": "nonpayable",
      "type": "function"
    },
    {
      "inputs": [
        {
          "internalType": "string",
          "name": "_newBaseURI",
          "type": "string"
        }
      ],
      "name": "setBaseURI",
      "outputs": [],
      "stateMutability": "nonpayable",
      "type": "function"
    },
    {
      "inputs": [
        {
          "internalType": "string",
          "name": "_defaultURI",
          "type": "string"
        }
      ],
      "name": "setDefaultURI",
      "outputs": [],
      "stateMutability": "nonpayable",
      "type": "function"
    },
    {
      "inputs": [
        {
          "internalType": "uint256",
          "name": "fee",
          "type": "uint256"
        }
      ],
      "name": "setMintingFee",
      "outputs": [],
      "stateMutability": "nonpayable",
      "type": "function"
    },
    {
      "inputs": [
        {
          "internalType": "bytes4",
          "name": "interfaceId",
          "type": "bytes4"
        }
      ],
      "name": "supportsInterface",
      "outputs": [
        {
          "internalType": "bool",
          "name": "",
          "type": "bool"
        }
      ],
      "stateMutability": "view",
      "type": "function"
    },
    {
      "inputs": [],
      "name": "symbol",
      "outputs": [
        {
          "internalType": "string",
          "name": "",
          "type": "string"
        }
      ],
      "stateMutability": "view",
      "type": "function"
    },
    {
      "inputs": [
        {
          "internalType": "uint256",
          "name": "tokenId",
          "type": "uint256"
        }
      ],
      "name": "tokenURI",
      "outputs": [
        {
          "internalType": "string",
          "name": "",
          "type": "string"
        }
      ],
      "stateMutability": "view",
      "type": "function"
    },
    {
      "inputs": [],
      "name": "totalSupply",
      "outputs": [
        {
          "internalType": "uint256",
          "name": "",
          "type": "uint256"
        }
      ],
      "stateMutability": "view",
      "type": "function"
    },
    {
      "inputs": [
        {
          "internalType": "uint256[]",
          "name": "tokenIds",
          "type": "uint256[]"
        },
        {
          "internalType": "address",
          "name": "to",
          "type": "address"
        }
      ],
      "name": "transferBatch",
      "outputs": [],
      "stateMutability": "nonpayable",
      "type": "function"
    },
    {
      "inputs": [
        {
          "internalType": "address",
          "name": "from",
          "type": "address"
        },
        {
          "internalType": "address",
          "name": "to",
          "type": "address"
        },
        {
          "internalType": "uint256",
          "name": "tokenId",
          "type": "uint256"
        }
      ],
      "name": "transferFrom",
      "outputs": [],
      "stateMutability": "nonpayable",
      "type": "function"
    },
    {
      "inputs": [
        {
          "internalType": "address",
          "name": "newOwner",
          "type": "address"
        }
      ],
      "name": "transferOwnership",
      "outputs": [],
      "stateMutability": "nonpayable",
      "type": "function"
    },
    {
      "inputs": [],
      "name": "withdraw",
      "outputs": [],
      "stateMutability": "payable",
      "type": "function"
    },
    {
      "stateMutability": "payable",
      "type": "receive"
    }
  ],
  "bytecode": "0x60806040526005600c55600f805460ff191690553480156200002057600080fd5b506040516200207b3803806200207b8339810160408190526200004391620002b6565b604080518082018252601381527f41746f6d72696773204a756e696f72204e46540000000000000000000000000060208083019182528351808501909452600a845269129d5b9a5bdc9cd3919560b21b908401528151919291620000aa916002916200015d565b508051620000c09060039060208401906200015d565b50506000805550620000d2336200010b565b60016009558151620000ec90600d9060208501906200015d565b5080516200010290600e9060208401906200015d565b50505062000370565b600880546001600160a01b038381166001600160a01b0319831681179093556040519116919082907f8be0079c531659141344cd1fd0a4f28419497f9722a3daafe3b4186f6b6457e090600090a35050565b8280546200016b906200031d565b90600052602060002090601f0160209004810192826200018f5760008555620001da565b82601f10620001aa57805160ff1916838001178555620001da565b82800160010185558215620001da579182015b82811115620001da578251825591602001919060010190620001bd565b50620001e8929150620001ec565b5090565b5b80821115620001e85760008155600101620001ed565b600082601f83011262000214578081fd5b81516001600160401b03808211156200023157620002316200035a565b604051601f8301601f19908116603f011681019082821181831017156200025c576200025c6200035a565b8160405283815260209250868385880101111562000278578485fd5b8491505b838210156200029b57858201830151818301840152908201906200027c565b83821115620002ac57848385830101525b9695505050505050565b60008060408385031215620002c9578182fd5b82516001600160401b0380821115620002e0578384fd5b620002ee8683870162000203565b9350602085015191508082111562000304578283fd5b50620003138582860162000203565b9150509250929050565b600181811c908216806200033257607f821691505b602082108114156200035457634e487b7160e01b600052602260045260246000fd5b50919050565b634e487b7160e01b600052604160045260246000fd5b611cfb80620003806000396000f3fe6080604052600436106101e75760003560e01c80637048027511610102578063b88d4fde11610095578063e640cf7d11610064578063e640cf7d1461059b578063e985e9c5146105b1578063f2fde38b146105fa578063ff1b636d1461061a57610231565b8063b88d4fde1461051b578063c1f261231461053b578063c87b56dd1461055b578063da1b9e081461057b57610231565b80638da5cb5b116100d15780638da5cb5b146104b557806395d89b41146104d3578063a0712d68146104e8578063a22cb465146104fb57610231565b8063704802751461044b57806370a082311461046b578063714c53981461048b578063715018a6146104a057610231565b806323b872dd1161017a578063555fc7b711610149578063555fc7b7146103e157806355f804b3146103f65780636352211e146104165780636c0360eb1461043657610231565b806323b872dd1461037f5780633ccfd60b1461039f57806342842e0e146103a757806351830227146103c757610231565b8063095ea7b3116101b6578063095ea7b31461030957806312065fe01461032957806318160ddd14610346578063238a47091461035f57610231565b806301ffc9a7146102585780630202def11461028d57806306fdde03146102af578063081812fc146102d157610231565b36610231577f88a5966d370b9919b20f3e2c13ff65706f196a4e32cc2c12bf57088f88525874335b604080516001600160a01b0390921682523460208301520160405180910390a1005b7f88a5966d370b9919b20f3e2c13ff65706f196a4e32cc2c12bf57088f885258743361020f565b34801561026457600080fd5b506102786102733660046118ef565b61063a565b60405190151581526020015b60405180910390f35b34801561029957600080fd5b506102ad6102a8366004611870565b61068c565b005b3480156102bb57600080fd5b506102c4610716565b6040516102849190611aff565b3480156102dd57600080fd5b506102f16102ec36600461196d565b6107a8565b6040516001600160a01b039091168152602001610284565b34801561031557600080fd5b506102ad610324366004611847565b6107ec565b34801561033557600080fd5b50475b604051908152602001610284565b34801561035257600080fd5b5060015460005403610338565b34801561036b57600080fd5b506102ad61037a36600461196d565b6108bf565b34801561038b57600080fd5b506102ad61039a366004611759565b61095d565b6102ad61096d565b3480156103b357600080fd5b506102ad6103c2366004611759565b610a66565b3480156103d357600080fd5b50600f546102789060ff1681565b3480156103ed57600080fd5b50600b54610338565b34801561040257600080fd5b506102ad610411366004611927565b610a81565b34801561042257600080fd5b506102f161043136600461196d565b610b3c565b34801561044257600080fd5b506102c4610b47565b34801561045757600080fd5b506102ad61046636600461170d565b610bd5565b34801561047757600080fd5b5061033861048636600461170d565b610c21565b34801561049757600080fd5b506102c4610c70565b3480156104ac57600080fd5b506102ad610c7f565b3480156104c157600080fd5b506008546001600160a01b03166102f1565b3480156104df57600080fd5b506102c4610cb5565b6102ad6104f636600461196d565b610cc4565b34801561050757600080fd5b506102ad61051636600461180d565b610d56565b34801561052757600080fd5b506102ad610536366004611794565b610dec565b34801561054757600080fd5b506102ad61055636600461196d565b610e36565b34801561056757600080fd5b506102c461057636600461196d565b610f01565b34801561058757600080fd5b506102ad610596366004611927565b610f61565b3480156105a757600080fd5b50610338600c5481565b3480156105bd57600080fd5b506102786105cc366004611727565b6001600160a01b03918216600090815260076020908152604080832093909416825291909152205460ff1690565b34801561060657600080fd5b506102ad61061536600461170d565b610fce565b34801561062657600080fd5b50600a546102f1906001600160a01b031681565b60006301ffc9a760e01b6001600160e01b03198316148061066b57506380ac58cd60e01b6001600160e01b03198316145b806106865750635b5e139f60e01b6001600160e01b03198316145b92915050565b600260095414156106b85760405162461bcd60e51b81526004016106af90611bab565b60405180910390fd5b600260095560005b8281101561070b576106f933838686858181106106ed57634e487b7160e01b600052603260045260246000fd5b90506020020135610a66565b8061070381611c68565b9150506106c0565b505060016009555050565b60606002805461072590611c2d565b80601f016020809104026020016040519081016040528092919081815260200182805461075190611c2d565b801561079e5780601f106107735761010080835404028352916020019161079e565b820191906000526020600020905b81548152906001019060200180831161078157829003601f168201915b5050505050905090565b60006107b382611069565b6107d0576040516333d1c03960e21b815260040160405180910390fd5b506000908152600660205260409020546001600160a01b031690565b60006107f782611090565b9050806001600160a01b0316836001600160a01b0316141561082c5760405163250fdee360e21b815260040160405180910390fd5b336001600160a01b038216146108635761084681336105cc565b610863576040516367d9dca160e11b815260040160405180910390fd5b60008281526006602052604080822080546001600160a01b0319166001600160a01b0387811691821790925591518593918516917f8c5be1e5ebec7d5bd14f71427d1e84f3dd0314c0f7b2291e5b200ac8c7c3b92591a4505050565b600a546001600160a01b03166108e857604051632c73a0bf60e11b81526004016106af90611b49565b600a546001600160a01b0316331480159061090e57506008546001600160a01b03163314155b1561092c576040516305a0a2dd60e41b81526004016106af90611b12565b600b8190556040517ff2f0645894735cd6354bac6c5fe8a404442eb2a6aefa35b709af910949cfd31390600090a150565b6109688383836110f8565b505050565b6008546001600160a01b031633146109975760405162461bcd60e51b81526004016106af90611b76565b600260095414156109ba5760405162461bcd60e51b81526004016106af90611bab565b60026009556040514790600090339083908381818185875af1925050503d8060008114610a03576040519150601f19603f3d011682016040523d82523d6000602084013e610a08565b606091505b5050905080610a2a5760405163ce43c9c560e01b815260040160405180910390fd5b6040518281527f5b6b431d4476a211bb7d41c20d1aab9ae2321deee0d20be3d9fc9b1093fa6e3d9060200160405180910390a150506001600955565b61096883838360405180602001604052806000815250610dec565b600a546001600160a01b0316610aaa57604051632c73a0bf60e11b81526004016106af90611b49565b600a546001600160a01b03163314801590610ad057506008546001600160a01b03163314155b15610aee576040516305a0a2dd60e41b81526004016106af90611b12565b8051610b0190600d9060208401906115e7565b507f6741b2fc379fad678116fe3d4d4b9a1a184ab53ba36b86ad0fa66340b1ab41ad81604051610b319190611aff565b60405180910390a150565b600061068682611090565b600d8054610b5490611c2d565b80601f0160208091040260200160405190810160405280929190818152602001828054610b8090611c2d565b8015610bcd5780601f10610ba257610100808354040283529160200191610bcd565b820191906000526020600020905b815481529060010190602001808311610bb057829003601f168201915b505050505081565b6008546001600160a01b03163314610bff5760405162461bcd60e51b81526004016106af90611b76565b600a80546001600160a01b0319166001600160a01b0392909216919091179055565b60006001600160a01b038216610c4a576040516323d3ad8160e21b815260040160405180910390fd5b506001600160a01b031660009081526005602052604090205467ffffffffffffffff1690565b6060610c7a61129b565b905090565b6008546001600160a01b03163314610ca95760405162461bcd60e51b81526004016106af90611b76565b610cb360006112aa565b565b60606003805461072590611c2d565b60026009541415610ce75760405162461bcd60e51b81526004016106af90611bab565b6002600955600b54600090610cfd908390611be2565b9050348114610d1f5760405163bfa3573760e01b815260040160405180910390fd5b600c54821115610d4257604051633435702960e01b815260040160405180910390fd5b610d4c33836112fc565b5050600160095550565b6001600160a01b038216331415610d805760405163b06307db60e01b815260040160405180910390fd5b3360008181526007602090815260408083206001600160a01b03871680855290835292819020805460ff191686151590811790915590519081529192917f17307eab39ab6107e8899845ad3d59bd9653f200f220920489ca2b5937696c31910160405180910390a35050565b610df78484846110f8565b6001600160a01b0383163b15610e3057610e1384848484611311565b610e30576040516368d2bf6b60e11b815260040160405180910390fd5b50505050565b600a546001600160a01b0316610e5f57604051632c73a0bf60e11b81526004016106af90611b49565b600a546001600160a01b03163314801590610e8557506008546001600160a01b03163314155b15610ea3576040516305a0a2dd60e41b81526004016106af90611b12565b60026009541415610ec65760405162461bcd60e51b81526004016106af90611bab565b6002600955600c54811115610eee57604051633435702960e01b815260040160405180910390fd5b610ef833826112fc565b50506001600955565b600f5460609060ff16610f4057600e610f1983611409565b604051602001610f2a929190611a49565b6040516020818303038152906040529050919050565b600d610f4b83611409565b604051602001610f2a929190611a7e565b919050565b6008546001600160a01b03163314610f8b5760405162461bcd60e51b81526004016106af90611b76565b8051610f9e90600e9060208401906115e7565b507fd2bc967bbe8415901898897289f2a34de3bde16de1ab5fc5a57a682844bf565381604051610b319190611aff565b6008546001600160a01b03163314610ff85760405162461bcd60e51b81526004016106af90611b76565b6001600160a01b03811661105d5760405162461bcd60e51b815260206004820152602660248201527f4f776e61626c653a206e6577206f776e657220697320746865207a65726f206160448201526564647265737360d01b60648201526084016106af565b611066816112aa565b50565b6000805482108015610686575050600090815260046020526040902054600160e01b161590565b6000816000548110156110df57600081815260046020526040902054600160e01b81166110dd575b806110d65750600019016000818152600460205260409020546110b8565b9392505050565b505b604051636f96cda160e11b815260040160405180910390fd5b600061110382611090565b9050836001600160a01b0316816001600160a01b0316146111365760405162a1148160e81b815260040160405180910390fd5b6000336001600160a01b0386161480611154575061115485336105cc565b8061116f575033611164846107a8565b6001600160a01b0316145b90508061118f57604051632ce44b5f60e11b815260040160405180910390fd5b6001600160a01b0384166111b657604051633a954ecd60e21b815260040160405180910390fd5b600083815260066020908152604080832080546001600160a01b03191690556001600160a01b038881168452600583528184208054600019019055871683528083208054600101905585835260049091529020600160e11b4260a01b86178117909155821661125357600183016000818152600460205260409020546112515760005481146112515760008181526004602052604090208390555b505b82846001600160a01b0316866001600160a01b03167fddf252ad1be2c89b69c2b068fc378daa952ba7f163c4a11628f55a4df523b3ef60405160405180910390a45050505050565b6060600d805461072590611c2d565b600880546001600160a01b038381166001600160a01b0319831681179093556040519116919082907f8be0079c531659141344cd1fd0a4f28419497f9722a3daafe3b4186f6b6457e090600090a35050565b60006113088383611458565b50600192915050565b604051630a85bd0160e11b81526000906001600160a01b0385169063150b7a0290611346903390899088908890600401611ac2565b602060405180830381600087803b15801561136057600080fd5b505af1925050508015611390575060408051601f3d908101601f1916820190925261138d9181019061190b565b60015b6113eb573d8080156113be576040519150601f19603f3d011682016040523d82523d6000602084013e6113c3565b606091505b5080516113e3576040516368d2bf6b60e11b815260040160405180910390fd5b805181602001fd5b6001600160e01b031916630a85bd0160e11b1490505b949350505050565b604080516080810191829052607f0190826030600a8206018353600a90045b801561144657600183039250600a81066030018353600a9004611428565b50819003601f19909101908152919050565b611472828260405180602001604052806000815250611476565b5050565b6000546001600160a01b03841661149f57604051622e076360e81b815260040160405180910390fd5b826114bd5760405163b562e8dd60e01b815260040160405180910390fd5b6001600160a01b03841660008181526005602090815260408083208054680100000000000000018902019055848352600490915290204260a01b86176001861460e11b1790558190818501903b15611592575b60405182906001600160a01b038816906000907fddf252ad1be2c89b69c2b068fc378daa952ba7f163c4a11628f55a4df523b3ef908290a461155b6000878480600101955087611311565b611578576040516368d2bf6b60e11b815260040160405180910390fd5b80821061151057826000541461158d57600080fd5b6115d7565b5b6040516001830192906001600160a01b038816906000907fddf252ad1be2c89b69c2b068fc378daa952ba7f163c4a11628f55a4df523b3ef908290a4808210611593575b506000908155610e309085838684565b8280546115f390611c2d565b90600052602060002090601f016020900481019282611615576000855561165b565b82601f1061162e57805160ff191683800117855561165b565b8280016001018555821561165b579182015b8281111561165b578251825591602001919060010190611640565b5061166792915061166b565b5090565b5b80821115611667576000815560010161166c565b600067ffffffffffffffff8084111561169b5761169b611c99565b604051601f8501601f19908116603f011681019082821181831017156116c3576116c3611c99565b816040528093508581528686860111156116dc57600080fd5b858560208301376000602087830101525050509392505050565b80356001600160a01b0381168114610f5c57600080fd5b60006020828403121561171e578081fd5b6110d6826116f6565b60008060408385031215611739578081fd5b611742836116f6565b9150611750602084016116f6565b90509250929050565b60008060006060848603121561176d578081fd5b611776846116f6565b9250611784602085016116f6565b9150604084013590509250925092565b600080600080608085870312156117a9578081fd5b6117b2856116f6565b93506117c0602086016116f6565b925060408501359150606085013567ffffffffffffffff8111156117e2578182fd5b8501601f810187136117f2578182fd5b61180187823560208401611680565b91505092959194509250565b6000806040838503121561181f578182fd5b611828836116f6565b91506020830135801515811461183c578182fd5b809150509250929050565b60008060408385031215611859578182fd5b611862836116f6565b946020939093013593505050565b600080600060408486031215611884578283fd5b833567ffffffffffffffff8082111561189b578485fd5b818601915086601f8301126118ae578485fd5b8135818111156118bc578586fd5b8760208260051b85010111156118d0578586fd5b6020928301955093506118e691860190506116f6565b90509250925092565b600060208284031215611900578081fd5b81356110d681611caf565b60006020828403121561191c578081fd5b81516110d681611caf565b600060208284031215611938578081fd5b813567ffffffffffffffff81111561194e578182fd5b8201601f8101841361195e578182fd5b61140184823560208401611680565b60006020828403121561197e578081fd5b5035919050565b6000815180845261199d816020860160208601611c01565b601f01601f19169290920160200192915050565b8054600090600181811c90808316806119cb57607f831692505b60208084108214156119eb57634e487b7160e01b86526022600452602486fd5b8180156119ff5760018114611a1057611a3d565b60ff19861689528489019650611a3d565b60008881526020902060005b86811015611a355781548b820152908501908301611a1c565b505084890196505b50505050505092915050565b6000611a5582856119b1565b8351611a65818360208801611c01565b64173539b7b760d91b9101908152600501949350505050565b6000611a8a82856119b1565b602f60f81b81528351611aa4816001840160208801611c01565b64173539b7b760d91b60019290910191820152600601949350505050565b6001600160a01b0385811682528416602082015260408101839052608060608201819052600090611af590830184611985565b9695505050505050565b6020815260006110d66020830184611985565b60208082526017908201527f63616c6c6572206973206e6f74207468652041646d696e000000000000000000604082015260600190565b6020808252601390820152724e6f7420616c6c6f776564206164647265737360681b604082015260600190565b6020808252818101527f4f776e61626c653a2063616c6c6572206973206e6f7420746865206f776e6572604082015260600190565b6020808252601f908201527f5265656e7472616e637947756172643a207265656e7472616e742063616c6c00604082015260600190565b6000816000190483118215151615611bfc57611bfc611c83565b500290565b60005b83811015611c1c578181015183820152602001611c04565b83811115610e305750506000910152565b600181811c90821680611c4157607f821691505b60208210811415611c6257634e487b7160e01b600052602260045260246000fd5b50919050565b6000600019821415611c7c57611c7c611c83565b5060010190565b634e487b7160e01b600052601160045260246000fd5b634e487b7160e01b600052604160045260246000fd5b6001600160e01b03198116811461106657600080fdfea264697066735822122093f5710beb5dfd0c3ef53f9a329013aad82a12ea54b7aebefdbc7d94eb9ad66164736f6c63430008040033",
  "linkReferences": {},
  "deployedLinkReferences": {}
}