{
  "_format": "hh-sol-artifact-1",
  "contractName": "JuniorNFT",
  "sourceName": "contracts/JuniorNFT.sol",
  "abi": [
    {
      "inputs": [
        {
          "internalType": "string",
          "name": "_baseURI",
          "type": "string"
        },
        {
          "internalType": "string",
          "name": "_defaultURI",
          "type": "string"
        }
      ],
      "stateMutability": "nonpayable",
      "type": "constructor"
    },
    {
      "inputs": [],
      "name": "AlreadyRevealed",
      "type": "error"
    },
    {
      "inputs": [],
      "name": "ApprovalCallerNotOwnerNorApproved",
      "type": "error"
    },
    {
      "inputs": [],
      "name": "ApprovalQueryForNonexistentToken",
      "type": "error"
    },
    {
      "inputs": [],
      "name": "ApprovalToCurrentOwner",
      "type": "error"
    },
    {
      "inputs": [],
      "name": "ApproveToCaller",
      "type": "error"
    },
    {
      "inputs": [
        {
          "internalType": "string",
          "name": "message",
          "type": "string"
        }
      ],
      "name": "BadRequest",
      "type": "error"
    },
    {
      "inputs": [],
      "name": "BalanceQueryForZeroAddress",
      "type": "error"
    },
    {
      "inputs": [],
      "name": "ExceedMaxQuantity",
      "type": "error"
    },
    {
      "inputs": [],
      "name": "FailedToSendBalance",
      "type": "error"
    },
    {
      "inputs": [],
      "name": "ImmutableState",
      "type": "error"
    },
    {
      "inputs": [],
      "name": "MintToZeroAddress",
      "type": "error"
    },
    {
      "inputs": [],
      "name": "MintZeroQuantity",
      "type": "error"
    },
    {
      "inputs": [],
      "name": "NoMatchingFee",
      "type": "error"
    },
    {
      "inputs": [
        {
          "internalType": "string",
          "name": "message",
          "type": "string"
        }
      ],
      "name": "NotOwnerNorAdmin",
      "type": "error"
    },
    {
      "inputs": [],
      "name": "OwnerQueryForNonexistentToken",
      "type": "error"
    },
    {
      "inputs": [],
      "name": "TransferCallerNotOwnerNorApproved",
      "type": "error"
    },
    {
      "inputs": [],
      "name": "TransferFromIncorrectOwner",
      "type": "error"
    },
    {
      "inputs": [],
      "name": "TransferToNonERC721ReceiverImplementer",
      "type": "error"
    },
    {
      "inputs": [],
      "name": "TransferToZeroAddress",
      "type": "error"
    },
    {
      "inputs": [],
      "name": "URIQueryForNonexistentToken",
      "type": "error"
    },
    {
      "anonymous": false,
      "inputs": [
        {
          "indexed": true,
          "internalType": "address",
          "name": "owner",
          "type": "address"
        },
        {
          "indexed": true,
          "internalType": "address",
          "name": "approved",
          "type": "address"
        },
        {
          "indexed": true,
          "internalType": "uint256",
          "name": "tokenId",
          "type": "uint256"
        }
      ],
      "name": "Approval",
      "type": "event"
    },
    {
      "anonymous": false,
      "inputs": [
        {
          "indexed": true,
          "internalType": "address",
          "name": "owner",
          "type": "address"
        },
        {
          "indexed": true,
          "internalType": "address",
          "name": "operator",
          "type": "address"
        },
        {
          "indexed": false,
          "internalType": "bool",
          "name": "approved",
          "type": "bool"
        }
      ],
      "name": "ApprovalForAll",
      "type": "event"
    },
    {
      "anonymous": false,
      "inputs": [
        {
          "indexed": false,
          "internalType": "string",
          "name": "baseURI",
          "type": "string"
        }
      ],
      "name": "BaseURIUpdated",
      "type": "event"
    },
    {
      "anonymous": false,
      "inputs": [
        {
          "indexed": false,
          "internalType": "string",
          "name": "defaultURI",
          "type": "string"
        }
      ],
      "name": "DefaultURIUpdated",
      "type": "event"
    },
    {
      "anonymous": false,
      "inputs": [],
      "name": "MintingFeeUpdated",
      "type": "event"
    },
    {
      "anonymous": false,
      "inputs": [
        {
          "indexed": true,
          "internalType": "address",
          "name": "previousOwner",
          "type": "address"
        },
        {
          "indexed": true,
          "internalType": "address",
          "name": "newOwner",
          "type": "address"
        }
      ],
      "name": "OwnershipTransferred",
      "type": "event"
    },
    {
      "anonymous": false,
      "inputs": [
        {
          "indexed": false,
          "internalType": "address",
          "name": "sender",
          "type": "address"
        },
        {
          "indexed": false,
          "internalType": "uint256",
          "name": "amount",
          "type": "uint256"
        }
      ],
      "name": "Received",
      "type": "event"
    },
    {
      "anonymous": false,
      "inputs": [],
      "name": "Revealed",
      "type": "event"
    },
    {
      "anonymous": false,
      "inputs": [
        {
          "indexed": true,
          "internalType": "address",
          "name": "from",
          "type": "address"
        },
        {
          "indexed": true,
          "internalType": "address",
          "name": "to",
          "type": "address"
        },
        {
          "indexed": true,
          "internalType": "uint256",
          "name": "tokenId",
          "type": "uint256"
        }
      ],
      "name": "Transfer",
      "type": "event"
    },
    {
      "anonymous": false,
      "inputs": [
        {
          "indexed": false,
          "internalType": "uint256",
          "name": "amount",
          "type": "uint256"
        }
      ],
      "name": "Withdraw",
      "type": "event"
    },
    {
      "stateMutability": "payable",
      "type": "fallback"
    },
    {
      "inputs": [],
      "name": "Admin",
      "outputs": [
        {
          "internalType": "address",
          "name": "",
          "type": "address"
        }
      ],
      "stateMutability": "view",
      "type": "function"
    },
    {
      "inputs": [
        {
          "internalType": "address",
          "name": "newAdmin",
          "type": "address"
        }
      ],
      "name": "addAdmin",
      "outputs": [],
      "stateMutability": "nonpayable",
      "type": "function"
    },
    {
      "inputs": [
        {
          "internalType": "uint256",
          "name": "quantity",
          "type": "uint256"
        }
      ],
      "name": "adminMint",
      "outputs": [],
      "stateMutability": "nonpayable",
      "type": "function"
    },
    {
      "inputs": [
        {
          "internalType": "address",
          "name": "to",
          "type": "address"
        },
        {
          "internalType": "uint256",
          "name": "tokenId",
          "type": "uint256"
        }
      ],
      "name": "approve",
      "outputs": [],
      "stateMutability": "nonpayable",
      "type": "function"
    },
    {
      "inputs": [
        {
          "internalType": "address",
          "name": "owner",
          "type": "address"
        }
      ],
      "name": "balanceOf",
      "outputs": [
        {
          "internalType": "uint256",
          "name": "",
          "type": "uint256"
        }
      ],
      "stateMutability": "view",
      "type": "function"
    },
    {
      "inputs": [],
      "name": "baseURI",
      "outputs": [
        {
          "internalType": "string",
          "name": "",
          "type": "string"
        }
      ],
      "stateMutability": "view",
      "type": "function"
    },
    {
      "inputs": [
        {
          "internalType": "uint256",
          "name": "tokenId",
          "type": "uint256"
        }
      ],
      "name": "getApproved",
      "outputs": [
        {
          "internalType": "address",
          "name": "",
          "type": "address"
        }
      ],
      "stateMutability": "view",
      "type": "function"
    },
    {
      "inputs": [],
      "name": "getBalance",
      "outputs": [
        {
          "internalType": "uint256",
          "name": "",
          "type": "uint256"
        }
      ],
      "stateMutability": "view",
      "type": "function"
    },
    {
      "inputs": [],
      "name": "getBaseURI",
      "outputs": [
        {
          "internalType": "string",
          "name": "",
          "type": "string"
        }
      ],
      "stateMutability": "view",
      "type": "function"
    },
    {
      "inputs": [
        {
          "internalType": "address",
          "name": "owner",
          "type": "address"
        },
        {
          "internalType": "address",
          "name": "operator",
          "type": "address"
        }
      ],
      "name": "isApprovedForAll",
      "outputs": [
        {
          "internalType": "bool",
          "name": "",
          "type": "bool"
        }
      ],
      "stateMutability": "view",
      "type": "function"
    },
    {
      "inputs": [],
      "name": "isPermanent",
      "outputs": [
        {
          "internalType": "bool",
          "name": "",
          "type": "bool"
        }
      ],
      "stateMutability": "view",
      "type": "function"
    },
    {
      "inputs": [],
      "name": "maxQuantity",
      "outputs": [
        {
          "internalType": "uint256",
          "name": "",
          "type": "uint256"
        }
      ],
      "stateMutability": "view",
      "type": "function"
    },
    {
      "inputs": [
        {
          "internalType": "uint256",
          "name": "quantity",
          "type": "uint256"
        }
      ],
      "name": "mint",
      "outputs": [],
      "stateMutability": "payable",
      "type": "function"
    },
    {
      "inputs": [],
      "name": "name",
      "outputs": [
        {
          "internalType": "string",
          "name": "",
          "type": "string"
        }
      ],
      "stateMutability": "view",
      "type": "function"
    },
    {
      "inputs": [],
      "name": "owner",
      "outputs": [
        {
          "internalType": "address",
          "name": "",
          "type": "address"
        }
      ],
      "stateMutability": "view",
      "type": "function"
    },
    {
      "inputs": [
        {
          "internalType": "uint256",
          "name": "tokenId",
          "type": "uint256"
        }
      ],
      "name": "ownerOf",
      "outputs": [
        {
          "internalType": "address",
          "name": "",
          "type": "address"
        }
      ],
      "stateMutability": "view",
      "type": "function"
    },
    {
      "inputs": [],
      "name": "renounceOwnership",
      "outputs": [],
      "stateMutability": "nonpayable",
      "type": "function"
    },
    {
      "inputs": [
        {
          "internalType": "address",
          "name": "from",
          "type": "address"
        },
        {
          "internalType": "address",
          "name": "to",
          "type": "address"
        },
        {
          "internalType": "uint256",
          "name": "tokenId",
          "type": "uint256"
        }
      ],
      "name": "safeTransferFrom",
      "outputs": [],
      "stateMutability": "nonpayable",
      "type": "function"
    },
    {
      "inputs": [
        {
          "internalType": "address",
          "name": "from",
          "type": "address"
        },
        {
          "internalType": "address",
          "name": "to",
          "type": "address"
        },
        {
          "internalType": "uint256",
          "name": "tokenId",
          "type": "uint256"
        },
        {
          "internalType": "bytes",
          "name": "_data",
          "type": "bytes"
        }
      ],
      "name": "safeTransferFrom",
      "outputs": [],
      "stateMutability": "nonpayable",
      "type": "function"
    },
    {
      "inputs": [
        {
          "internalType": "address",
          "name": "operator",
          "type": "address"
        },
        {
          "internalType": "bool",
          "name": "approved",
          "type": "bool"
        }
      ],
      "name": "setApprovalForAll",
      "outputs": [],
      "stateMutability": "nonpayable",
      "type": "function"
    },
    {
      "inputs": [
        {
          "internalType": "string",
          "name": "_newBaseURI",
          "type": "string"
        }
      ],
      "name": "setBaseURI",
      "outputs": [],
      "stateMutability": "nonpayable",
      "type": "function"
    },
    {
      "inputs": [
        {
          "internalType": "string",
          "name": "_defaultURI",
          "type": "string"
        }
      ],
      "name": "setDefaultURI",
      "outputs": [],
      "stateMutability": "nonpayable",
      "type": "function"
    },
    {
      "inputs": [
        {
          "internalType": "uint256",
          "name": "fee",
          "type": "uint256"
        }
      ],
      "name": "setMintingFee",
      "outputs": [],
      "stateMutability": "nonpayable",
      "type": "function"
    },
    {
      "inputs": [],
      "name": "setPermanent",
      "outputs": [],
      "stateMutability": "nonpayable",
      "type": "function"
    },
    {
      "inputs": [],
      "name": "setRevealed",
      "outputs": [],
      "stateMutability": "nonpayable",
      "type": "function"
    },
    {
      "inputs": [
        {
          "internalType": "bytes4",
          "name": "interfaceId",
          "type": "bytes4"
        }
      ],
      "name": "supportsInterface",
      "outputs": [
        {
          "internalType": "bool",
          "name": "",
          "type": "bool"
        }
      ],
      "stateMutability": "view",
      "type": "function"
    },
    {
      "inputs": [],
      "name": "symbol",
      "outputs": [
        {
          "internalType": "string",
          "name": "",
          "type": "string"
        }
      ],
      "stateMutability": "view",
      "type": "function"
    },
    {
      "inputs": [
        {
          "internalType": "uint256",
          "name": "tokenId",
          "type": "uint256"
        }
      ],
      "name": "tokenURI",
      "outputs": [
        {
          "internalType": "string",
          "name": "",
          "type": "string"
        }
      ],
      "stateMutability": "view",
      "type": "function"
    },
    {
      "inputs": [],
      "name": "tokenURIfix",
      "outputs": [
        {
          "internalType": "string",
          "name": "",
          "type": "string"
        }
      ],
      "stateMutability": "view",
      "type": "function"
    },
    {
      "inputs": [],
      "name": "totalSupply",
      "outputs": [
        {
          "internalType": "uint256",
          "name": "",
          "type": "uint256"
        }
      ],
      "stateMutability": "view",
      "type": "function"
    },
    {
      "inputs": [
        {
          "internalType": "uint256[]",
          "name": "tokenIds",
          "type": "uint256[]"
        },
        {
          "internalType": "address",
          "name": "to",
          "type": "address"
        }
      ],
      "name": "transferBatch",
      "outputs": [],
      "stateMutability": "nonpayable",
      "type": "function"
    },
    {
      "inputs": [
        {
          "internalType": "address",
          "name": "from",
          "type": "address"
        },
        {
          "internalType": "address",
          "name": "to",
          "type": "address"
        },
        {
          "internalType": "uint256",
          "name": "tokenId",
          "type": "uint256"
        }
      ],
      "name": "transferFrom",
      "outputs": [],
      "stateMutability": "nonpayable",
      "type": "function"
    },
    {
      "inputs": [
        {
          "internalType": "address",
          "name": "newOwner",
          "type": "address"
        }
      ],
      "name": "transferOwnership",
      "outputs": [],
      "stateMutability": "nonpayable",
      "type": "function"
    },
    {
      "inputs": [],
      "name": "withdraw",
      "outputs": [],
      "stateMutability": "payable",
      "type": "function"
    },
    {
      "stateMutability": "payable",
      "type": "receive"
    }
  ],
  "bytecode": "0x6005600c5560a06040819052600060808190526200002091600f916200016d565b503480156200002e57600080fd5b5060405162002231380380620022318339810160408190526200005191620002ca565b604080518082018252601581527f41746f6d72696773204a756e696f722773204e4654000000000000000000000060208083019182528351808501909452600c84526b129d5b9a5bdc89dcc813919560a21b908401528151919291620000ba916002916200016d565b508051620000d09060039060208401906200016d565b50506000805550620000e2336200011b565b60016009558151620000fc90600d9060208501906200016d565b5080516200011290600e9060208401906200016d565b50505062000387565b600880546001600160a01b038381166001600160a01b0319831681179093556040519116919082907f8be0079c531659141344cd1fd0a4f28419497f9722a3daafe3b4186f6b6457e090600090a35050565b8280546200017b9062000334565b90600052602060002090601f0160209004810192826200019f5760008555620001ea565b82601f10620001ba57805160ff1916838001178555620001ea565b82800160010185558215620001ea579182015b82811115620001ea578251825591602001919060010190620001cd565b50620001f8929150620001fc565b5090565b5b80821115620001f85760008155600101620001fd565b600082601f8301126200022557600080fd5b81516001600160401b038082111562000242576200024262000371565b604051601f8301601f19908116603f011681019082821181831017156200026d576200026d62000371565b816040528381526020925086838588010111156200028a57600080fd5b600091505b83821015620002ae57858201830151818301840152908201906200028f565b83821115620002c05760008385830101525b9695505050505050565b60008060408385031215620002de57600080fd5b82516001600160401b0380821115620002f657600080fd5b620003048683870162000213565b935060208501519150808211156200031b57600080fd5b506200032a8582860162000213565b9150509250929050565b600181811c908216806200034957607f821691505b602082108114156200036b57634e487b7160e01b600052602260045260246000fd5b50919050565b634e487b7160e01b600052604160045260246000fd5b611e9a80620003976000396000f3fe6080604052600436106101fd5760003560e01c806370a082311161010d578063a22cb465116100a0578063da1b9e081161006f578063da1b9e08146105c0578063e640cf7d146105e0578063e985e9c5146105f6578063f2fde38b1461063f578063ff1b636d1461065f57610247565b8063a22cb46514610540578063b88d4fde14610560578063c1f2612314610580578063c87b56dd146105a057610247565b806378bff498116100dc57806378bff498146104db5780638da5cb5b146104fa57806395d89b4114610518578063a0712d681461052d57610247565b806370a082311461047c578063714c53981461049c578063715018a6146104b157806375909379146104c657610247565b806323b872dd1161019057806342842e0e1161015f57806342842e0e146103e757806355f804b3146104075780636352211e146104275780636c0360eb14610447578063704802751461045c57610247565b806323b872dd146103955780633bd64968146103b55780633ccfd60b146103ca57806340d34285146103d257610247565b8063095ea7b3116101cc578063095ea7b31461031f57806312065fe01461033f57806318160ddd1461035c578063238a47091461037557610247565b806301ffc9a71461026e5780630202def1146102a357806306fdde03146102c5578063081812fc146102e757610247565b36610247577f88a5966d370b9919b20f3e2c13ff65706f196a4e32cc2c12bf57088f88525874335b604080516001600160a01b0390921682523460208301520160405180910390a1005b7f88a5966d370b9919b20f3e2c13ff65706f196a4e32cc2c12bf57088f8852587433610225565b34801561027a57600080fd5b5061028e610289366004611a5a565b610685565b60405190151581526020015b60405180910390f35b3480156102af57600080fd5b506102c36102be3660046119d6565b6106d7565b005b3480156102d157600080fd5b506102da610753565b60405161029a9190611c88565b3480156102f357600080fd5b50610307610302366004611add565b6107e5565b6040516001600160a01b03909116815260200161029a565b34801561032b57600080fd5b506102c361033a3660046119ac565b610829565b34801561034b57600080fd5b50475b60405190815260200161029a565b34801561036857600080fd5b506001546000540361034e565b34801561038157600080fd5b506102c3610390366004611add565b6108fc565b3480156103a157600080fd5b506102c36103b03660046118b8565b6109ae565b3480156103c157600080fd5b506102c36109be565b6102c3610a77565b3480156103de57600080fd5b506102c3610b43565b3480156103f357600080fd5b506102c36104023660046118b8565b610b7e565b34801561041357600080fd5b506102c3610422366004611a94565b610b99565b34801561043357600080fd5b50610307610442366004611add565b610c3a565b34801561045357600080fd5b506102da610c45565b34801561046857600080fd5b506102c361047736600461186a565b610cd3565b34801561048857600080fd5b5061034e61049736600461186a565b610d27565b3480156104a857600080fd5b506102da610d76565b3480156104bd57600080fd5b506102c3610d85565b3480156104d257600080fd5b506102da610dbb565b3480156104e757600080fd5b50600a5461028e90610100900460ff1681565b34801561050657600080fd5b506008546001600160a01b0316610307565b34801561052457600080fd5b506102da610dc8565b6102c361053b366004611add565b610dd7565b34801561054c57600080fd5b506102c361055b366004611970565b610e69565b34801561056c57600080fd5b506102c361057b3660046118f4565b610eff565b34801561058c57600080fd5b506102c361059b366004611add565b610f49565b3480156105ac57600080fd5b506102da6105bb366004611add565b611028565b3480156105cc57600080fd5b506102c36105db366004611a94565b6110be565b3480156105ec57600080fd5b5061034e600c5481565b34801561060257600080fd5b5061028e610611366004611885565b6001600160a01b03918216600090815260076020908152604080832093909416825291909152205460ff1690565b34801561064b57600080fd5b506102c361065a36600461186a565b61112b565b34801561066b57600080fd5b50600a54610307906201000090046001600160a01b031681565b60006301ffc9a760e01b6001600160e01b0319831614806106b657506380ac58cd60e01b6001600160e01b03198316145b806106d15750635b5e139f60e01b6001600160e01b03198316145b92915050565b600260095414156107035760405162461bcd60e51b81526004016106fa90611d34565b60405180910390fd5b600260095560005b8281101561074857610736338386868581811061072a5761072a611e22565b90506020020135610b7e565b8061074081611df1565b91505061070b565b505060016009555050565b60606002805461076290611db6565b80601f016020809104026020016040519081016040528092919081815260200182805461078e90611db6565b80156107db5780601f106107b0576101008083540402835291602001916107db565b820191906000526020600020905b8154815290600101906020018083116107be57829003601f168201915b5050505050905090565b60006107f0826111c6565b61080d576040516333d1c03960e21b815260040160405180910390fd5b506000908152600660205260409020546001600160a01b031690565b6000610834826111ed565b9050806001600160a01b0316836001600160a01b031614156108695760405163250fdee360e21b815260040160405180910390fd5b336001600160a01b038216146108a0576108838133610611565b6108a0576040516367d9dca160e11b815260040160405180910390fd5b60008281526006602052604080822080546001600160a01b0319166001600160a01b0387811691821790925591518593918516917f8c5be1e5ebec7d5bd14f71427d1e84f3dd0314c0f7b2291e5b200ac8c7c3b92591a4505050565b600a546201000090046001600160a01b031661092b57604051632c73a0bf60e11b81526004016106fa90611cd2565b600a546201000090046001600160a01b0316336001600160a01b031614158061095f57506008546001600160a01b03163314155b1561097d576040516305a0a2dd60e41b81526004016106fa90611c9b565b600b8190556040517ff2f0645894735cd6354bac6c5fe8a404442eb2a6aefa35b709af910949cfd31390600090a150565b6109b9838383611255565b505050565b600a546201000090046001600160a01b03166109ed57604051632c73a0bf60e11b81526004016106fa90611cd2565b600a546201000090046001600160a01b0316336001600160a01b0316141580610a2157506008546001600160a01b03163314155b15610a3f576040516305a0a2dd60e41b81526004016106fa90611c9b565b600a805460ff191660011790556040517fe2a7169cedebe39671840370ae19ca4fc41be6191d4c77f174f189a4d8cd08c890600090a1565b6008546001600160a01b03163314610aa15760405162461bcd60e51b81526004016106fa90611cff565b6040514790600090339083908381818185875af1925050503d8060008114610ae5576040519150601f19603f3d011682016040523d82523d6000602084013e610aea565b606091505b5050905080610b0c5760405163ce43c9c560e01b815260040160405180910390fd5b6040518281527f5b6b431d4476a211bb7d41c20d1aab9ae2321deee0d20be3d9fc9b1093fa6e3d9060200160405180910390a15050565b6008546001600160a01b03163314610b6d5760405162461bcd60e51b81526004016106fa90611cff565b600a805461ff001916610100179055565b6109b983838360405180602001604052806000815250610eff565b6008546001600160a01b03163314610bc35760405162461bcd60e51b81526004016106fa90611cff565b600a54610100900460ff1615610bec57604051636bf43ac160e11b815260040160405180910390fd5b8051610bff90600d906020840190611744565b507f6741b2fc379fad678116fe3d4d4b9a1a184ab53ba36b86ad0fa66340b1ab41ad81604051610c2f9190611c88565b60405180910390a150565b60006106d1826111ed565b600d8054610c5290611db6565b80601f0160208091040260200160405190810160405280929190818152602001828054610c7e90611db6565b8015610ccb5780601f10610ca057610100808354040283529160200191610ccb565b820191906000526020600020905b815481529060010190602001808311610cae57829003601f168201915b505050505081565b6008546001600160a01b03163314610cfd5760405162461bcd60e51b81526004016106fa90611cff565b600a80546001600160a01b03909216620100000262010000600160b01b0319909216919091179055565b60006001600160a01b038216610d50576040516323d3ad8160e21b815260040160405180910390fd5b506001600160a01b031660009081526005602052604090205467ffffffffffffffff1690565b6060610d806113f8565b905090565b6008546001600160a01b03163314610daf5760405162461bcd60e51b81526004016106fa90611cff565b610db96000611407565b565b600f8054610c5290611db6565b60606003805461076290611db6565b60026009541415610dfa5760405162461bcd60e51b81526004016106fa90611d34565b6002600955600b54600090610e10908390611d6b565b9050348114610e325760405163bfa3573760e01b815260040160405180910390fd5b600c54821115610e5557604051633435702960e01b815260040160405180910390fd5b610e5f3383611459565b5050600160095550565b6001600160a01b038216331415610e935760405163b06307db60e01b815260040160405180910390fd5b3360008181526007602090815260408083206001600160a01b03871680855290835292819020805460ff191686151590811790915590519081529192917f17307eab39ab6107e8899845ad3d59bd9653f200f220920489ca2b5937696c31910160405180910390a35050565b610f0a848484611255565b6001600160a01b0383163b15610f4357610f268484848461146e565b610f43576040516368d2bf6b60e11b815260040160405180910390fd5b50505050565b600a546201000090046001600160a01b0316610f7857604051632c73a0bf60e11b81526004016106fa90611cd2565b600a546201000090046001600160a01b0316336001600160a01b0316141580610fac57506008546001600160a01b03163314155b15610fca576040516305a0a2dd60e41b81526004016106fa90611c9b565b60026009541415610fed5760405162461bcd60e51b81526004016106fa90611d34565b6002600955600c5481111561101557604051633435702960e01b815260040160405180910390fd5b61101f3382611459565b50506001600955565b60408051600081526020810180835281519020606092909161104d91600f9101611bbc565b604051602081830303815290604052805190602001201461109d57600d600f61107584611566565b60405160200161108793929190611bfd565b6040516020818303038152906040529050919050565b600e6110a883611566565b604051602001611087929190611bc8565b919050565b6008546001600160a01b031633146110e85760405162461bcd60e51b81526004016106fa90611cff565b80516110fb90600e906020840190611744565b507fd2bc967bbe8415901898897289f2a34de3bde16de1ab5fc5a57a682844bf565381604051610c2f9190611c88565b6008546001600160a01b031633146111555760405162461bcd60e51b81526004016106fa90611cff565b6001600160a01b0381166111ba5760405162461bcd60e51b815260206004820152602660248201527f4f776e61626c653a206e6577206f776e657220697320746865207a65726f206160448201526564647265737360d01b60648201526084016106fa565b6111c381611407565b50565b60008054821080156106d1575050600090815260046020526040902054600160e01b161590565b60008160005481101561123c57600081815260046020526040902054600160e01b811661123a575b80611233575060001901600081815260046020526040902054611215565b9392505050565b505b604051636f96cda160e11b815260040160405180910390fd5b6000611260826111ed565b9050836001600160a01b0316816001600160a01b0316146112935760405162a1148160e81b815260040160405180910390fd5b6000336001600160a01b03861614806112b157506112b18533610611565b806112cc5750336112c1846107e5565b6001600160a01b0316145b9050806112ec57604051632ce44b5f60e11b815260040160405180910390fd5b6001600160a01b03841661131357604051633a954ecd60e21b815260040160405180910390fd5b600083815260066020908152604080832080546001600160a01b03191690556001600160a01b038881168452600583528184208054600019019055871683528083208054600101905585835260049091529020600160e11b4260a01b8617811790915582166113b057600183016000818152600460205260409020546113ae5760005481146113ae5760008181526004602052604090208390555b505b82846001600160a01b0316866001600160a01b03167fddf252ad1be2c89b69c2b068fc378daa952ba7f163c4a11628f55a4df523b3ef60405160405180910390a45050505050565b6060600d805461076290611db6565b600880546001600160a01b038381166001600160a01b0319831681179093556040519116919082907f8be0079c531659141344cd1fd0a4f28419497f9722a3daafe3b4186f6b6457e090600090a35050565b600061146583836115b5565b50600192915050565b604051630a85bd0160e11b81526000906001600160a01b0385169063150b7a02906114a3903390899088908890600401611c4b565b602060405180830381600087803b1580156114bd57600080fd5b505af19250505080156114ed575060408051601f3d908101601f191682019092526114ea91810190611a77565b60015b611548573d80801561151b576040519150601f19603f3d011682016040523d82523d6000602084013e611520565b606091505b508051611540576040516368d2bf6b60e11b815260040160405180910390fd5b805181602001fd5b6001600160e01b031916630a85bd0160e11b1490505b949350505050565b604080516080810191829052607f0190826030600a8206018353600a90045b80156115a357600183039250600a81066030018353600a9004611585565b50819003601f19909101908152919050565b6115cf8282604051806020016040528060008152506115d3565b5050565b6000546001600160a01b0384166115fc57604051622e076360e81b815260040160405180910390fd5b8261161a5760405163b562e8dd60e01b815260040160405180910390fd5b6001600160a01b03841660008181526005602090815260408083208054680100000000000000018902019055848352600490915290204260a01b86176001861460e11b1790558190818501903b156116ef575b60405182906001600160a01b038816906000907fddf252ad1be2c89b69c2b068fc378daa952ba7f163c4a11628f55a4df523b3ef908290a46116b8600087848060010195508761146e565b6116d5576040516368d2bf6b60e11b815260040160405180910390fd5b80821061166d5782600054146116ea57600080fd5b611734565b5b6040516001830192906001600160a01b038816906000907fddf252ad1be2c89b69c2b068fc378daa952ba7f163c4a11628f55a4df523b3ef908290a48082106116f0575b506000908155610f439085838684565b82805461175090611db6565b90600052602060002090601f01602090048101928261177257600085556117b8565b82601f1061178b57805160ff19168380011785556117b8565b828001600101855582156117b8579182015b828111156117b857825182559160200191906001019061179d565b506117c49291506117c8565b5090565b5b808211156117c457600081556001016117c9565b600067ffffffffffffffff808411156117f8576117f8611e38565b604051601f8501601f19908116603f0116810190828211818310171561182057611820611e38565b8160405280935085815286868601111561183957600080fd5b858560208301376000602087830101525050509392505050565b80356001600160a01b03811681146110b957600080fd5b60006020828403121561187c57600080fd5b61123382611853565b6000806040838503121561189857600080fd5b6118a183611853565b91506118af60208401611853565b90509250929050565b6000806000606084860312156118cd57600080fd5b6118d684611853565b92506118e460208501611853565b9150604084013590509250925092565b6000806000806080858703121561190a57600080fd5b61191385611853565b935061192160208601611853565b925060408501359150606085013567ffffffffffffffff81111561194457600080fd5b8501601f8101871361195557600080fd5b611964878235602084016117dd565b91505092959194509250565b6000806040838503121561198357600080fd5b61198c83611853565b9150602083013580151581146119a157600080fd5b809150509250929050565b600080604083850312156119bf57600080fd5b6119c883611853565b946020939093013593505050565b6000806000604084860312156119eb57600080fd5b833567ffffffffffffffff80821115611a0357600080fd5b818601915086601f830112611a1757600080fd5b813581811115611a2657600080fd5b8760208260051b8501011115611a3b57600080fd5b602092830195509350611a519186019050611853565b90509250925092565b600060208284031215611a6c57600080fd5b813561123381611e4e565b600060208284031215611a8957600080fd5b815161123381611e4e565b600060208284031215611aa657600080fd5b813567ffffffffffffffff811115611abd57600080fd5b8201601f81018413611ace57600080fd5b61155e848235602084016117dd565b600060208284031215611aef57600080fd5b5035919050565b60008151808452611b0e816020860160208601611d8a565b601f01601f19169290920160200192915050565b8054600090600181811c9080831680611b3c57607f831692505b6020808410821415611b5e57634e487b7160e01b600052602260045260246000fd5b818015611b725760018114611b8357611bb0565b60ff19861689528489019650611bb0565b60008881526020902060005b86811015611ba85781548b820152908501908301611b8f565b505084890196505b50505050505092915050565b60006112338284611b22565b6000611bd48285611b22565b8351611be4818360208801611d8a565b64173539b7b760d91b9101908152600501949350505050565b6000611c12611c0c8387611b22565b85611b22565b602f60f81b81528351611c2c816001840160208801611d8a565b64173539b7b760d91b6001929091019182015260060195945050505050565b6001600160a01b0385811682528416602082015260408101839052608060608201819052600090611c7e90830184611af6565b9695505050505050565b6020815260006112336020830184611af6565b60208082526017908201527f63616c6c6572206973206e6f74207468652041646d696e000000000000000000604082015260600190565b6020808252601390820152724e6f7420616c6c6f776564206164647265737360681b604082015260600190565b6020808252818101527f4f776e61626c653a2063616c6c6572206973206e6f7420746865206f776e6572604082015260600190565b6020808252601f908201527f5265656e7472616e637947756172643a207265656e7472616e742063616c6c00604082015260600190565b6000816000190483118215151615611d8557611d85611e0c565b500290565b60005b83811015611da5578181015183820152602001611d8d565b83811115610f435750506000910152565b600181811c90821680611dca57607f821691505b60208210811415611deb57634e487b7160e01b600052602260045260246000fd5b50919050565b6000600019821415611e0557611e05611e0c565b5060010190565b634e487b7160e01b600052601160045260246000fd5b634e487b7160e01b600052603260045260246000fd5b634e487b7160e01b600052604160045260246000fd5b6001600160e01b0319811681146111c357600080fdfea26469706673582212205eb197f02466e24f9458525f51c93ce167b8d993c9342bc31f0758f1d06f7fa364736f6c63430008070033",
  "linkReferences": {},
  "deployedLinkReferences": {}
}