{
  "_format": "hh-sol-artifact-1",
  "contractName": "JuniorNFT",
  "sourceName": "contracts/JuniorNFT.sol",
  "abi": [
    {
      "inputs": [
        {
          "internalType": "string",
          "name": "_baseURI",
          "type": "string"
        },
        {
          "internalType": "string",
          "name": "_defaultURI",
          "type": "string"
        }
      ],
      "stateMutability": "nonpayable",
      "type": "constructor"
    },
    {
      "inputs": [],
      "name": "AlreadyRevealed",
      "type": "error"
    },
    {
      "inputs": [],
      "name": "ApprovalCallerNotOwnerNorApproved",
      "type": "error"
    },
    {
      "inputs": [],
      "name": "ApprovalQueryForNonexistentToken",
      "type": "error"
    },
    {
      "inputs": [],
      "name": "ApprovalToCurrentOwner",
      "type": "error"
    },
    {
      "inputs": [],
      "name": "ApproveToCaller",
      "type": "error"
    },
    {
      "inputs": [
        {
          "internalType": "string",
          "name": "message",
          "type": "string"
        }
      ],
      "name": "BadRequest",
      "type": "error"
    },
    {
      "inputs": [],
      "name": "BalanceQueryForZeroAddress",
      "type": "error"
    },
    {
      "inputs": [],
      "name": "ExceedMaxQuantity",
      "type": "error"
    },
    {
      "inputs": [],
      "name": "FailedToSendBalance",
      "type": "error"
    },
    {
      "inputs": [],
      "name": "ImmutableState",
      "type": "error"
    },
    {
      "inputs": [],
      "name": "MintToZeroAddress",
      "type": "error"
    },
    {
      "inputs": [],
      "name": "MintZeroQuantity",
      "type": "error"
    },
    {
      "inputs": [],
      "name": "NoMatchingFee",
      "type": "error"
    },
    {
      "inputs": [
        {
          "internalType": "string",
          "name": "message",
          "type": "string"
        }
      ],
      "name": "NotOwnerNorAdmin",
      "type": "error"
    },
    {
      "inputs": [],
      "name": "OwnerQueryForNonexistentToken",
      "type": "error"
    },
    {
      "inputs": [],
      "name": "TransferCallerNotOwnerNorApproved",
      "type": "error"
    },
    {
      "inputs": [],
      "name": "TransferFromIncorrectOwner",
      "type": "error"
    },
    {
      "inputs": [],
      "name": "TransferToNonERC721ReceiverImplementer",
      "type": "error"
    },
    {
      "inputs": [],
      "name": "TransferToZeroAddress",
      "type": "error"
    },
    {
      "inputs": [],
      "name": "URIQueryForNonexistentToken",
      "type": "error"
    },
    {
      "anonymous": false,
      "inputs": [
        {
          "indexed": true,
          "internalType": "address",
          "name": "owner",
          "type": "address"
        },
        {
          "indexed": true,
          "internalType": "address",
          "name": "approved",
          "type": "address"
        },
        {
          "indexed": true,
          "internalType": "uint256",
          "name": "tokenId",
          "type": "uint256"
        }
      ],
      "name": "Approval",
      "type": "event"
    },
    {
      "anonymous": false,
      "inputs": [
        {
          "indexed": true,
          "internalType": "address",
          "name": "owner",
          "type": "address"
        },
        {
          "indexed": true,
          "internalType": "address",
          "name": "operator",
          "type": "address"
        },
        {
          "indexed": false,
          "internalType": "bool",
          "name": "approved",
          "type": "bool"
        }
      ],
      "name": "ApprovalForAll",
      "type": "event"
    },
    {
      "anonymous": false,
      "inputs": [
        {
          "indexed": false,
          "internalType": "string",
          "name": "baseURI",
          "type": "string"
        }
      ],
      "name": "BaseURIUpdated",
      "type": "event"
    },
    {
      "anonymous": false,
      "inputs": [
        {
          "indexed": false,
          "internalType": "string",
          "name": "defaultURI",
          "type": "string"
        }
      ],
      "name": "DefaultURIUpdated",
      "type": "event"
    },
    {
      "anonymous": false,
      "inputs": [],
      "name": "MintingFeeUpdated",
      "type": "event"
    },
    {
      "anonymous": false,
      "inputs": [
        {
          "indexed": true,
          "internalType": "address",
          "name": "previousOwner",
          "type": "address"
        },
        {
          "indexed": true,
          "internalType": "address",
          "name": "newOwner",
          "type": "address"
        }
      ],
      "name": "OwnershipTransferred",
      "type": "event"
    },
    {
      "anonymous": false,
      "inputs": [
        {
          "indexed": false,
          "internalType": "address",
          "name": "sender",
          "type": "address"
        },
        {
          "indexed": false,
          "internalType": "uint256",
          "name": "amount",
          "type": "uint256"
        }
      ],
      "name": "Received",
      "type": "event"
    },
    {
      "anonymous": false,
      "inputs": [],
      "name": "Revealed",
      "type": "event"
    },
    {
      "anonymous": false,
      "inputs": [
        {
          "indexed": true,
          "internalType": "address",
          "name": "from",
          "type": "address"
        },
        {
          "indexed": true,
          "internalType": "address",
          "name": "to",
          "type": "address"
        },
        {
          "indexed": true,
          "internalType": "uint256",
          "name": "tokenId",
          "type": "uint256"
        }
      ],
      "name": "Transfer",
      "type": "event"
    },
    {
      "anonymous": false,
      "inputs": [
        {
          "indexed": false,
          "internalType": "uint256",
          "name": "amount",
          "type": "uint256"
        }
      ],
      "name": "Withdraw",
      "type": "event"
    },
    {
      "stateMutability": "payable",
      "type": "fallback"
    },
    {
      "inputs": [],
      "name": "Admin",
      "outputs": [
        {
          "internalType": "address",
          "name": "",
          "type": "address"
        }
      ],
      "stateMutability": "view",
      "type": "function"
    },
    {
      "inputs": [
        {
          "internalType": "address",
          "name": "newAdmin",
          "type": "address"
        }
      ],
      "name": "addAdmin",
      "outputs": [],
      "stateMutability": "nonpayable",
      "type": "function"
    },
    {
      "inputs": [
        {
          "internalType": "uint256",
          "name": "quantity",
          "type": "uint256"
        }
      ],
      "name": "adminMint",
      "outputs": [],
      "stateMutability": "nonpayable",
      "type": "function"
    },
    {
      "inputs": [
        {
          "internalType": "address",
          "name": "to",
          "type": "address"
        },
        {
          "internalType": "uint256",
          "name": "tokenId",
          "type": "uint256"
        }
      ],
      "name": "approve",
      "outputs": [],
      "stateMutability": "nonpayable",
      "type": "function"
    },
    {
      "inputs": [
        {
          "internalType": "address",
          "name": "owner",
          "type": "address"
        }
      ],
      "name": "balanceOf",
      "outputs": [
        {
          "internalType": "uint256",
          "name": "",
          "type": "uint256"
        }
      ],
      "stateMutability": "view",
      "type": "function"
    },
    {
      "inputs": [],
      "name": "baseURI",
      "outputs": [
        {
          "internalType": "string",
          "name": "",
          "type": "string"
        }
      ],
      "stateMutability": "view",
      "type": "function"
    },
    {
      "inputs": [
        {
          "internalType": "uint256",
          "name": "tokenId",
          "type": "uint256"
        }
      ],
      "name": "getApproved",
      "outputs": [
        {
          "internalType": "address",
          "name": "",
          "type": "address"
        }
      ],
      "stateMutability": "view",
      "type": "function"
    },
    {
      "inputs": [],
      "name": "getBalance",
      "outputs": [
        {
          "internalType": "uint256",
          "name": "",
          "type": "uint256"
        }
      ],
      "stateMutability": "view",
      "type": "function"
    },
    {
      "inputs": [],
      "name": "getBaseURI",
      "outputs": [
        {
          "internalType": "string",
          "name": "",
          "type": "string"
        }
      ],
      "stateMutability": "view",
      "type": "function"
    },
    {
      "inputs": [],
      "name": "getMinintgFee",
      "outputs": [
        {
          "internalType": "uint256",
          "name": "",
          "type": "uint256"
        }
      ],
      "stateMutability": "view",
      "type": "function"
    },
    {
      "inputs": [
        {
          "internalType": "address",
          "name": "owner",
          "type": "address"
        },
        {
          "internalType": "address",
          "name": "operator",
          "type": "address"
        }
      ],
      "name": "isApprovedForAll",
      "outputs": [
        {
          "internalType": "bool",
          "name": "",
          "type": "bool"
        }
      ],
      "stateMutability": "view",
      "type": "function"
    },
    {
      "inputs": [],
      "name": "maxQuantity",
      "outputs": [
        {
          "internalType": "uint256",
          "name": "",
          "type": "uint256"
        }
      ],
      "stateMutability": "view",
      "type": "function"
    },
    {
      "inputs": [
        {
          "internalType": "uint256",
          "name": "quantity",
          "type": "uint256"
        }
      ],
      "name": "mint",
      "outputs": [],
      "stateMutability": "payable",
      "type": "function"
    },
    {
      "inputs": [],
      "name": "name",
      "outputs": [
        {
          "internalType": "string",
          "name": "",
          "type": "string"
        }
      ],
      "stateMutability": "view",
      "type": "function"
    },
    {
      "inputs": [],
      "name": "owner",
      "outputs": [
        {
          "internalType": "address",
          "name": "",
          "type": "address"
        }
      ],
      "stateMutability": "view",
      "type": "function"
    },
    {
      "inputs": [
        {
          "internalType": "uint256",
          "name": "tokenId",
          "type": "uint256"
        }
      ],
      "name": "ownerOf",
      "outputs": [
        {
          "internalType": "address",
          "name": "",
          "type": "address"
        }
      ],
      "stateMutability": "view",
      "type": "function"
    },
    {
      "inputs": [],
      "name": "renounceOwnership",
      "outputs": [],
      "stateMutability": "nonpayable",
      "type": "function"
    },
    {
      "inputs": [
        {
          "internalType": "address",
          "name": "from",
          "type": "address"
        },
        {
          "internalType": "address",
          "name": "to",
          "type": "address"
        },
        {
          "internalType": "uint256",
          "name": "tokenId",
          "type": "uint256"
        }
      ],
      "name": "safeTransferFrom",
      "outputs": [],
      "stateMutability": "nonpayable",
      "type": "function"
    },
    {
      "inputs": [
        {
          "internalType": "address",
          "name": "from",
          "type": "address"
        },
        {
          "internalType": "address",
          "name": "to",
          "type": "address"
        },
        {
          "internalType": "uint256",
          "name": "tokenId",
          "type": "uint256"
        },
        {
          "internalType": "bytes",
          "name": "_data",
          "type": "bytes"
        }
      ],
      "name": "safeTransferFrom",
      "outputs": [],
      "stateMutability": "nonpayable",
      "type": "function"
    },
    {
      "inputs": [
        {
          "internalType": "address",
          "name": "operator",
          "type": "address"
        },
        {
          "internalType": "bool",
          "name": "approved",
          "type": "bool"
        }
      ],
      "name": "setApprovalForAll",
      "outputs": [],
      "stateMutability": "nonpayable",
      "type": "function"
    },
    {
      "inputs": [
        {
          "internalType": "string",
          "name": "_newBaseURI",
          "type": "string"
        }
      ],
      "name": "setBaseURI",
      "outputs": [],
      "stateMutability": "nonpayable",
      "type": "function"
    },
    {
      "inputs": [
        {
          "internalType": "string",
          "name": "_defaultURI",
          "type": "string"
        }
      ],
      "name": "setDefaultURI",
      "outputs": [],
      "stateMutability": "nonpayable",
      "type": "function"
    },
    {
      "inputs": [
        {
          "internalType": "uint256",
          "name": "fee",
          "type": "uint256"
        }
      ],
      "name": "setMintingFee",
      "outputs": [],
      "stateMutability": "nonpayable",
      "type": "function"
    },
    {
      "inputs": [
        {
          "internalType": "bytes4",
          "name": "interfaceId",
          "type": "bytes4"
        }
      ],
      "name": "supportsInterface",
      "outputs": [
        {
          "internalType": "bool",
          "name": "",
          "type": "bool"
        }
      ],
      "stateMutability": "view",
      "type": "function"
    },
    {
      "inputs": [],
      "name": "symbol",
      "outputs": [
        {
          "internalType": "string",
          "name": "",
          "type": "string"
        }
      ],
      "stateMutability": "view",
      "type": "function"
    },
    {
      "inputs": [
        {
          "internalType": "uint256",
          "name": "tokenId",
          "type": "uint256"
        }
      ],
      "name": "tokenURI",
      "outputs": [
        {
          "internalType": "string",
          "name": "",
          "type": "string"
        }
      ],
      "stateMutability": "view",
      "type": "function"
    },
    {
      "inputs": [],
      "name": "tokenURIfix",
      "outputs": [
        {
          "internalType": "string",
          "name": "",
          "type": "string"
        }
      ],
      "stateMutability": "view",
      "type": "function"
    },
    {
      "inputs": [],
      "name": "totalSupply",
      "outputs": [
        {
          "internalType": "uint256",
          "name": "",
          "type": "uint256"
        }
      ],
      "stateMutability": "view",
      "type": "function"
    },
    {
      "inputs": [
        {
          "internalType": "uint256[]",
          "name": "tokenIds",
          "type": "uint256[]"
        },
        {
          "internalType": "address",
          "name": "to",
          "type": "address"
        }
      ],
      "name": "transferBatch",
      "outputs": [],
      "stateMutability": "nonpayable",
      "type": "function"
    },
    {
      "inputs": [
        {
          "internalType": "address",
          "name": "from",
          "type": "address"
        },
        {
          "internalType": "address",
          "name": "to",
          "type": "address"
        },
        {
          "internalType": "uint256",
          "name": "tokenId",
          "type": "uint256"
        }
      ],
      "name": "transferFrom",
      "outputs": [],
      "stateMutability": "nonpayable",
      "type": "function"
    },
    {
      "inputs": [
        {
          "internalType": "address",
          "name": "newOwner",
          "type": "address"
        }
      ],
      "name": "transferOwnership",
      "outputs": [],
      "stateMutability": "nonpayable",
      "type": "function"
    },
    {
      "inputs": [],
      "name": "withdraw",
      "outputs": [],
      "stateMutability": "payable",
      "type": "function"
    },
    {
      "stateMutability": "payable",
      "type": "receive"
    }
  ],
  "bytecode": "0x6005600c5560a06040819052600060808190526200002091600f916200016b565b503480156200002e57600080fd5b50604051620020dd380380620020dd8339810160408190526200005191620002c4565b604080518082018252601381527f41746f6d72696773204a756e696f72204e46540000000000000000000000000060208083019182528351808501909452600a845269129d5b9a5bdc9cd3919560b21b908401528151919291620000b8916002916200016b565b508051620000ce9060039060208401906200016b565b50506000805550620000e03362000119565b60016009558151620000fa90600d9060208501906200016b565b5080516200011090600e9060208401906200016b565b5050506200037e565b600880546001600160a01b038381166001600160a01b0319831681179093556040519116919082907f8be0079c531659141344cd1fd0a4f28419497f9722a3daafe3b4186f6b6457e090600090a35050565b82805462000179906200032b565b90600052602060002090601f0160209004810192826200019d5760008555620001e8565b82601f10620001b857805160ff1916838001178555620001e8565b82800160010185558215620001e8579182015b82811115620001e8578251825591602001919060010190620001cb565b50620001f6929150620001fa565b5090565b5b80821115620001f65760008155600101620001fb565b600082601f83011262000222578081fd5b81516001600160401b03808211156200023f576200023f62000368565b604051601f8301601f19908116603f011681019082821181831017156200026a576200026a62000368565b8160405283815260209250868385880101111562000286578485fd5b8491505b83821015620002a957858201830151818301840152908201906200028a565b83821115620002ba57848385830101525b9695505050505050565b60008060408385031215620002d7578182fd5b82516001600160401b0380821115620002ee578384fd5b620002fc8683870162000211565b9350602085015191508082111562000312578283fd5b50620003218582860162000211565b9150509250929050565b600181811c908216806200034057607f821691505b602082108114156200036257634e487b7160e01b600052602260045260246000fd5b50919050565b634e487b7160e01b600052604160045260246000fd5b611d4f806200038e6000396000f3fe6080604052600436106101e75760003560e01c806370a0823111610102578063b88d4fde11610095578063e640cf7d11610064578063e640cf7d14610596578063e985e9c5146105ac578063f2fde38b146105f5578063ff1b636d1461061557610231565b8063b88d4fde14610516578063c1f2612314610536578063c87b56dd14610556578063da1b9e081461057657610231565b80638da5cb5b116100d15780638da5cb5b146104b057806395d89b41146104ce578063a0712d68146104e3578063a22cb465146104f657610231565b806370a0823114610451578063714c539814610471578063715018a614610486578063759093791461049b57610231565b806323b872dd1161017a57806355f804b31161014957806355f804b3146103dc5780636352211e146103fc5780636c0360eb1461041c578063704802751461043157610231565b806323b872dd1461037f5780633ccfd60b1461039f57806342842e0e146103a7578063555fc7b7146103c757610231565b8063095ea7b3116101b6578063095ea7b31461030957806312065fe01461032957806318160ddd14610346578063238a47091461035f57610231565b806301ffc9a7146102585780630202def11461028d57806306fdde03146102af578063081812fc146102d157610231565b36610231577f88a5966d370b9919b20f3e2c13ff65706f196a4e32cc2c12bf57088f88525874335b604080516001600160a01b0390921682523460208301520160405180910390a1005b7f88a5966d370b9919b20f3e2c13ff65706f196a4e32cc2c12bf57088f885258743361020f565b34801561026457600080fd5b5061027861027336600461192d565b610635565b60405190151581526020015b60405180910390f35b34801561029957600080fd5b506102ad6102a83660046118ae565b610687565b005b3480156102bb57600080fd5b506102c4610711565b6040516102849190611b53565b3480156102dd57600080fd5b506102f16102ec3660046119ab565b6107a3565b6040516001600160a01b039091168152602001610284565b34801561031557600080fd5b506102ad610324366004611885565b6107e7565b34801561033557600080fd5b50475b604051908152602001610284565b34801561035257600080fd5b5060015460005403610338565b34801561036b57600080fd5b506102ad61037a3660046119ab565b6108ba565b34801561038b57600080fd5b506102ad61039a366004611797565b610958565b6102ad610968565b3480156103b357600080fd5b506102ad6103c2366004611797565b610a61565b3480156103d357600080fd5b50600b54610338565b3480156103e857600080fd5b506102ad6103f7366004611965565b610a7c565b34801561040857600080fd5b506102f16104173660046119ab565b610b37565b34801561042857600080fd5b506102c4610b42565b34801561043d57600080fd5b506102ad61044c36600461174b565b610bd0565b34801561045d57600080fd5b5061033861046c36600461174b565b610c1c565b34801561047d57600080fd5b506102c4610c6b565b34801561049257600080fd5b506102ad610c7a565b3480156104a757600080fd5b506102c4610cb0565b3480156104bc57600080fd5b506008546001600160a01b03166102f1565b3480156104da57600080fd5b506102c4610cbd565b6102ad6104f13660046119ab565b610ccc565b34801561050257600080fd5b506102ad61051136600461184b565b610d5e565b34801561052257600080fd5b506102ad6105313660046117d2565b610df4565b34801561054257600080fd5b506102ad6105513660046119ab565b610e3e565b34801561056257600080fd5b506102c46105713660046119ab565b610f09565b34801561058257600080fd5b506102ad610591366004611965565b610f9f565b3480156105a257600080fd5b50610338600c5481565b3480156105b857600080fd5b506102786105c7366004611765565b6001600160a01b03918216600090815260076020908152604080832093909416825291909152205460ff1690565b34801561060157600080fd5b506102ad61061036600461174b565b61100c565b34801561062157600080fd5b50600a546102f1906001600160a01b031681565b60006301ffc9a760e01b6001600160e01b03198316148061066657506380ac58cd60e01b6001600160e01b03198316145b806106815750635b5e139f60e01b6001600160e01b03198316145b92915050565b600260095414156106b35760405162461bcd60e51b81526004016106aa90611bff565b60405180910390fd5b600260095560005b82811015610706576106f433838686858181106106e857634e487b7160e01b600052603260045260246000fd5b90506020020135610a61565b806106fe81611cbc565b9150506106bb565b505060016009555050565b60606002805461072090611c81565b80601f016020809104026020016040519081016040528092919081815260200182805461074c90611c81565b80156107995780601f1061076e57610100808354040283529160200191610799565b820191906000526020600020905b81548152906001019060200180831161077c57829003601f168201915b5050505050905090565b60006107ae826110a7565b6107cb576040516333d1c03960e21b815260040160405180910390fd5b506000908152600660205260409020546001600160a01b031690565b60006107f2826110ce565b9050806001600160a01b0316836001600160a01b031614156108275760405163250fdee360e21b815260040160405180910390fd5b336001600160a01b0382161461085e5761084181336105c7565b61085e576040516367d9dca160e11b815260040160405180910390fd5b60008281526006602052604080822080546001600160a01b0319166001600160a01b0387811691821790925591518593918516917f8c5be1e5ebec7d5bd14f71427d1e84f3dd0314c0f7b2291e5b200ac8c7c3b92591a4505050565b600a546001600160a01b03166108e357604051632c73a0bf60e11b81526004016106aa90611b9d565b600a546001600160a01b0316331480159061090957506008546001600160a01b03163314155b15610927576040516305a0a2dd60e41b81526004016106aa90611b66565b600b8190556040517ff2f0645894735cd6354bac6c5fe8a404442eb2a6aefa35b709af910949cfd31390600090a150565b610963838383611136565b505050565b6008546001600160a01b031633146109925760405162461bcd60e51b81526004016106aa90611bca565b600260095414156109b55760405162461bcd60e51b81526004016106aa90611bff565b60026009556040514790600090339083908381818185875af1925050503d80600081146109fe576040519150601f19603f3d011682016040523d82523d6000602084013e610a03565b606091505b5050905080610a255760405163ce43c9c560e01b815260040160405180910390fd5b6040518281527f5b6b431d4476a211bb7d41c20d1aab9ae2321deee0d20be3d9fc9b1093fa6e3d9060200160405180910390a150506001600955565b61096383838360405180602001604052806000815250610df4565b600a546001600160a01b0316610aa557604051632c73a0bf60e11b81526004016106aa90611b9d565b600a546001600160a01b03163314801590610acb57506008546001600160a01b03163314155b15610ae9576040516305a0a2dd60e41b81526004016106aa90611b66565b8051610afc90600d906020840190611625565b507f6741b2fc379fad678116fe3d4d4b9a1a184ab53ba36b86ad0fa66340b1ab41ad81604051610b2c9190611b53565b60405180910390a150565b6000610681826110ce565b600d8054610b4f90611c81565b80601f0160208091040260200160405190810160405280929190818152602001828054610b7b90611c81565b8015610bc85780601f10610b9d57610100808354040283529160200191610bc8565b820191906000526020600020905b815481529060010190602001808311610bab57829003601f168201915b505050505081565b6008546001600160a01b03163314610bfa5760405162461bcd60e51b81526004016106aa90611bca565b600a80546001600160a01b0319166001600160a01b0392909216919091179055565b60006001600160a01b038216610c45576040516323d3ad8160e21b815260040160405180910390fd5b506001600160a01b031660009081526005602052604090205467ffffffffffffffff1690565b6060610c756112d9565b905090565b6008546001600160a01b03163314610ca45760405162461bcd60e51b81526004016106aa90611bca565b610cae60006112e8565b565b600f8054610b4f90611c81565b60606003805461072090611c81565b60026009541415610cef5760405162461bcd60e51b81526004016106aa90611bff565b6002600955600b54600090610d05908390611c36565b9050348114610d275760405163bfa3573760e01b815260040160405180910390fd5b600c54821115610d4a57604051633435702960e01b815260040160405180910390fd5b610d54338361133a565b5050600160095550565b6001600160a01b038216331415610d885760405163b06307db60e01b815260040160405180910390fd5b3360008181526007602090815260408083206001600160a01b03871680855290835292819020805460ff191686151590811790915590519081529192917f17307eab39ab6107e8899845ad3d59bd9653f200f220920489ca2b5937696c31910160405180910390a35050565b610dff848484611136565b6001600160a01b0383163b15610e3857610e1b8484848461134f565b610e38576040516368d2bf6b60e11b815260040160405180910390fd5b50505050565b600a546001600160a01b0316610e6757604051632c73a0bf60e11b81526004016106aa90611b9d565b600a546001600160a01b03163314801590610e8d57506008546001600160a01b03163314155b15610eab576040516305a0a2dd60e41b81526004016106aa90611b66565b60026009541415610ece5760405162461bcd60e51b81526004016106aa90611bff565b6002600955600c54811115610ef657604051633435702960e01b815260040160405180910390fd5b610f00338261133a565b50506001600955565b604080516000815260208101808352815190206060929091610f2e91600f9101611a87565b6040516020818303038152906040528051906020012014610f7e57600d600f610f5684611447565b604051602001610f6893929190611ac8565b6040516020818303038152906040529050919050565b600e610f8983611447565b604051602001610f68929190611a93565b919050565b6008546001600160a01b03163314610fc95760405162461bcd60e51b81526004016106aa90611bca565b8051610fdc90600e906020840190611625565b507fd2bc967bbe8415901898897289f2a34de3bde16de1ab5fc5a57a682844bf565381604051610b2c9190611b53565b6008546001600160a01b031633146110365760405162461bcd60e51b81526004016106aa90611bca565b6001600160a01b03811661109b5760405162461bcd60e51b815260206004820152602660248201527f4f776e61626c653a206e6577206f776e657220697320746865207a65726f206160448201526564647265737360d01b60648201526084016106aa565b6110a4816112e8565b50565b6000805482108015610681575050600090815260046020526040902054600160e01b161590565b60008160005481101561111d57600081815260046020526040902054600160e01b811661111b575b806111145750600019016000818152600460205260409020546110f6565b9392505050565b505b604051636f96cda160e11b815260040160405180910390fd5b6000611141826110ce565b9050836001600160a01b0316816001600160a01b0316146111745760405162a1148160e81b815260040160405180910390fd5b6000336001600160a01b0386161480611192575061119285336105c7565b806111ad5750336111a2846107a3565b6001600160a01b0316145b9050806111cd57604051632ce44b5f60e11b815260040160405180910390fd5b6001600160a01b0384166111f457604051633a954ecd60e21b815260040160405180910390fd5b600083815260066020908152604080832080546001600160a01b03191690556001600160a01b038881168452600583528184208054600019019055871683528083208054600101905585835260049091529020600160e11b4260a01b861781179091558216611291576001830160008181526004602052604090205461128f57600054811461128f5760008181526004602052604090208390555b505b82846001600160a01b0316866001600160a01b03167fddf252ad1be2c89b69c2b068fc378daa952ba7f163c4a11628f55a4df523b3ef60405160405180910390a45050505050565b6060600d805461072090611c81565b600880546001600160a01b038381166001600160a01b0319831681179093556040519116919082907f8be0079c531659141344cd1fd0a4f28419497f9722a3daafe3b4186f6b6457e090600090a35050565b60006113468383611496565b50600192915050565b604051630a85bd0160e11b81526000906001600160a01b0385169063150b7a0290611384903390899088908890600401611b16565b602060405180830381600087803b15801561139e57600080fd5b505af19250505080156113ce575060408051601f3d908101601f191682019092526113cb91810190611949565b60015b611429573d8080156113fc576040519150601f19603f3d011682016040523d82523d6000602084013e611401565b606091505b508051611421576040516368d2bf6b60e11b815260040160405180910390fd5b805181602001fd5b6001600160e01b031916630a85bd0160e11b1490505b949350505050565b604080516080810191829052607f0190826030600a8206018353600a90045b801561148457600183039250600a81066030018353600a9004611466565b50819003601f19909101908152919050565b6114b08282604051806020016040528060008152506114b4565b5050565b6000546001600160a01b0384166114dd57604051622e076360e81b815260040160405180910390fd5b826114fb5760405163b562e8dd60e01b815260040160405180910390fd5b6001600160a01b03841660008181526005602090815260408083208054680100000000000000018902019055848352600490915290204260a01b86176001861460e11b1790558190818501903b156115d0575b60405182906001600160a01b038816906000907fddf252ad1be2c89b69c2b068fc378daa952ba7f163c4a11628f55a4df523b3ef908290a4611599600087848060010195508761134f565b6115b6576040516368d2bf6b60e11b815260040160405180910390fd5b80821061154e5782600054146115cb57600080fd5b611615565b5b6040516001830192906001600160a01b038816906000907fddf252ad1be2c89b69c2b068fc378daa952ba7f163c4a11628f55a4df523b3ef908290a48082106115d1575b506000908155610e389085838684565b82805461163190611c81565b90600052602060002090601f0160209004810192826116535760008555611699565b82601f1061166c57805160ff1916838001178555611699565b82800160010185558215611699579182015b8281111561169957825182559160200191906001019061167e565b506116a59291506116a9565b5090565b5b808211156116a557600081556001016116aa565b600067ffffffffffffffff808411156116d9576116d9611ced565b604051601f8501601f19908116603f0116810190828211818310171561170157611701611ced565b8160405280935085815286868601111561171a57600080fd5b858560208301376000602087830101525050509392505050565b80356001600160a01b0381168114610f9a57600080fd5b60006020828403121561175c578081fd5b61111482611734565b60008060408385031215611777578081fd5b61178083611734565b915061178e60208401611734565b90509250929050565b6000806000606084860312156117ab578081fd5b6117b484611734565b92506117c260208501611734565b9150604084013590509250925092565b600080600080608085870312156117e7578081fd5b6117f085611734565b93506117fe60208601611734565b925060408501359150606085013567ffffffffffffffff811115611820578182fd5b8501601f81018713611830578182fd5b61183f878235602084016116be565b91505092959194509250565b6000806040838503121561185d578182fd5b61186683611734565b91506020830135801515811461187a578182fd5b809150509250929050565b60008060408385031215611897578182fd5b6118a083611734565b946020939093013593505050565b6000806000604084860312156118c2578283fd5b833567ffffffffffffffff808211156118d9578485fd5b818601915086601f8301126118ec578485fd5b8135818111156118fa578586fd5b8760208260051b850101111561190e578586fd5b6020928301955093506119249186019050611734565b90509250925092565b60006020828403121561193e578081fd5b813561111481611d03565b60006020828403121561195a578081fd5b815161111481611d03565b600060208284031215611976578081fd5b813567ffffffffffffffff81111561198c578182fd5b8201601f8101841361199c578182fd5b61143f848235602084016116be565b6000602082840312156119bc578081fd5b5035919050565b600081518084526119db816020860160208601611c55565b601f01601f19169290920160200192915050565b8054600090600181811c9080831680611a0957607f831692505b6020808410821415611a2957634e487b7160e01b86526022600452602486fd5b818015611a3d5760018114611a4e57611a7b565b60ff19861689528489019650611a7b565b60008881526020902060005b86811015611a735781548b820152908501908301611a5a565b505084890196505b50505050505092915050565b600061111482846119ef565b6000611a9f82856119ef565b8351611aaf818360208801611c55565b64173539b7b760d91b9101908152600501949350505050565b6000611add611ad783876119ef565b856119ef565b602f60f81b81528351611af7816001840160208801611c55565b64173539b7b760d91b6001929091019182015260060195945050505050565b6001600160a01b0385811682528416602082015260408101839052608060608201819052600090611b49908301846119c3565b9695505050505050565b60208152600061111460208301846119c3565b60208082526017908201527f63616c6c6572206973206e6f74207468652041646d696e000000000000000000604082015260600190565b6020808252601390820152724e6f7420616c6c6f776564206164647265737360681b604082015260600190565b6020808252818101527f4f776e61626c653a2063616c6c6572206973206e6f7420746865206f776e6572604082015260600190565b6020808252601f908201527f5265656e7472616e637947756172643a207265656e7472616e742063616c6c00604082015260600190565b6000816000190483118215151615611c5057611c50611cd7565b500290565b60005b83811015611c70578181015183820152602001611c58565b83811115610e385750506000910152565b600181811c90821680611c9557607f821691505b60208210811415611cb657634e487b7160e01b600052602260045260246000fd5b50919050565b6000600019821415611cd057611cd0611cd7565b5060010190565b634e487b7160e01b600052601160045260246000fd5b634e487b7160e01b600052604160045260246000fd5b6001600160e01b0319811681146110a457600080fdfea26469706673582212209cb3c1bc06770c699bec31a32c815bb94ca3dd5c5fb9ff05b81fb2cd2f6f119f64736f6c63430008040033",
  "linkReferences": {},
  "deployedLinkReferences": {}
}