{
  "_format": "hh-sol-artifact-1",
  "contractName": "MyNFT",
  "sourceName": "contracts/MyNFT.sol",
  "abi": [
    {
      "inputs": [
        {
          "internalType": "string",
          "name": "_baseURI",
          "type": "string"
        },
        {
          "internalType": "string",
          "name": "_defaultURI",
          "type": "string"
        }
      ],
      "stateMutability": "nonpayable",
      "type": "constructor"
    },
    {
      "inputs": [],
      "name": "AlreadyRevealed",
      "type": "error"
    },
    {
      "inputs": [],
      "name": "ApprovalCallerNotOwnerNorApproved",
      "type": "error"
    },
    {
      "inputs": [],
      "name": "ApprovalQueryForNonexistentToken",
      "type": "error"
    },
    {
      "inputs": [],
      "name": "ApprovalToCurrentOwner",
      "type": "error"
    },
    {
      "inputs": [],
      "name": "ApproveToCaller",
      "type": "error"
    },
    {
      "inputs": [
        {
          "internalType": "string",
          "name": "message",
          "type": "string"
        }
      ],
      "name": "BadRequest",
      "type": "error"
    },
    {
      "inputs": [],
      "name": "BalanceQueryForZeroAddress",
      "type": "error"
    },
    {
      "inputs": [],
      "name": "ExceedMaxQuantity",
      "type": "error"
    },
    {
      "inputs": [],
      "name": "FailedToSendBalance",
      "type": "error"
    },
    {
      "inputs": [],
      "name": "ImmutableState",
      "type": "error"
    },
    {
      "inputs": [],
      "name": "MintToZeroAddress",
      "type": "error"
    },
    {
      "inputs": [],
      "name": "MintZeroQuantity",
      "type": "error"
    },
    {
      "inputs": [],
      "name": "NoMatchingFee",
      "type": "error"
    },
    {
      "inputs": [
        {
          "internalType": "string",
          "name": "message",
          "type": "string"
        }
      ],
      "name": "NotOwnerNorAdmin",
      "type": "error"
    },
    {
      "inputs": [],
      "name": "OwnerQueryForNonexistentToken",
      "type": "error"
    },
    {
      "inputs": [],
      "name": "TransferCallerNotOwnerNorApproved",
      "type": "error"
    },
    {
      "inputs": [],
      "name": "TransferFromIncorrectOwner",
      "type": "error"
    },
    {
      "inputs": [],
      "name": "TransferToNonERC721ReceiverImplementer",
      "type": "error"
    },
    {
      "inputs": [],
      "name": "TransferToZeroAddress",
      "type": "error"
    },
    {
      "inputs": [],
      "name": "URIQueryForNonexistentToken",
      "type": "error"
    },
    {
      "anonymous": false,
      "inputs": [
        {
          "indexed": true,
          "internalType": "address",
          "name": "owner",
          "type": "address"
        },
        {
          "indexed": true,
          "internalType": "address",
          "name": "approved",
          "type": "address"
        },
        {
          "indexed": true,
          "internalType": "uint256",
          "name": "tokenId",
          "type": "uint256"
        }
      ],
      "name": "Approval",
      "type": "event"
    },
    {
      "anonymous": false,
      "inputs": [
        {
          "indexed": true,
          "internalType": "address",
          "name": "owner",
          "type": "address"
        },
        {
          "indexed": true,
          "internalType": "address",
          "name": "operator",
          "type": "address"
        },
        {
          "indexed": false,
          "internalType": "bool",
          "name": "approved",
          "type": "bool"
        }
      ],
      "name": "ApprovalForAll",
      "type": "event"
    },
    {
      "anonymous": false,
      "inputs": [
        {
          "indexed": false,
          "internalType": "string",
          "name": "baseURI",
          "type": "string"
        }
      ],
      "name": "BaseURIUpdated",
      "type": "event"
    },
    {
      "anonymous": false,
      "inputs": [
        {
          "indexed": false,
          "internalType": "string",
          "name": "defaultURI",
          "type": "string"
        }
      ],
      "name": "DefaultURIUpdated",
      "type": "event"
    },
    {
      "anonymous": false,
      "inputs": [],
      "name": "MintingFeeUpdated",
      "type": "event"
    },
    {
      "anonymous": false,
      "inputs": [
        {
          "indexed": true,
          "internalType": "address",
          "name": "previousOwner",
          "type": "address"
        },
        {
          "indexed": true,
          "internalType": "address",
          "name": "newOwner",
          "type": "address"
        }
      ],
      "name": "OwnershipTransferred",
      "type": "event"
    },
    {
      "anonymous": false,
      "inputs": [
        {
          "indexed": false,
          "internalType": "address",
          "name": "sender",
          "type": "address"
        },
        {
          "indexed": false,
          "internalType": "uint256",
          "name": "amount",
          "type": "uint256"
        }
      ],
      "name": "Received",
      "type": "event"
    },
    {
      "anonymous": false,
      "inputs": [],
      "name": "Revealed",
      "type": "event"
    },
    {
      "anonymous": false,
      "inputs": [
        {
          "indexed": true,
          "internalType": "address",
          "name": "from",
          "type": "address"
        },
        {
          "indexed": true,
          "internalType": "address",
          "name": "to",
          "type": "address"
        },
        {
          "indexed": true,
          "internalType": "uint256",
          "name": "tokenId",
          "type": "uint256"
        }
      ],
      "name": "Transfer",
      "type": "event"
    },
    {
      "anonymous": false,
      "inputs": [
        {
          "indexed": false,
          "internalType": "uint256",
          "name": "amount",
          "type": "uint256"
        }
      ],
      "name": "Withdraw",
      "type": "event"
    },
    {
      "stateMutability": "payable",
      "type": "fallback"
    },
    {
      "inputs": [],
      "name": "Admin",
      "outputs": [
        {
          "internalType": "address",
          "name": "",
          "type": "address"
        }
      ],
      "stateMutability": "view",
      "type": "function"
    },
    {
      "inputs": [
        {
          "internalType": "address",
          "name": "newAdmin",
          "type": "address"
        }
      ],
      "name": "addAdmin",
      "outputs": [],
      "stateMutability": "nonpayable",
      "type": "function"
    },
    {
      "inputs": [
        {
          "internalType": "uint256",
          "name": "quantity",
          "type": "uint256"
        }
      ],
      "name": "adminMint",
      "outputs": [],
      "stateMutability": "nonpayable",
      "type": "function"
    },
    {
      "inputs": [
        {
          "internalType": "address",
          "name": "to",
          "type": "address"
        },
        {
          "internalType": "uint256",
          "name": "tokenId",
          "type": "uint256"
        }
      ],
      "name": "approve",
      "outputs": [],
      "stateMutability": "nonpayable",
      "type": "function"
    },
    {
      "inputs": [
        {
          "internalType": "address",
          "name": "owner",
          "type": "address"
        }
      ],
      "name": "balanceOf",
      "outputs": [
        {
          "internalType": "uint256",
          "name": "",
          "type": "uint256"
        }
      ],
      "stateMutability": "view",
      "type": "function"
    },
    {
      "inputs": [],
      "name": "baseURI",
      "outputs": [
        {
          "internalType": "string",
          "name": "",
          "type": "string"
        }
      ],
      "stateMutability": "view",
      "type": "function"
    },
    {
      "inputs": [
        {
          "internalType": "uint256",
          "name": "tokenId",
          "type": "uint256"
        }
      ],
      "name": "getApproved",
      "outputs": [
        {
          "internalType": "address",
          "name": "",
          "type": "address"
        }
      ],
      "stateMutability": "view",
      "type": "function"
    },
    {
      "inputs": [],
      "name": "getBalance",
      "outputs": [
        {
          "internalType": "uint256",
          "name": "",
          "type": "uint256"
        }
      ],
      "stateMutability": "view",
      "type": "function"
    },
    {
      "inputs": [],
      "name": "getBaseURI",
      "outputs": [
        {
          "internalType": "string",
          "name": "",
          "type": "string"
        }
      ],
      "stateMutability": "view",
      "type": "function"
    },
    {
      "inputs": [],
      "name": "getMinintgFee",
      "outputs": [
        {
          "internalType": "uint256",
          "name": "",
          "type": "uint256"
        }
      ],
      "stateMutability": "view",
      "type": "function"
    },
    {
      "inputs": [
        {
          "internalType": "address",
          "name": "owner",
          "type": "address"
        },
        {
          "internalType": "address",
          "name": "operator",
          "type": "address"
        }
      ],
      "name": "isApprovedForAll",
      "outputs": [
        {
          "internalType": "bool",
          "name": "",
          "type": "bool"
        }
      ],
      "stateMutability": "view",
      "type": "function"
    },
    {
      "inputs": [],
      "name": "maxQuantity",
      "outputs": [
        {
          "internalType": "uint256",
          "name": "",
          "type": "uint256"
        }
      ],
      "stateMutability": "view",
      "type": "function"
    },
    {
      "inputs": [
        {
          "internalType": "uint256",
          "name": "quantity",
          "type": "uint256"
        }
      ],
      "name": "mint",
      "outputs": [],
      "stateMutability": "payable",
      "type": "function"
    },
    {
      "inputs": [],
      "name": "name",
      "outputs": [
        {
          "internalType": "string",
          "name": "",
          "type": "string"
        }
      ],
      "stateMutability": "view",
      "type": "function"
    },
    {
      "inputs": [],
      "name": "owner",
      "outputs": [
        {
          "internalType": "address",
          "name": "",
          "type": "address"
        }
      ],
      "stateMutability": "view",
      "type": "function"
    },
    {
      "inputs": [
        {
          "internalType": "uint256",
          "name": "tokenId",
          "type": "uint256"
        }
      ],
      "name": "ownerOf",
      "outputs": [
        {
          "internalType": "address",
          "name": "",
          "type": "address"
        }
      ],
      "stateMutability": "view",
      "type": "function"
    },
    {
      "inputs": [],
      "name": "renounceOwnership",
      "outputs": [],
      "stateMutability": "nonpayable",
      "type": "function"
    },
    {
      "inputs": [],
      "name": "reveal",
      "outputs": [],
      "stateMutability": "nonpayable",
      "type": "function"
    },
    {
      "inputs": [],
      "name": "revealed",
      "outputs": [
        {
          "internalType": "bool",
          "name": "",
          "type": "bool"
        }
      ],
      "stateMutability": "view",
      "type": "function"
    },
    {
      "inputs": [
        {
          "internalType": "address",
          "name": "from",
          "type": "address"
        },
        {
          "internalType": "address",
          "name": "to",
          "type": "address"
        },
        {
          "internalType": "uint256",
          "name": "tokenId",
          "type": "uint256"
        }
      ],
      "name": "safeTransferFrom",
      "outputs": [],
      "stateMutability": "nonpayable",
      "type": "function"
    },
    {
      "inputs": [
        {
          "internalType": "address",
          "name": "from",
          "type": "address"
        },
        {
          "internalType": "address",
          "name": "to",
          "type": "address"
        },
        {
          "internalType": "uint256",
          "name": "tokenId",
          "type": "uint256"
        },
        {
          "internalType": "bytes",
          "name": "_data",
          "type": "bytes"
        }
      ],
      "name": "safeTransferFrom",
      "outputs": [],
      "stateMutability": "nonpayable",
      "type": "function"
    },
    {
      "inputs": [
        {
          "internalType": "address",
          "name": "operator",
          "type": "address"
        },
        {
          "internalType": "bool",
          "name": "approved",
          "type": "bool"
        }
      ],
      "name": "setApprovalForAll",
      "outputs": [],
      "stateMutability": "nonpayable",
      "type": "function"
    },
    {
      "inputs": [
        {
          "internalType": "string",
          "name": "_newBaseURI",
          "type": "string"
        }
      ],
      "name": "setBaseURI",
      "outputs": [],
      "stateMutability": "nonpayable",
      "type": "function"
    },
    {
      "inputs": [
        {
          "internalType": "string",
          "name": "_defaultURI",
          "type": "string"
        }
      ],
      "name": "setDefaultURI",
      "outputs": [],
      "stateMutability": "nonpayable",
      "type": "function"
    },
    {
      "inputs": [
        {
          "internalType": "uint256",
          "name": "fee",
          "type": "uint256"
        }
      ],
      "name": "setMintingFee",
      "outputs": [],
      "stateMutability": "nonpayable",
      "type": "function"
    },
    {
      "inputs": [
        {
          "internalType": "bytes4",
          "name": "interfaceId",
          "type": "bytes4"
        }
      ],
      "name": "supportsInterface",
      "outputs": [
        {
          "internalType": "bool",
          "name": "",
          "type": "bool"
        }
      ],
      "stateMutability": "view",
      "type": "function"
    },
    {
      "inputs": [],
      "name": "symbol",
      "outputs": [
        {
          "internalType": "string",
          "name": "",
          "type": "string"
        }
      ],
      "stateMutability": "view",
      "type": "function"
    },
    {
      "inputs": [
        {
          "internalType": "uint256",
          "name": "tokenId",
          "type": "uint256"
        }
      ],
      "name": "tokenURI",
      "outputs": [
        {
          "internalType": "string",
          "name": "",
          "type": "string"
        }
      ],
      "stateMutability": "view",
      "type": "function"
    },
    {
      "inputs": [],
      "name": "totalSupply",
      "outputs": [
        {
          "internalType": "uint256",
          "name": "",
          "type": "uint256"
        }
      ],
      "stateMutability": "view",
      "type": "function"
    },
    {
      "inputs": [
        {
          "internalType": "uint256[]",
          "name": "tokenIds",
          "type": "uint256[]"
        },
        {
          "internalType": "address",
          "name": "to",
          "type": "address"
        }
      ],
      "name": "transferBatch",
      "outputs": [],
      "stateMutability": "nonpayable",
      "type": "function"
    },
    {
      "inputs": [
        {
          "internalType": "address",
          "name": "from",
          "type": "address"
        },
        {
          "internalType": "address",
          "name": "to",
          "type": "address"
        },
        {
          "internalType": "uint256",
          "name": "tokenId",
          "type": "uint256"
        }
      ],
      "name": "transferFrom",
      "outputs": [],
      "stateMutability": "nonpayable",
      "type": "function"
    },
    {
      "inputs": [
        {
          "internalType": "address",
          "name": "newOwner",
          "type": "address"
        }
      ],
      "name": "transferOwnership",
      "outputs": [],
      "stateMutability": "nonpayable",
      "type": "function"
    },
    {
      "inputs": [],
      "name": "withdraw",
      "outputs": [],
      "stateMutability": "payable",
      "type": "function"
    },
    {
      "stateMutability": "payable",
      "type": "receive"
    }
  ],
  "bytecode": "0x60806040526005600c55600f805460ff191690553480156200002057600080fd5b50604051620020e8380380620020e883398101604081905262000043916200029a565b604080518082018252600681526513564813919560d21b602080830191825283518085019094526005845264135e53919560da1b9084015281519192916200008e9160029162000141565b508051620000a490600390602084019062000141565b50506000805550620000b633620000ef565b60016009558151620000d090600d90602085019062000141565b508051620000e690600e90602084019062000141565b50505062000354565b600880546001600160a01b038381166001600160a01b0319831681179093556040519116919082907f8be0079c531659141344cd1fd0a4f28419497f9722a3daafe3b4186f6b6457e090600090a35050565b8280546200014f9062000301565b90600052602060002090601f016020900481019282620001735760008555620001be565b82601f106200018e57805160ff1916838001178555620001be565b82800160010185558215620001be579182015b82811115620001be578251825591602001919060010190620001a1565b50620001cc929150620001d0565b5090565b5b80821115620001cc5760008155600101620001d1565b600082601f830112620001f8578081fd5b81516001600160401b03808211156200021557620002156200033e565b604051601f8301601f19908116603f011681019082821181831017156200024057620002406200033e565b816040528381526020925086838588010111156200025c578485fd5b8491505b838210156200027f578582018301518183018401529082019062000260565b838211156200029057848385830101525b9695505050505050565b60008060408385031215620002ad578182fd5b82516001600160401b0380821115620002c4578384fd5b620002d286838701620001e7565b93506020850151915080821115620002e8578283fd5b50620002f785828601620001e7565b9150509250929050565b600181811c908216806200031657607f821691505b602082108114156200033857634e487b7160e01b600052602260045260246000fd5b50919050565b634e487b7160e01b600052604160045260246000fd5b611d8480620003646000396000f3fe6080604052600436106101f25760003560e01c8063704802751161010d578063a475b5dd116100a0578063da1b9e081161006f578063da1b9e081461059b578063e640cf7d146105bb578063e985e9c5146105d1578063f2fde38b1461061a578063ff1b636d1461063a5761023c565b8063a475b5dd14610526578063b88d4fde1461053b578063c1f261231461055b578063c87b56dd1461057b5761023c565b80638da5cb5b116100dc5780638da5cb5b146104c057806395d89b41146104de578063a0712d68146104f3578063a22cb465146105065761023c565b8063704802751461045657806370a0823114610476578063714c539814610496578063715018a6146104ab5761023c565b806323b872dd11610185578063555fc7b711610154578063555fc7b7146103ec57806355f804b3146104015780636352211e146104215780636c0360eb146104415761023c565b806323b872dd1461038a5780633ccfd60b146103aa57806342842e0e146103b257806351830227146103d25761023c565b8063095ea7b3116101c1578063095ea7b31461031457806312065fe01461033457806318160ddd14610351578063238a47091461036a5761023c565b806301ffc9a7146102635780630202def11461029857806306fdde03146102ba578063081812fc146102dc5761023c565b3661023c577f88a5966d370b9919b20f3e2c13ff65706f196a4e32cc2c12bf57088f88525874335b604080516001600160a01b0390921682523460208301520160405180910390a1005b7f88a5966d370b9919b20f3e2c13ff65706f196a4e32cc2c12bf57088f885258743361021a565b34801561026f57600080fd5b5061028361027e3660046119a3565b61065a565b60405190151581526020015b60405180910390f35b3480156102a457600080fd5b506102b86102b3366004611924565b6106ac565b005b3480156102c657600080fd5b506102cf610736565b60405161028f9190611b88565b3480156102e857600080fd5b506102fc6102f7366004611a21565b6107c8565b6040516001600160a01b03909116815260200161028f565b34801561032057600080fd5b506102b861032f3660046118fb565b61080c565b34801561034057600080fd5b50475b60405190815260200161028f565b34801561035d57600080fd5b5060015460005403610343565b34801561037657600080fd5b506102b8610385366004611a21565b6108df565b34801561039657600080fd5b506102b86103a536600461180d565b61097d565b6102b861098d565b3480156103be57600080fd5b506102b86103cd36600461180d565b610a86565b3480156103de57600080fd5b50600f546102839060ff1681565b3480156103f857600080fd5b50600b54610343565b34801561040d57600080fd5b506102b861041c3660046119db565b610aa1565b34801561042d57600080fd5b506102fc61043c366004611a21565b610b5c565b34801561044d57600080fd5b506102cf610b67565b34801561046257600080fd5b506102b86104713660046117c1565b610bf5565b34801561048257600080fd5b506103436104913660046117c1565b610c41565b3480156104a257600080fd5b506102cf610c90565b3480156104b757600080fd5b506102b8610c9f565b3480156104cc57600080fd5b506008546001600160a01b03166102fc565b3480156104ea57600080fd5b506102cf610cd5565b6102b8610501366004611a21565b610ce4565b34801561051257600080fd5b506102b86105213660046118c1565b610d76565b34801561053257600080fd5b506102b8610e0c565b34801561054757600080fd5b506102b8610556366004611848565b610eb1565b34801561056757600080fd5b506102b8610576366004611a21565b610efb565b34801561058757600080fd5b506102cf610596366004611a21565b610fc6565b3480156105a757600080fd5b506102b86105b63660046119db565b611015565b3480156105c757600080fd5b50610343600c5481565b3480156105dd57600080fd5b506102836105ec3660046117db565b6001600160a01b03918216600090815260076020908152604080832093909416825291909152205460ff1690565b34801561062657600080fd5b506102b86106353660046117c1565b611082565b34801561064657600080fd5b50600a546102fc906001600160a01b031681565b60006301ffc9a760e01b6001600160e01b03198316148061068b57506380ac58cd60e01b6001600160e01b03198316145b806106a65750635b5e139f60e01b6001600160e01b03198316145b92915050565b600260095414156106d85760405162461bcd60e51b81526004016106cf90611c34565b60405180910390fd5b600260095560005b8281101561072b57610719338386868581811061070d57634e487b7160e01b600052603260045260246000fd5b90506020020135610a86565b8061072381611cf1565b9150506106e0565b505060016009555050565b60606002805461074590611cb6565b80601f016020809104026020016040519081016040528092919081815260200182805461077190611cb6565b80156107be5780601f10610793576101008083540402835291602001916107be565b820191906000526020600020905b8154815290600101906020018083116107a157829003601f168201915b5050505050905090565b60006107d38261111d565b6107f0576040516333d1c03960e21b815260040160405180910390fd5b506000908152600660205260409020546001600160a01b031690565b600061081782611144565b9050806001600160a01b0316836001600160a01b0316141561084c5760405163250fdee360e21b815260040160405180910390fd5b336001600160a01b038216146108835761086681336105ec565b610883576040516367d9dca160e11b815260040160405180910390fd5b60008281526006602052604080822080546001600160a01b0319166001600160a01b0387811691821790925591518593918516917f8c5be1e5ebec7d5bd14f71427d1e84f3dd0314c0f7b2291e5b200ac8c7c3b92591a4505050565b600a546001600160a01b031661090857604051632c73a0bf60e11b81526004016106cf90611bd2565b600a546001600160a01b0316331480159061092e57506008546001600160a01b03163314155b1561094c576040516305a0a2dd60e41b81526004016106cf90611b9b565b600b8190556040517ff2f0645894735cd6354bac6c5fe8a404442eb2a6aefa35b709af910949cfd31390600090a150565b6109888383836111ac565b505050565b6008546001600160a01b031633146109b75760405162461bcd60e51b81526004016106cf90611bff565b600260095414156109da5760405162461bcd60e51b81526004016106cf90611c34565b60026009556040514790600090339083908381818185875af1925050503d8060008114610a23576040519150601f19603f3d011682016040523d82523d6000602084013e610a28565b606091505b5050905080610a4a5760405163ce43c9c560e01b815260040160405180910390fd5b6040518281527f5b6b431d4476a211bb7d41c20d1aab9ae2321deee0d20be3d9fc9b1093fa6e3d9060200160405180910390a150506001600955565b61098883838360405180602001604052806000815250610eb1565b600a546001600160a01b0316610aca57604051632c73a0bf60e11b81526004016106cf90611bd2565b600a546001600160a01b03163314801590610af057506008546001600160a01b03163314155b15610b0e576040516305a0a2dd60e41b81526004016106cf90611b9b565b8051610b2190600d90602084019061169b565b507f6741b2fc379fad678116fe3d4d4b9a1a184ab53ba36b86ad0fa66340b1ab41ad81604051610b519190611b88565b60405180910390a150565b60006106a682611144565b600d8054610b7490611cb6565b80601f0160208091040260200160405190810160405280929190818152602001828054610ba090611cb6565b8015610bed5780601f10610bc257610100808354040283529160200191610bed565b820191906000526020600020905b815481529060010190602001808311610bd057829003601f168201915b505050505081565b6008546001600160a01b03163314610c1f5760405162461bcd60e51b81526004016106cf90611bff565b600a80546001600160a01b0319166001600160a01b0392909216919091179055565b60006001600160a01b038216610c6a576040516323d3ad8160e21b815260040160405180910390fd5b506001600160a01b031660009081526005602052604090205467ffffffffffffffff1690565b6060610c9a61134f565b905090565b6008546001600160a01b03163314610cc95760405162461bcd60e51b81526004016106cf90611bff565b610cd3600061135e565b565b60606003805461074590611cb6565b60026009541415610d075760405162461bcd60e51b81526004016106cf90611c34565b6002600955600b54600090610d1d908390611c6b565b9050348114610d3f5760405163bfa3573760e01b815260040160405180910390fd5b600c54821115610d6257604051633435702960e01b815260040160405180910390fd5b610d6c33836113b0565b5050600160095550565b6001600160a01b038216331415610da05760405163b06307db60e01b815260040160405180910390fd5b3360008181526007602090815260408083206001600160a01b03871680855290835292819020805460ff191686151590811790915590519081529192917f17307eab39ab6107e8899845ad3d59bd9653f200f220920489ca2b5937696c31910160405180910390a35050565b600a546001600160a01b0316610e3557604051632c73a0bf60e11b81526004016106cf90611bd2565b600a546001600160a01b03163314801590610e5b57506008546001600160a01b03163314155b15610e79576040516305a0a2dd60e41b81526004016106cf90611b9b565b600f805460ff191660011790556040517fe2a7169cedebe39671840370ae19ca4fc41be6191d4c77f174f189a4d8cd08c890600090a1565b610ebc8484846111ac565b6001600160a01b0383163b15610ef557610ed8848484846113c5565b610ef5576040516368d2bf6b60e11b815260040160405180910390fd5b50505050565b600a546001600160a01b0316610f2457604051632c73a0bf60e11b81526004016106cf90611bd2565b600a546001600160a01b03163314801590610f4a57506008546001600160a01b03163314155b15610f68576040516305a0a2dd60e41b81526004016106cf90611b9b565b60026009541415610f8b5760405162461bcd60e51b81526004016106cf90611c34565b6002600955600c54811115610fb357604051633435702960e01b815260040160405180910390fd5b610fbd33826113b0565b50506001600955565b600f5460609060ff1661100557600e610fde836114bd565b604051602001610fef929190611a81565b6040516020818303038152906040529050919050565b600d610fde836114bd565b919050565b6008546001600160a01b0316331461103f5760405162461bcd60e51b81526004016106cf90611bff565b805161105290600e90602084019061169b565b507fd2bc967bbe8415901898897289f2a34de3bde16de1ab5fc5a57a682844bf565381604051610b519190611b88565b6008546001600160a01b031633146110ac5760405162461bcd60e51b81526004016106cf90611bff565b6001600160a01b0381166111115760405162461bcd60e51b815260206004820152602660248201527f4f776e61626c653a206e6577206f776e657220697320746865207a65726f206160448201526564647265737360d01b60648201526084016106cf565b61111a8161135e565b50565b60008054821080156106a6575050600090815260046020526040902054600160e01b161590565b60008160005481101561119357600081815260046020526040902054600160e01b8116611191575b8061118a57506000190160008181526004602052604090205461116c565b9392505050565b505b604051636f96cda160e11b815260040160405180910390fd5b60006111b782611144565b9050836001600160a01b0316816001600160a01b0316146111ea5760405162a1148160e81b815260040160405180910390fd5b6000336001600160a01b0386161480611208575061120885336105ec565b80611223575033611218846107c8565b6001600160a01b0316145b90508061124357604051632ce44b5f60e11b815260040160405180910390fd5b6001600160a01b03841661126a57604051633a954ecd60e21b815260040160405180910390fd5b600083815260066020908152604080832080546001600160a01b03191690556001600160a01b038881168452600583528184208054600019019055871683528083208054600101905585835260049091529020600160e11b4260a01b86178117909155821661130757600183016000818152600460205260409020546113055760005481146113055760008181526004602052604090208390555b505b82846001600160a01b0316866001600160a01b03167fddf252ad1be2c89b69c2b068fc378daa952ba7f163c4a11628f55a4df523b3ef60405160405180910390a45050505050565b6060600d805461074590611cb6565b600880546001600160a01b038381166001600160a01b0319831681179093556040519116919082907f8be0079c531659141344cd1fd0a4f28419497f9722a3daafe3b4186f6b6457e090600090a35050565b60006113bc838361150c565b50600192915050565b604051630a85bd0160e11b81526000906001600160a01b0385169063150b7a02906113fa903390899088908890600401611b4b565b602060405180830381600087803b15801561141457600080fd5b505af1925050508015611444575060408051601f3d908101601f19168201909252611441918101906119bf565b60015b61149f573d808015611472576040519150601f19603f3d011682016040523d82523d6000602084013e611477565b606091505b508051611497576040516368d2bf6b60e11b815260040160405180910390fd5b805181602001fd5b6001600160e01b031916630a85bd0160e11b1490505b949350505050565b604080516080810191829052607f0190826030600a8206018353600a90045b80156114fa57600183039250600a81066030018353600a90046114dc565b50819003601f19909101908152919050565b61152682826040518060200160405280600081525061152a565b5050565b6000546001600160a01b03841661155357604051622e076360e81b815260040160405180910390fd5b826115715760405163b562e8dd60e01b815260040160405180910390fd5b6001600160a01b03841660008181526005602090815260408083208054680100000000000000018902019055848352600490915290204260a01b86176001861460e11b1790558190818501903b15611646575b60405182906001600160a01b038816906000907fddf252ad1be2c89b69c2b068fc378daa952ba7f163c4a11628f55a4df523b3ef908290a461160f60008784806001019550876113c5565b61162c576040516368d2bf6b60e11b815260040160405180910390fd5b8082106115c457826000541461164157600080fd5b61168b565b5b6040516001830192906001600160a01b038816906000907fddf252ad1be2c89b69c2b068fc378daa952ba7f163c4a11628f55a4df523b3ef908290a4808210611647575b506000908155610ef59085838684565b8280546116a790611cb6565b90600052602060002090601f0160209004810192826116c9576000855561170f565b82601f106116e257805160ff191683800117855561170f565b8280016001018555821561170f579182015b8281111561170f5782518255916020019190600101906116f4565b5061171b92915061171f565b5090565b5b8082111561171b5760008155600101611720565b600067ffffffffffffffff8084111561174f5761174f611d22565b604051601f8501601f19908116603f0116810190828211818310171561177757611777611d22565b8160405280935085815286868601111561179057600080fd5b858560208301376000602087830101525050509392505050565b80356001600160a01b038116811461101057600080fd5b6000602082840312156117d2578081fd5b61118a826117aa565b600080604083850312156117ed578081fd5b6117f6836117aa565b9150611804602084016117aa565b90509250929050565b600080600060608486031215611821578081fd5b61182a846117aa565b9250611838602085016117aa565b9150604084013590509250925092565b6000806000806080858703121561185d578081fd5b611866856117aa565b9350611874602086016117aa565b925060408501359150606085013567ffffffffffffffff811115611896578182fd5b8501601f810187136118a6578182fd5b6118b587823560208401611734565b91505092959194509250565b600080604083850312156118d3578182fd5b6118dc836117aa565b9150602083013580151581146118f0578182fd5b809150509250929050565b6000806040838503121561190d578182fd5b611916836117aa565b946020939093013593505050565b600080600060408486031215611938578283fd5b833567ffffffffffffffff8082111561194f578485fd5b818601915086601f830112611962578485fd5b813581811115611970578586fd5b8760208260051b8501011115611984578586fd5b60209283019550935061199a91860190506117aa565b90509250925092565b6000602082840312156119b4578081fd5b813561118a81611d38565b6000602082840312156119d0578081fd5b815161118a81611d38565b6000602082840312156119ec578081fd5b813567ffffffffffffffff811115611a02578182fd5b8201601f81018413611a12578182fd5b6114b584823560208401611734565b600060208284031215611a32578081fd5b5035919050565b60008151808452611a51816020860160208601611c8a565b601f01601f19169290920160200192915050565b60008151611a77818560208601611c8a565b9290920192915050565b600080845482600182811c915080831680611a9d57607f831692505b6020808410821415611abd57634e487b7160e01b87526022600452602487fd5b818015611ad15760018114611ae257611b0e565b60ff19861689528489019650611b0e565b60008b815260209020885b86811015611b065781548b820152908501908301611aed565b505084890196505b505050505050611b42611b31611b2b83602f60f81b815260010190565b86611a65565b64173539b7b760d91b815260050190565b95945050505050565b6001600160a01b0385811682528416602082015260408101839052608060608201819052600090611b7e90830184611a39565b9695505050505050565b60208152600061118a6020830184611a39565b60208082526017908201527f63616c6c6572206973206e6f74207468652041646d696e000000000000000000604082015260600190565b6020808252601390820152724e6f7420616c6c6f776564206164647265737360681b604082015260600190565b6020808252818101527f4f776e61626c653a2063616c6c6572206973206e6f7420746865206f776e6572604082015260600190565b6020808252601f908201527f5265656e7472616e637947756172643a207265656e7472616e742063616c6c00604082015260600190565b6000816000190483118215151615611c8557611c85611d0c565b500290565b60005b83811015611ca5578181015183820152602001611c8d565b83811115610ef55750506000910152565b600181811c90821680611cca57607f821691505b60208210811415611ceb57634e487b7160e01b600052602260045260246000fd5b50919050565b6000600019821415611d0557611d05611d0c565b5060010190565b634e487b7160e01b600052601160045260246000fd5b634e487b7160e01b600052604160045260246000fd5b6001600160e01b03198116811461111a57600080fdfea2646970667358221220f56c6ba7a924290fc87a219b7ceab131415d192c150e19b44b1bf527ac7be0ce64736f6c63430008040033",
  "linkReferences": {},
  "deployedLinkReferences": {}
}