{
  "_format": "hh-sol-artifact-1",
  "contractName": "GameNFT",
  "sourceName": "contracts/GameNFT.sol",
  "abi": [
    {
      "inputs": [
        {
          "internalType": "address",
          "name": "signer_",
          "type": "address"
        },
        {
          "internalType": "address",
          "name": "receiver_",
          "type": "address"
        },
        {
          "internalType": "string",
          "name": "baseImgUrl_",
          "type": "string"
        }
      ],
      "stateMutability": "nonpayable",
      "type": "constructor"
    },
    {
      "anonymous": false,
      "inputs": [
        {
          "indexed": true,
          "internalType": "address",
          "name": "owner",
          "type": "address"
        },
        {
          "indexed": true,
          "internalType": "address",
          "name": "approved",
          "type": "address"
        },
        {
          "indexed": true,
          "internalType": "uint256",
          "name": "tokenId",
          "type": "uint256"
        }
      ],
      "name": "Approval",
      "type": "event"
    },
    {
      "anonymous": false,
      "inputs": [
        {
          "indexed": true,
          "internalType": "address",
          "name": "owner",
          "type": "address"
        },
        {
          "indexed": true,
          "internalType": "address",
          "name": "operator",
          "type": "address"
        },
        {
          "indexed": false,
          "internalType": "bool",
          "name": "approved",
          "type": "bool"
        }
      ],
      "name": "ApprovalForAll",
      "type": "event"
    },
    {
      "anonymous": false,
      "inputs": [
        {
          "indexed": false,
          "internalType": "address",
          "name": "recipient",
          "type": "address"
        },
        {
          "indexed": false,
          "internalType": "uint256",
          "name": "amount",
          "type": "uint256"
        }
      ],
      "name": "BalanceWithdraw",
      "type": "event"
    },
    {
      "anonymous": false,
      "inputs": [
        {
          "indexed": true,
          "internalType": "address",
          "name": "previousOwner",
          "type": "address"
        },
        {
          "indexed": true,
          "internalType": "address",
          "name": "newOwner",
          "type": "address"
        }
      ],
      "name": "OwnershipTransferred",
      "type": "event"
    },
    {
      "anonymous": false,
      "inputs": [
        {
          "indexed": false,
          "internalType": "address",
          "name": "caller",
          "type": "address"
        },
        {
          "indexed": false,
          "internalType": "uint256",
          "name": "amount",
          "type": "uint256"
        },
        {
          "indexed": false,
          "internalType": "string",
          "name": "message",
          "type": "string"
        }
      ],
      "name": "Received",
      "type": "event"
    },
    {
      "anonymous": false,
      "inputs": [
        {
          "indexed": false,
          "internalType": "address",
          "name": "signer",
          "type": "address"
        }
      ],
      "name": "SignerChanged",
      "type": "event"
    },
    {
      "anonymous": false,
      "inputs": [
        {
          "indexed": false,
          "internalType": "enum GameNFT.State",
          "name": "_state",
          "type": "uint8"
        }
      ],
      "name": "StateChanged",
      "type": "event"
    },
    {
      "anonymous": false,
      "inputs": [
        {
          "indexed": true,
          "internalType": "address",
          "name": "from",
          "type": "address"
        },
        {
          "indexed": true,
          "internalType": "address",
          "name": "to",
          "type": "address"
        },
        {
          "indexed": true,
          "internalType": "uint256",
          "name": "tokenId",
          "type": "uint256"
        }
      ],
      "name": "Transfer",
      "type": "event"
    },
    {
      "stateMutability": "payable",
      "type": "fallback"
    },
    {
      "inputs": [],
      "name": "FOUNDER_COUNT",
      "outputs": [
        {
          "internalType": "uint8",
          "name": "",
          "type": "uint8"
        }
      ],
      "stateMutability": "view",
      "type": "function"
    },
    {
      "inputs": [],
      "name": "MAX_COUNT",
      "outputs": [
        {
          "internalType": "uint16",
          "name": "",
          "type": "uint16"
        }
      ],
      "stateMutability": "view",
      "type": "function"
    },
    {
      "inputs": [],
      "name": "MAX_PRE_ID",
      "outputs": [
        {
          "internalType": "uint16",
          "name": "",
          "type": "uint16"
        }
      ],
      "stateMutability": "view",
      "type": "function"
    },
    {
      "inputs": [],
      "name": "MAX_PRE_MULTI",
      "outputs": [
        {
          "internalType": "uint8",
          "name": "",
          "type": "uint8"
        }
      ],
      "stateMutability": "view",
      "type": "function"
    },
    {
      "inputs": [],
      "name": "MAX_PUBLIC_ID",
      "outputs": [
        {
          "internalType": "uint16",
          "name": "",
          "type": "uint16"
        }
      ],
      "stateMutability": "view",
      "type": "function"
    },
    {
      "inputs": [],
      "name": "MAX_PUBLIC_MULTI",
      "outputs": [
        {
          "internalType": "uint8",
          "name": "",
          "type": "uint8"
        }
      ],
      "stateMutability": "view",
      "type": "function"
    },
    {
      "inputs": [],
      "name": "MINTING_FEE",
      "outputs": [
        {
          "internalType": "uint256",
          "name": "",
          "type": "uint256"
        }
      ],
      "stateMutability": "view",
      "type": "function"
    },
    {
      "inputs": [
        {
          "internalType": "uint256[]",
          "name": "_tokenIds",
          "type": "uint256[]"
        }
      ],
      "name": "adminMint",
      "outputs": [],
      "stateMutability": "nonpayable",
      "type": "function"
    },
    {
      "inputs": [
        {
          "internalType": "uint256[]",
          "name": "_tokenIds",
          "type": "uint256[]"
        },
        {
          "internalType": "address[]",
          "name": "_tos",
          "type": "address[]"
        }
      ],
      "name": "adminMintTo",
      "outputs": [],
      "stateMutability": "nonpayable",
      "type": "function"
    },
    {
      "inputs": [
        {
          "internalType": "address",
          "name": "to",
          "type": "address"
        },
        {
          "internalType": "uint256",
          "name": "tokenId",
          "type": "uint256"
        }
      ],
      "name": "approve",
      "outputs": [],
      "stateMutability": "nonpayable",
      "type": "function"
    },
    {
      "inputs": [
        {
          "internalType": "address",
          "name": "owner",
          "type": "address"
        }
      ],
      "name": "balanceOf",
      "outputs": [
        {
          "internalType": "uint256",
          "name": "",
          "type": "uint256"
        }
      ],
      "stateMutability": "view",
      "type": "function"
    },
    {
      "inputs": [
        {
          "internalType": "address",
          "name": "",
          "type": "address"
        }
      ],
      "name": "freeClaims",
      "outputs": [
        {
          "internalType": "uint8",
          "name": "",
          "type": "uint8"
        }
      ],
      "stateMutability": "view",
      "type": "function"
    },
    {
      "inputs": [
        {
          "internalType": "uint256",
          "name": "tokenId",
          "type": "uint256"
        }
      ],
      "name": "getApproved",
      "outputs": [
        {
          "internalType": "address",
          "name": "",
          "type": "address"
        }
      ],
      "stateMutability": "view",
      "type": "function"
    },
    {
      "inputs": [],
      "name": "getBalance",
      "outputs": [
        {
          "internalType": "uint256",
          "name": "",
          "type": "uint256"
        }
      ],
      "stateMutability": "view",
      "type": "function"
    },
    {
      "inputs": [
        {
          "internalType": "uint256",
          "name": "_tokenId",
          "type": "uint256"
        }
      ],
      "name": "getBaseGenes",
      "outputs": [
        {
          "internalType": "uint256[]",
          "name": "",
          "type": "uint256[]"
        }
      ],
      "stateMutability": "view",
      "type": "function"
    },
    {
      "inputs": [
        {
          "internalType": "address",
          "name": "this_",
          "type": "address"
        },
        {
          "internalType": "address",
          "name": "sender_",
          "type": "address"
        },
        {
          "internalType": "string",
          "name": "msg_",
          "type": "string"
        }
      ],
      "name": "getHash",
      "outputs": [
        {
          "internalType": "bytes32",
          "name": "",
          "type": "bytes32"
        }
      ],
      "stateMutability": "pure",
      "type": "function"
    },
    {
      "inputs": [
        {
          "internalType": "uint256",
          "name": "_tokenId",
          "type": "uint256"
        }
      ],
      "name": "getImgIdx",
      "outputs": [
        {
          "internalType": "string",
          "name": "",
          "type": "string"
        }
      ],
      "stateMutability": "view",
      "type": "function"
    },
    {
      "inputs": [
        {
          "internalType": "uint256",
          "name": "_tokenId",
          "type": "uint256"
        }
      ],
      "name": "getImgUrl",
      "outputs": [
        {
          "internalType": "string",
          "name": "",
          "type": "string"
        }
      ],
      "stateMutability": "view",
      "type": "function"
    },
    {
      "inputs": [
        {
          "internalType": "uint256",
          "name": "_tokenId",
          "type": "uint256"
        }
      ],
      "name": "getSeed",
      "outputs": [
        {
          "internalType": "uint256",
          "name": "",
          "type": "uint256"
        }
      ],
      "stateMutability": "view",
      "type": "function"
    },
    {
      "inputs": [],
      "name": "getSigner",
      "outputs": [
        {
          "internalType": "address",
          "name": "",
          "type": "address"
        }
      ],
      "stateMutability": "view",
      "type": "function"
    },
    {
      "inputs": [
        {
          "internalType": "address",
          "name": "owner",
          "type": "address"
        },
        {
          "internalType": "address",
          "name": "operator",
          "type": "address"
        }
      ],
      "name": "isApprovedForAll",
      "outputs": [
        {
          "internalType": "bool",
          "name": "",
          "type": "bool"
        }
      ],
      "stateMutability": "view",
      "type": "function"
    },
    {
      "inputs": [],
      "name": "isPermanent",
      "outputs": [
        {
          "internalType": "bool",
          "name": "",
          "type": "bool"
        }
      ],
      "stateMutability": "view",
      "type": "function"
    },
    {
      "inputs": [],
      "name": "name",
      "outputs": [
        {
          "internalType": "string",
          "name": "",
          "type": "string"
        }
      ],
      "stateMutability": "view",
      "type": "function"
    },
    {
      "inputs": [],
      "name": "owner",
      "outputs": [
        {
          "internalType": "address",
          "name": "",
          "type": "address"
        }
      ],
      "stateMutability": "view",
      "type": "function"
    },
    {
      "inputs": [
        {
          "internalType": "uint256",
          "name": "tokenId",
          "type": "uint256"
        }
      ],
      "name": "ownerOf",
      "outputs": [
        {
          "internalType": "address",
          "name": "",
          "type": "address"
        }
      ],
      "stateMutability": "view",
      "type": "function"
    },
    {
      "inputs": [
        {
          "internalType": "address",
          "name": "",
          "type": "address"
        }
      ],
      "name": "preMints",
      "outputs": [
        {
          "internalType": "uint8",
          "name": "",
          "type": "uint8"
        }
      ],
      "stateMutability": "view",
      "type": "function"
    },
    {
      "inputs": [
        {
          "internalType": "uint256",
          "name": "_count",
          "type": "uint256"
        }
      ],
      "name": "publicMint",
      "outputs": [],
      "stateMutability": "payable",
      "type": "function"
    },
    {
      "inputs": [],
      "name": "renounceOwnership",
      "outputs": [],
      "stateMutability": "nonpayable",
      "type": "function"
    },
    {
      "inputs": [
        {
          "internalType": "address",
          "name": "from",
          "type": "address"
        },
        {
          "internalType": "address",
          "name": "to",
          "type": "address"
        },
        {
          "internalType": "uint256",
          "name": "tokenId",
          "type": "uint256"
        }
      ],
      "name": "safeTransferFrom",
      "outputs": [],
      "stateMutability": "nonpayable",
      "type": "function"
    },
    {
      "inputs": [
        {
          "internalType": "address",
          "name": "from",
          "type": "address"
        },
        {
          "internalType": "address",
          "name": "to",
          "type": "address"
        },
        {
          "internalType": "uint256",
          "name": "tokenId",
          "type": "uint256"
        },
        {
          "internalType": "bytes",
          "name": "_data",
          "type": "bytes"
        }
      ],
      "name": "safeTransferFrom",
      "outputs": [],
      "stateMutability": "nonpayable",
      "type": "function"
    },
    {
      "inputs": [
        {
          "internalType": "address",
          "name": "operator",
          "type": "address"
        },
        {
          "internalType": "bool",
          "name": "approved",
          "type": "bool"
        }
      ],
      "name": "setApprovalForAll",
      "outputs": [],
      "stateMutability": "nonpayable",
      "type": "function"
    },
    {
      "inputs": [],
      "name": "state",
      "outputs": [
        {
          "internalType": "enum GameNFT.State",
          "name": "",
          "type": "uint8"
        }
      ],
      "stateMutability": "view",
      "type": "function"
    },
    {
      "inputs": [
        {
          "internalType": "bytes4",
          "name": "interfaceId",
          "type": "bytes4"
        }
      ],
      "name": "supportsInterface",
      "outputs": [
        {
          "internalType": "bool",
          "name": "",
          "type": "bool"
        }
      ],
      "stateMutability": "view",
      "type": "function"
    },
    {
      "inputs": [],
      "name": "symbol",
      "outputs": [
        {
          "internalType": "string",
          "name": "",
          "type": "string"
        }
      ],
      "stateMutability": "view",
      "type": "function"
    },
    {
      "inputs": [
        {
          "internalType": "uint256",
          "name": "index",
          "type": "uint256"
        }
      ],
      "name": "tokenByIndex",
      "outputs": [
        {
          "internalType": "uint256",
          "name": "",
          "type": "uint256"
        }
      ],
      "stateMutability": "view",
      "type": "function"
    },
    {
      "inputs": [
        {
          "internalType": "address",
          "name": "owner",
          "type": "address"
        },
        {
          "internalType": "uint256",
          "name": "index",
          "type": "uint256"
        }
      ],
      "name": "tokenOfOwnerByIndex",
      "outputs": [
        {
          "internalType": "uint256",
          "name": "",
          "type": "uint256"
        }
      ],
      "stateMutability": "view",
      "type": "function"
    },
    {
      "inputs": [
        {
          "internalType": "uint256",
          "name": "tokenId",
          "type": "uint256"
        }
      ],
      "name": "tokenURI",
      "outputs": [
        {
          "internalType": "string",
          "name": "",
          "type": "string"
        }
      ],
      "stateMutability": "view",
      "type": "function"
    },
    {
      "inputs": [
        {
          "internalType": "address",
          "name": "_account",
          "type": "address"
        }
      ],
      "name": "tokensOf",
      "outputs": [
        {
          "internalType": "uint256[]",
          "name": "",
          "type": "uint256[]"
        }
      ],
      "stateMutability": "view",
      "type": "function"
    },
    {
      "inputs": [],
      "name": "totalSupply",
      "outputs": [
        {
          "internalType": "uint256",
          "name": "",
          "type": "uint256"
        }
      ],
      "stateMutability": "view",
      "type": "function"
    },
    {
      "inputs": [
        {
          "internalType": "uint256[]",
          "name": "_tokenIds",
          "type": "uint256[]"
        },
        {
          "internalType": "address",
          "name": "_to",
          "type": "address"
        }
      ],
      "name": "transferBatch",
      "outputs": [],
      "stateMutability": "nonpayable",
      "type": "function"
    },
    {
      "inputs": [
        {
          "internalType": "address",
          "name": "from",
          "type": "address"
        },
        {
          "internalType": "address",
          "name": "to",
          "type": "address"
        },
        {
          "internalType": "uint256",
          "name": "tokenId",
          "type": "uint256"
        }
      ],
      "name": "transferFrom",
      "outputs": [],
      "stateMutability": "nonpayable",
      "type": "function"
    },
    {
      "inputs": [
        {
          "internalType": "address",
          "name": "newOwner",
          "type": "address"
        }
      ],
      "name": "transferOwnership",
      "outputs": [],
      "stateMutability": "nonpayable",
      "type": "function"
    },
    {
      "inputs": [
        {
          "internalType": "string",
          "name": "_url",
          "type": "string"
        }
      ],
      "name": "updateBaseImgUrl",
      "outputs": [],
      "stateMutability": "nonpayable",
      "type": "function"
    },
    {
      "inputs": [
        {
          "internalType": "address",
          "name": "gameGene_",
          "type": "address"
        }
      ],
      "name": "updateGene",
      "outputs": [],
      "stateMutability": "nonpayable",
      "type": "function"
    },
    {
      "inputs": [
        {
          "internalType": "uint8",
          "name": "_newMax",
          "type": "uint8"
        }
      ],
      "name": "updateMaxPreMulti",
      "outputs": [],
      "stateMutability": "nonpayable",
      "type": "function"
    },
    {
      "inputs": [
        {
          "internalType": "uint16",
          "name": "_newMax",
          "type": "uint16"
        }
      ],
      "name": "updateMaxPublicId",
      "outputs": [],
      "stateMutability": "nonpayable",
      "type": "function"
    },
    {
      "inputs": [
        {
          "internalType": "uint256",
          "name": "_feeAmount",
          "type": "uint256"
        }
      ],
      "name": "updateMintingFee",
      "outputs": [],
      "stateMutability": "nonpayable",
      "type": "function"
    },
    {
      "inputs": [
        {
          "internalType": "address",
          "name": "signer_",
          "type": "address"
        }
      ],
      "name": "updateSigner",
      "outputs": [],
      "stateMutability": "nonpayable",
      "type": "function"
    },
    {
      "inputs": [],
      "name": "withdraw",
      "outputs": [],
      "stateMutability": "nonpayable",
      "type": "function"
    },
    {
      "stateMutability": "payable",
      "type": "receive"
    }
  ],
  "bytecode": "0x6080604052600e805460ff60a81b1916600160a91b179055620000266078610c80620003ce565b600e805461ffff92909216600160b01b0261ffff60b01b19909216919091179055620000566078610e10620003ce565b600e805463ffffffff60c01b1916600160c01b61ffff939093169290920261ffff60d01b191691909117600f60d31b17905567016345785d8a0000600f55604080516020810191829052600090819052620000b4916010916200020d565b50348015620000c257600080fd5b5060405162003bb238038062003bb2833981016040819052620000e591620002d0565b604080518082018252600a81526911d85b5a5b99c813919560b21b60208083019182528351808501909452600684526508ec2daca8af60d31b90840152815191929162000135916000916200020d565b5080516200014b9060019060208401906200020d565b50506001600a55506200015e33620001bb565b600d80546001600160a01b038086166001600160a01b031992831617909255600e8054928516929091169190911790558051620001a39060109060208401906200020d565b5050600b805460ff60a01b1916905550620004549050565b600b80546001600160a01b038381166001600160a01b0319831681179093556040519116919082907f8be0079c531659141344cd1fd0a4f28419497f9722a3daafe3b4186f6b6457e090600090a35050565b8280546200021b9062000401565b90600052602060002090601f0160209004810192826200023f57600085556200028a565b82601f106200025a57805160ff19168380011785556200028a565b828001600101855582156200028a579182015b828111156200028a5782518255916020019190600101906200026d565b50620002989291506200029c565b5090565b5b808211156200029857600081556001016200029d565b80516001600160a01b0381168114620002cb57600080fd5b919050565b600080600060608486031215620002e5578283fd5b620002f084620002b3565b9250602062000301818601620002b3565b60408601519093506001600160401b03808211156200031e578384fd5b818701915087601f83011262000332578384fd5b8151818111156200034757620003476200043e565b604051601f8201601f19908116603f011681019083821181831017156200037257620003726200043e565b816040528281528a868487010111156200038a578687fd5b8693505b82841015620003ad57848401860151818501870152928501926200038e565b82841115620003be57868684830101525b8096505050505050509250925092565b600061ffff808316818516808303821115620003f857634e487b7160e01b84526011600452602484fd5b01949350505050565b600181811c908216806200041657607f821691505b602082108114156200043857634e487b7160e01b600052602260045260246000fd5b50919050565b634e487b7160e01b600052604160045260246000fd5b61374e80620004646000396000f3fe6080604052600436106102b25760003560e01c806377163c1d11610175578063c0275a25116100dc578063cf2defeb11610095578063e0d4ea371161006f578063e0d4ea3714610927578063e985e9c514610947578063f2fde38b14610990578063f3b90045146109b057610328565b8063cf2defeb146108d1578063d642b4b1146108f1578063d8c844751461090757610328565b8063c0275a251461080e578063c084d5421461082e578063c19d93fb1461084e578063c43345cd1461087c578063c5cf33c214610891578063c87b56dd146108b157610328565b8063904a47951161012e578063904a47951461075957806395d89b41146107795780639fc4a1d81461078e578063a22cb465146107ae578063a7ecd37e146107ce578063b88d4fde146107ee57610328565b806377163c1d146106a557806378bff498146106bb5780637ac3c02f146106dc5780637be33c09146106fa57806381329bbd1461071a5780638da5cb5b1461073b57610328565b80633ccfd60b1161021957806359b0d5b0116101d257806359b0d5b0146105d15780635a3f2672146106015780636352211e1461062e5780636c0e693a1461064e57806370a0823114610670578063715018a61461069057610328565b80633ccfd60b1461050757806342842e0e1461051c578063488af0141461053c5780634f6ccce71461055c57806350ad94131461057c5780635555c402146105b157610328565b80631365b2771161026b5780631365b2771461043d57806318160ddd1461047f57806323b872dd146104945780632db11544146104b45780632f745c59146104c75780633c45d706146104e757610328565b806301ffc9a71461034f5780630202def11461038457806306fdde03146103a6578063081812fc146103c8578063095ea7b31461040057806312065fe01461042057610328565b36610328577f59e04c3f0d44b7caf6e8ef854b61d9a51cf1960d7a88ff6356cc5e946b4b5832335b604080516001600160a01b03909216825234602083015260609082018190526013908201527211985b1b189858dac81dd85cc818d85b1b1959606a1b608082015260a00160405180910390a1005b7f59e04c3f0d44b7caf6e8ef854b61d9a51cf1960d7a88ff6356cc5e946b4b5832336102da565b34801561035b57600080fd5b5061036f61036a36600461305f565b6109c5565b60405190151581526020015b60405180910390f35b34801561039057600080fd5b506103a461039f366004612eff565b6109f0565b005b3480156103b257600080fd5b506103bb610a7a565b60405161037b91906133c4565b3480156103d457600080fd5b506103e86103e336600461315d565b610b0c565b6040516001600160a01b03909116815260200161037b565b34801561040c57600080fd5b506103a461041b366004612e97565b610b94565b34801561042c57600080fd5b50475b60405190815260200161037b565b34801561044957600080fd5b5061046d610458366004612d03565b60126020526000908152604090205460ff1681565b60405160ff909116815260200161037b565b34801561048b57600080fd5b5060085461042f565b3480156104a057600080fd5b506103a46104af366004612daa565b610caa565b6103a46104c236600461315d565b610cdb565b3480156104d357600080fd5b5061042f6104e2366004612e97565b610f43565b3480156104f357600080fd5b506103a4610502366004613097565b610fd9565b34801561051357600080fd5b506103a4611074565b34801561052857600080fd5b506103a4610537366004612daa565b611186565b34801561054857600080fd5b506103a461055736600461318d565b6111a1565b34801561056857600080fd5b5061042f61057736600461315d565b6111eb565b34801561058857600080fd5b50600e5461059e90600160b01b900461ffff1681565b60405161ffff909116815260200161037b565b3480156105bd57600080fd5b506103bb6105cc36600461315d565b61128c565b3480156105dd57600080fd5b5061046d6105ec366004612d03565b60116020526000908152604090205460ff1681565b34801561060d57600080fd5b5061062161061c366004612d03565b61133c565b60405161037b9190613358565b34801561063a57600080fd5b506103e861064936600461315d565b6113fb565b34801561065a57600080fd5b50600e5461059e90600160c01b900461ffff1681565b34801561067c57600080fd5b5061042f61068b366004612d03565b611472565b34801561069c57600080fd5b506103a46114f9565b3480156106b157600080fd5b5061059e61138881565b3480156106c757600080fd5b50600e5461036f90600160a01b900460ff1681565b3480156106e857600080fd5b50600d546001600160a01b03166103e8565b34801561070657600080fd5b506103a4610715366004612d03565b61152f565b34801561072657600080fd5b50600e5461046d90600160a81b900460ff1681565b34801561074757600080fd5b50600b546001600160a01b03166103e8565b34801561076557600080fd5b506103a4610774366004612ec0565b6115d5565b34801561078557600080fd5b506103bb611732565b34801561079a57600080fd5b506103a46107a9366004612f50565b611741565b3480156107ba57600080fd5b506103a46107c9366004612e5d565b611938565b3480156107da57600080fd5b506103a46107e9366004612d03565b611943565b3480156107fa57600080fd5b506103a4610809366004612de5565b6119e9565b34801561081a57600080fd5b506103a461082936600461315d565b611a21565b34801561083a57600080fd5b506103bb61084936600461315d565b611a50565b34801561085a57600080fd5b50600b5461086f90600160a01b900460ff1681565b60405161037b919061339c565b34801561088857600080fd5b5061046d607881565b34801561089d57600080fd5b5061042f6108ac366004612d4f565b611aa9565b3480156108bd57600080fd5b506103bb6108cc36600461315d565b611adf565b3480156108dd57600080fd5b506106216108ec36600461315d565b611bb6565b3480156108fd57600080fd5b5061042f600f5481565b34801561091357600080fd5b506103a461092236600461313b565b611c5f565b34801561093357600080fd5b5061042f61094236600461315d565b611d99565b34801561095357600080fd5b5061036f610962366004612d1d565b6001600160a01b03918216600090815260056020908152604080832093909416825291909152205460ff1690565b34801561099c57600080fd5b506103a46109ab366004612d03565b611e6e565b3480156109bc57600080fd5b5061046d601481565b60006001600160e01b0319821663780e9d6360e01b14806109ea57506109ea82611f09565b92915050565b6002600a541415610a1c5760405162461bcd60e51b8152600401610a139061351d565b60405180910390fd5b6002600a5560005b82811015610a6f57610a5d3383868685818110610a5157634e487b7160e01b600052603260045260246000fd5b90506020020135611186565b80610a6781613691565b915050610a24565b50506001600a555050565b606060008054610a8990613656565b80601f0160208091040260200160405190810160405280929190818152602001828054610ab590613656565b8015610b025780601f10610ad757610100808354040283529160200191610b02565b820191906000526020600020905b815481529060010190602001808311610ae557829003601f168201915b5050505050905090565b6000610b1782611f59565b610b785760405162461bcd60e51b815260206004820152602c60248201527f4552433732313a20617070726f76656420717565727920666f72206e6f6e657860448201526b34b9ba32b73a103a37b5b2b760a11b6064820152608401610a13565b506000908152600460205260409020546001600160a01b031690565b6000610b9f826113fb565b9050806001600160a01b0316836001600160a01b03161415610c0d5760405162461bcd60e51b815260206004820152602160248201527f4552433732313a20617070726f76616c20746f2063757272656e74206f776e656044820152603960f91b6064820152608401610a13565b336001600160a01b0382161480610c295750610c298133610962565b610c9b5760405162461bcd60e51b815260206004820152603860248201527f4552433732313a20617070726f76652063616c6c6572206973206e6f74206f7760448201527f6e6572206e6f7220617070726f76656420666f7220616c6c00000000000000006064820152608401610a13565b610ca58383611f76565b505050565b610cb43382611fe4565b610cd05760405162461bcd60e51b8152600401610a1390613495565b610ca58383836120ce565b6002600a541415610cfe5760405162461bcd60e51b8152600401610a139061351d565b6002600a819055600b54600160a01b900460ff166003811115610d3157634e487b7160e01b600052602160045260246000fd5b14610d8a5760405162461bcd60e51b815260206004820152602360248201527f47616d654e46543a205374617465206973206e6f7420696e205075626c69634d6044820152621a5b9d60ea1b6064820152608401610a13565b6014811115610df45760405162461bcd60e51b815260206004820152603060248201527f47616d654e46543a204d696e74696e6720636f756e742065786365656473206d60448201526f1bdc99481d1a185b88185b1b1bddd95960821b6064820152608401610a13565b600e5461ffff600160c01b8204811691610e17918491600160d01b9004166135c8565b1115610e7b5760405162461bcd60e51b815260206004820152602d60248201527f47616d654e46543a2043616e206e6f74206d696e74206d6f7265207468616e2060448201526c13505617d41550931250d7d251609a1b6064820152608401610a13565b3481600f54610e8a91906135f4565b14610eec5760405162461bcd60e51b815260206004820152602c60248201527f47616d654e46543a204d696e74696e672066656520616d6f756e747320646f6560448201526b39903737ba1036b0ba31b41760a11b6064820152608401610a13565b60005b81811015610f3a57610f0c33610f03612275565b61ffff16612307565b610f285760405162461bcd60e51b8152600401610a1390613429565b80610f3281613691565b915050610eef565b50506001600a55565b6000610f4e83611472565b8210610fb05760405162461bcd60e51b815260206004820152602b60248201527f455243373231456e756d657261626c653a206f776e657220696e646578206f7560448201526a74206f6620626f756e647360a81b6064820152608401610a13565b506001600160a01b03919091166000908152600660209081526040808320938352929052205490565b600b546001600160a01b031633146110035760405162461bcd60e51b8152600401610a1390613460565b600e54600160a01b900460ff161561105d5760405162461bcd60e51b815260206004820152601f60248201527f47616d654e46543a20416c6c20696d6167657320617265206f6e2069706673006044820152606401610a13565b8051611070906010906020840190612bad565b5050565b600b546001600160a01b0316331461109e5760405162461bcd60e51b8152600401610a1390613460565b600e5460405147916000916001600160a01b039091169083908381818185875af1925050503d80600081146110ef576040519150601f19603f3d011682016040523d82523d6000602084013e6110f4565b606091505b505090508061113c5760405162461bcd60e51b81526020600482015260146024820152732330b4b632b2103a379039b2b7321022ba3432b960611b6044820152606401610a13565b600e54604080516001600160a01b039092168252602082018490527f8777844761eb456b028cf7f87fc8dcb146ad8eeafbc6f80f2d006e5cd9e5a745910160405180910390a15050565b610ca5838383604051806020016040528060008152506119e9565b600b546001600160a01b031633146111cb5760405162461bcd60e51b8152600401610a1390613460565b600e805460ff909216600160a81b0260ff60a81b19909216919091179055565b60006111f660085490565b82106112595760405162461bcd60e51b815260206004820152602c60248201527f455243373231456e756d657261626c653a20676c6f62616c20696e646578206f60448201526b7574206f6620626f756e647360a01b6064820152608401610a13565b6008828154811061127a57634e487b7160e01b600052603260045260246000fd5b90600052602060002001549050919050565b606061129782611f59565b6112b35760405162461bcd60e51b8152600401610a13906134e6565b600c54604051632aaae20160e11b8152600481018490526001600160a01b03909116908190635555c4029060240160006040518083038186803b1580156112f957600080fd5b505afa15801561130d573d6000803e3d6000fd5b505050506040513d6000823e601f3d908101601f1916820160405261133591908101906130c9565b9392505050565b6060600061134983611472565b6001600160401b0381111561136e57634e487b7160e01b600052604160045260246000fd5b604051908082528060200260200182016040528015611397578160200160208202803683370190505b50905060005b6113a684611472565b8110156113f4576113b78482610f43565b8282815181106113d757634e487b7160e01b600052603260045260246000fd5b6020908102919091010152806113ec81613691565b91505061139d565b5092915050565b6000818152600260205260408120546001600160a01b0316806109ea5760405162461bcd60e51b815260206004820152602960248201527f4552433732313a206f776e657220717565727920666f72206e6f6e657869737460448201526832b73a103a37b5b2b760b91b6064820152608401610a13565b60006001600160a01b0382166114dd5760405162461bcd60e51b815260206004820152602a60248201527f4552433732313a2062616c616e636520717565727920666f7220746865207a65604482015269726f206164647265737360b01b6064820152608401610a13565b506001600160a01b031660009081526003602052604090205490565b600b546001600160a01b031633146115235760405162461bcd60e51b8152600401610a1390613460565b61152d600061231c565b565b600b546001600160a01b031633146115595760405162461bcd60e51b8152600401610a1390613460565b600e54600160a01b900460ff16156115b35760405162461bcd60e51b815260206004820152601f60248201527f47616d654e46543a2047656e6520636f6e7472616374206973206669786564006044820152606401610a13565b600c80546001600160a01b0319166001600160a01b0392909216919091179055565b600b546001600160a01b031633146115ff5760405162461bcd60e51b8152600401610a1390613460565b6002600a5414156116225760405162461bcd60e51b8152600401610a139061351d565b6002600a5560005b8181101561172857600083838381811061165457634e487b7160e01b600052603260045260246000fd5b90506020020135905061166681611f59565b611715576000811161167757600080fd5b6078811115806116935750600e54600160c01b900461ffff1681115b6116df5760405162461bcd60e51b815260206004820152601b60248201527f47616d654e46543a206964206973206f7574206f662072616e676500000000006044820152606401610a13565b6113888111156116ee57600080fd5b6116f9335b82612307565b6117155760405162461bcd60e51b8152600401610a1390613429565b508061172081613691565b91505061162a565b50506001600a5550565b606060018054610a8990613656565b600b546001600160a01b0316331461176b5760405162461bcd60e51b8152600401610a1390613460565b6002600a54141561178e5760405162461bcd60e51b8152600401610a139061351d565b6002600a558281146117fe5760405162461bcd60e51b815260206004820152603360248201527f47616d654e46543a20746f6b656e20636f756e7420646f6573206e6f74206d616044820152721d18da081c9958da5c1a595b9d0818dbdd5b9d606a1b6064820152608401610a13565b60005b8381101561192c57600085858381811061182b57634e487b7160e01b600052603260045260246000fd5b90506020020135905061183d81611f59565b611919576000811161184e57600080fd5b60788111158061186a5750600e54600160c01b900461ffff1681115b6118b65760405162461bcd60e51b815260206004820152601b60248201527f47616d654e46543a206964206973206f7574206f662072616e676500000000006044820152606401610a13565b6113888111156118c557600080fd5b6118fd8484848181106118e857634e487b7160e01b600052603260045260246000fd5b90506020020160208101906116f39190612d03565b6119195760405162461bcd60e51b8152600401610a1390613429565b508061192481613691565b915050611801565b50506001600a55505050565b61107033838361236e565b600b546001600160a01b0316331461196d5760405162461bcd60e51b8152600401610a1390613460565b600e54600160a01b900460ff16156119c75760405162461bcd60e51b815260206004820152601a60248201527f47616d654e46543a20636f6e74726163742069732066697865640000000000006044820152606401610a13565b600d80546001600160a01b0319166001600160a01b0392909216919091179055565b6119f33383611fe4565b611a0f5760405162461bcd60e51b8152600401610a1390613495565b611a1b8484848461243d565b50505050565b600b546001600160a01b03163314611a4b5760405162461bcd60e51b8152600401610a1390613460565b600f55565b6060611a5b82611f59565b611a775760405162461bcd60e51b8152600401610a13906134e6565b6010611a8283612470565b604051602001611a9392919061326b565b6040516020818303038152906040529050919050565b6000838383604051602001611ac0939291906131f6565b6040516020818303038152906040528051906020012090509392505050565b6060611aea82611f59565b611b4e5760405162461bcd60e51b815260206004820152602f60248201527f4552433732314d657461646174613a2055524920717565727920666f72206e6f60448201526e3732bc34b9ba32b73a103a37b5b2b760891b6064820152608401610a13565b6000611b6560408051602081019091526000815290565b90506000815111611b855760405180602001604052806000815250611335565b80611b8f84612589565b604051602001611ba092919061323c565b6040516020818303038152906040529392505050565b6060611bc182611f59565b611bdd5760405162461bcd60e51b8152600401610a13906134e6565b600c5460405163cf2defeb60e01b8152600481018490526001600160a01b0390911690819063cf2defeb9060240160006040518083038186803b158015611c2357600080fd5b505afa158015611c37573d6000803e3d6000fd5b505050506040513d6000823e601f3d908101601f191682016040526113359190810190612fb8565b600b546001600160a01b03163314611c895760405162461bcd60e51b8152600401610a1390613460565b600e5461ffff600160d01b90910481169082161015611d105760405162461bcd60e51b815260206004820152603c60248201527f47616d654e46543a2043616e206e6f7420736574204d41585f5055424c49435f60448201527f4944206c6f776572207468616e207468652063757272656e74206964000000006064820152608401610a13565b61138861ffff82161115611d775760405162461bcd60e51b815260206004820152602860248201527f47616d654e46543a2043616e206e6f7420736574206d6f7265207468616e204d604482015267105617d0d3d5539560c21b6064820152608401610a13565b600e805461ffff909216600160c01b0261ffff60c01b19909216919091179055565b600b546000906001600160a01b03163314611dc65760405162461bcd60e51b8152600401610a1390613460565b611dcf82611f59565b611deb5760405162461bcd60e51b8152600401610a13906134e6565b600c5460405163e0d4ea3760e01b8152600481018490526001600160a01b0390911690819063e0d4ea379060240160206040518083038186803b158015611e3157600080fd5b505afa158015611e45573d6000803e3d6000fd5b505050506040513d601f19601f820116820180604052508101906113359190613175565b919050565b600b546001600160a01b03163314611e985760405162461bcd60e51b8152600401610a1390613460565b6001600160a01b038116611efd5760405162461bcd60e51b815260206004820152602660248201527f4f776e61626c653a206e6577206f776e657220697320746865207a65726f206160448201526564647265737360d01b6064820152608401610a13565b611f068161231c565b50565b60006001600160e01b031982166380ac58cd60e01b1480611f3a57506001600160e01b03198216635b5e139f60e01b145b806109ea57506301ffc9a760e01b6001600160e01b03198316146109ea565b6000908152600260205260409020546001600160a01b0316151590565b600081815260046020526040902080546001600160a01b0319166001600160a01b0384169081179091558190611fab826113fb565b6001600160a01b03167f8c5be1e5ebec7d5bd14f71427d1e84f3dd0314c0f7b2291e5b200ac8c7c3b92560405160405180910390a45050565b6000611fef82611f59565b6120505760405162461bcd60e51b815260206004820152602c60248201527f4552433732313a206f70657261746f7220717565727920666f72206e6f6e657860448201526b34b9ba32b73a103a37b5b2b760a11b6064820152608401610a13565b600061205b836113fb565b9050806001600160a01b0316846001600160a01b031614806120a257506001600160a01b0380821660009081526005602090815260408083209388168352929052205460ff165b806120c65750836001600160a01b03166120bb84610b0c565b6001600160a01b0316145b949350505050565b826001600160a01b03166120e1826113fb565b6001600160a01b0316146121455760405162461bcd60e51b815260206004820152602560248201527f4552433732313a207472616e736665722066726f6d20696e636f72726563742060448201526437bbb732b960d91b6064820152608401610a13565b6001600160a01b0382166121a75760405162461bcd60e51b8152602060048201526024808201527f4552433732313a207472616e7366657220746f20746865207a65726f206164646044820152637265737360e01b6064820152608401610a13565b6121b28383836126a2565b6121bd600082611f76565b6001600160a01b03831660009081526003602052604081208054600192906121e6908490613613565b90915550506001600160a01b03821660009081526003602052604081208054600192906122149084906135c8565b909155505060008181526002602052604080822080546001600160a01b0319166001600160a01b0386811691821790925591518493918716917fddf252ad1be2c89b69c2b068fc378daa952ba7f163c4a11628f55a4df523b3ef91a4505050565b600e54600090819061229390600160d01b900461ffff1660016135ab565b90506122a28161ffff16611f59565b156122e8575b600e5461ffff600160c01b9091048116908216116122e8576122cb6001826135ab565b90506122da8161ffff16611f59565b6122e3576122e8565b6122a8565b600e805461ffff60d01b1916600160d01b61ffff841602179055919050565b6000612313838361275a565b50600192915050565b600b80546001600160a01b038381166001600160a01b0319831681179093556040519116919082907f8be0079c531659141344cd1fd0a4f28419497f9722a3daafe3b4186f6b6457e090600090a35050565b816001600160a01b0316836001600160a01b031614156123d05760405162461bcd60e51b815260206004820152601960248201527f4552433732313a20617070726f766520746f2063616c6c6572000000000000006044820152606401610a13565b6001600160a01b03838116600081815260056020908152604080832094871680845294825291829020805460ff191686151590811790915591519182527f17307eab39ab6107e8899845ad3d59bd9653f200f220920489ca2b5937696c31910160405180910390a3505050565b6124488484846120ce565b61245484848484612774565b611a1b5760405162461bcd60e51b8152600401610a13906133d7565b6060816124945750506040805180820190915260018152600360fc1b602082015290565b8160005b81156124be57806124a881613691565b91506124b79050600a836135e0565b9150612498565b6000816001600160401b038111156124e657634e487b7160e01b600052604160045260246000fd5b6040519080825280601f01601f191660200182016040528015612510576020820181803683370190505b5090505b84156120c657612525600183613613565b9150612532600a866136ac565b61253d9060306135c8565b60f81b81838151811061256057634e487b7160e01b600052603260045260246000fd5b60200101906001600160f81b031916908160001a905350612582600a866135e0565b9450612514565b6060816125ad5750506040805180820190915260018152600360fc1b602082015290565b8160005b81156125d757806125c181613691565b91506125d09050600a836135e0565b91506125b1565b6000816001600160401b038111156125ff57634e487b7160e01b600052604160045260246000fd5b6040519080825280601f01601f191660200182016040528015612629576020820181803683370190505b5090505b84156120c65761263e600183613613565b915061264b600a866136ac565b6126569060306135c8565b60f81b81838151811061267957634e487b7160e01b600052603260045260246000fd5b60200101906001600160f81b031916908160001a90535061269b600a866135e0565b945061262d565b6001600160a01b0383166126fd576126f881600880546000838152600960205260408120829055600182018355919091527ff3f7a9fe364faab93b216da50a3214154f22a0a2b415b23a84c8169e8b636ee30155565b612720565b816001600160a01b0316836001600160a01b031614612720576127208382612881565b6001600160a01b03821661273757610ca58161291e565b826001600160a01b0316826001600160a01b031614610ca557610ca582826129f7565b611070828260405180602001604052806000815250612a3b565b60006001600160a01b0384163b1561287657604051630a85bd0160e11b81526001600160a01b0385169063150b7a02906127b890339089908890889060040161331b565b602060405180830381600087803b1580156127d257600080fd5b505af1925050508015612802575060408051601f3d908101601f191682019092526127ff9181019061307b565b60015b61285c573d808015612830576040519150601f19603f3d011682016040523d82523d6000602084013e612835565b606091505b5080516128545760405162461bcd60e51b8152600401610a13906133d7565b805181602001fd5b6001600160e01b031916630a85bd0160e11b1490506120c6565b506001949350505050565b6000600161288e84611472565b6128989190613613565b6000838152600760205260409020549091508082146128eb576001600160a01b03841660009081526006602090815260408083208584528252808320548484528184208190558352600790915290208190555b5060009182526007602090815260408084208490556001600160a01b039094168352600681528383209183525290812055565b60085460009061293090600190613613565b6000838152600960205260408120546008805493945090928490811061296657634e487b7160e01b600052603260045260246000fd5b90600052602060002001549050806008838154811061299557634e487b7160e01b600052603260045260246000fd5b60009182526020808320909101929092558281526009909152604080822084905585825281205560088054806129db57634e487b7160e01b600052603160045260246000fd5b6001900381819060005260206000200160009055905550505050565b6000612a0283611472565b6001600160a01b039093166000908152600660209081526040808320868452825280832085905593825260079052919091209190915550565b612a458383612a6e565b612a526000848484612774565b610ca55760405162461bcd60e51b8152600401610a13906133d7565b6001600160a01b038216612ac45760405162461bcd60e51b815260206004820181905260248201527f4552433732313a206d696e7420746f20746865207a65726f20616464726573736044820152606401610a13565b612acd81611f59565b15612b1a5760405162461bcd60e51b815260206004820152601c60248201527f4552433732313a20746f6b656e20616c7265616479206d696e746564000000006044820152606401610a13565b612b26600083836126a2565b6001600160a01b0382166000908152600360205260408120805460019290612b4f9084906135c8565b909155505060008181526002602052604080822080546001600160a01b0319166001600160a01b03861690811790915590518392907fddf252ad1be2c89b69c2b068fc378daa952ba7f163c4a11628f55a4df523b3ef908290a45050565b828054612bb990613656565b90600052602060002090601f016020900481019282612bdb5760008555612c21565b82601f10612bf457805160ff1916838001178555612c21565b82800160010185558215612c21579182015b82811115612c21578251825591602001919060010190612c06565b50612c2d929150612c31565b5090565b5b80821115612c2d5760008155600101612c32565b6000612c59612c5484613584565b613554565b9050828152838383011115612c6d57600080fd5b828260208301376000602084830101529392505050565b80356001600160a01b0381168114611e6957600080fd5b60008083601f840112612cac578182fd5b5081356001600160401b03811115612cc2578182fd5b6020830191508360208260051b8501011115612cdd57600080fd5b9250929050565b600082601f830112612cf4578081fd5b61133583833560208501612c46565b600060208284031215612d14578081fd5b61133582612c84565b60008060408385031215612d2f578081fd5b612d3883612c84565b9150612d4660208401612c84565b90509250929050565b600080600060608486031215612d63578081fd5b612d6c84612c84565b9250612d7a60208501612c84565b915060408401356001600160401b03811115612d94578182fd5b612da086828701612ce4565b9150509250925092565b600080600060608486031215612dbe578283fd5b612dc784612c84565b9250612dd560208501612c84565b9150604084013590509250925092565b60008060008060808587031215612dfa578081fd5b612e0385612c84565b9350612e1160208601612c84565b92506040850135915060608501356001600160401b03811115612e32578182fd5b8501601f81018713612e42578182fd5b612e5187823560208401612c46565b91505092959194509250565b60008060408385031215612e6f578182fd5b612e7883612c84565b915060208301358015158114612e8c578182fd5b809150509250929050565b60008060408385031215612ea9578182fd5b612eb283612c84565b946020939093013593505050565b60008060208385031215612ed2578182fd5b82356001600160401b03811115612ee7578283fd5b612ef385828601612c9b565b90969095509350505050565b600080600060408486031215612f13578081fd5b83356001600160401b03811115612f28578182fd5b612f3486828701612c9b565b9094509250612f47905060208501612c84565b90509250925092565b60008060008060408587031215612f65578182fd5b84356001600160401b0380821115612f7b578384fd5b612f8788838901612c9b565b90965094506020870135915080821115612f9f578384fd5b50612fac87828801612c9b565b95989497509550505050565b60006020808385031215612fca578182fd5b82516001600160401b0380821115612fe0578384fd5b818501915085601f830112612ff3578384fd5b815181811115613005576130056136ec565b8060051b9150613016848301613554565b8181528481019084860184860187018a1015613030578788fd5b8795505b83861015613052578051835260019590950194918601918601613034565b5098975050505050505050565b600060208284031215613070578081fd5b813561133581613702565b60006020828403121561308c578081fd5b815161133581613702565b6000602082840312156130a8578081fd5b81356001600160401b038111156130bd578182fd5b6120c684828501612ce4565b6000602082840312156130da578081fd5b81516001600160401b038111156130ef578182fd5b8201601f810184136130ff578182fd5b805161310d612c5482613584565b818152856020838501011115613121578384fd5b61313282602083016020860161362a565b95945050505050565b60006020828403121561314c578081fd5b813561ffff81168114611335578182fd5b60006020828403121561316e578081fd5b5035919050565b600060208284031215613186578081fd5b5051919050565b60006020828403121561319e578081fd5b813560ff81168114611335578182fd5b600081518084526131c681602086016020860161362a565b601f01601f19169290920160200192915050565b600081516131ec81856020860161362a565b9290920192915050565b60006bffffffffffffffffffffffff19808660601b168352808560601b16601484015250825161322d81602885016020870161362a565b91909101602801949350505050565b6000835161324e81846020880161362a565b83519083019061326281836020880161362a565b01949350505050565b600080845482600182811c91508083168061328757607f831692505b60208084108214156132a757634e487b7160e01b87526022600452602487fd5b8180156132bb57600181146132cc576132f8565b60ff198616895284890196506132f8565b60008b815260209020885b868110156132f05781548b8201529085019083016132d7565b505084890196505b50505050505061313261330b82866131da565b631733b4b360e11b815260040190565b6001600160a01b038581168252841660208201526040810183905260806060820181905260009061334e908301846131ae565b9695505050505050565b6020808252825182820181905260009190848201906040850190845b8181101561339057835183529284019291840191600101613374565b50909695505050505050565b60208101600483106133be57634e487b7160e01b600052602160045260246000fd5b91905290565b60208152600061133560208301846131ae565b60208082526032908201527f4552433732313a207472616e7366657220746f206e6f6e20455243373231526560408201527131b2b4bb32b91034b6b83632b6b2b73a32b960711b606082015260800190565b60208082526017908201527f47616d654e46543a206d696e74696e67206661696c6564000000000000000000604082015260600190565b6020808252818101527f4f776e61626c653a2063616c6c6572206973206e6f7420746865206f776e6572604082015260600190565b60208082526031908201527f4552433732313a207472616e736665722063616c6c6572206973206e6f74206f6040820152701ddb995c881b9bdc88185c1c1c9bdd9959607a1b606082015260800190565b6020808252601f908201527f47616d654e46543a20546f6b656e4964206e6f74206d696e7465642079657400604082015260600190565b6020808252601f908201527f5265656e7472616e637947756172643a207265656e7472616e742063616c6c00604082015260600190565b604051601f8201601f191681016001600160401b038111828210171561357c5761357c6136ec565b604052919050565b60006001600160401b0382111561359d5761359d6136ec565b50601f01601f191660200190565b600061ffff808316818516808303821115613262576132626136c0565b600082198211156135db576135db6136c0565b500190565b6000826135ef576135ef6136d6565b500490565b600081600019048311821515161561360e5761360e6136c0565b500290565b600082821015613625576136256136c0565b500390565b60005b8381101561364557818101518382015260200161362d565b83811115611a1b5750506000910152565b600181811c9082168061366a57607f821691505b6020821081141561368b57634e487b7160e01b600052602260045260246000fd5b50919050565b60006000198214156136a5576136a56136c0565b5060010190565b6000826136bb576136bb6136d6565b500690565b634e487b7160e01b600052601160045260246000fd5b634e487b7160e01b600052601260045260246000fd5b634e487b7160e01b600052604160045260246000fd5b6001600160e01b031981168114611f0657600080fdfea26469706673582212206131d02f9362aadde780efcd7129367b181c281f8960eb48de8f4a035dfddbad64736f6c63430008040033",
  "linkReferences": {},
  "deployedLinkReferences": {}
}